:020000040800F2
:1000000000000220553B0008C92000084D210008CF
:1000100061210008812100088921000800000000FA
:10002000000000000000000000000000E1EF0008F8
:10003000912100080000000071F0000895210008DF
:10004000A53B0008A53B0008A53B0008A53B000810
:10005000A53B0008A53B000871410008914100083C
:10006000B1410008D1410008F14100089921000880
:10007000A53B0008A5210008A53B0008B121000808
:10008000BD210008C9210008A53B0008E1210008A6
:10009000ED210008F921000805220008114200089E
:1000A000A53B0008A53B0008A53B0008A53B0008B0
:1000B000A53B0008A53B0008A53B0008F935000852
:1000C00005360008A53B0008A53B0008A53B000835
:1000D000A53B0008A53B000811220008A53B00082D
:1000E00095420008A53B0008A53B0008A53B000879
:1000F000D53300081D220008A53B0008D5210008C3
:10010000A53B0008A53B0008C933000839220008B8
:1001100045220008A53B0008A53B0008A53B0008B8
:10012000A53B0008A53B0008A53B0008A53B00082F
:10013000A53B00080000000000000000A53B0008EF
:10014000A53B0008A53B0008A53B000811360008A8
:10015000A53B0008A53B0008A53B0008A53B0008FF
:10016000A53B0008A53B0008A53B0008A53B0008EF
:10017000A53B000861340008A53B00080000000012
:1001800000000000A53B0008000000000000000087
:10019000A53B00080000000000000000A53B00088F
:1001A000000000000000000000000000A53B000867
:1001B000A53B0008A53B0008A53B0008A53B00089F
:0401C000A53B000853
:10020000A2EB0300704700BF02780B78012A28BFD9
:100210009A42F5D16DE9044540EA0104CDE902674F
:100220006FF0000C4FEA447212B380EA010414F03C
:10023000070F6AD100F0070420F0070004F003055F
:1002400021F007014FEAC505F0E8042314F0040F7C
:10025000F1E804670CFA05F462EA040266EA0406AF
:100260000AD063EA0403624667EA0407664603E0CD
:10027000F0E80423F1E8046782FA4CF582EA060408
:10028000A4FA8CF46CBB83FA4CF583EA0705A5FA53
:100290008CF595B950E9022351E9026782FA4CF5D1
:1002A00082EA0604A4FA8CF483FA4CF583EA070583
:1002B000A5FA8CF52543DBD09CB92DBAB5FA85F4A7
:1002C00024F0070427FA04F1DDE9026723FA04F3B6
:1002D00003F0FF0001F0FF01FDE80445A0EB010081
:1002E000704724BAB4FA84F424F0070426FA04F11F
:1002F000DDE9026722FA04F202F0FF0001F0FF01DB
:10030000FDE80445A0EB0100704714F0030F3CD159
:1003100010F0030428D150F8082B51F8083B82FA5A
:100320004CF582EA0305A5FA8CF55DB950F8042C6A
:1003300051F8043C82FA4CF582EA0305A5FA8CF5E3
:10034000002DE8D02DBAB5FA85F424F0070423FA7D
:1003500004F122FA04F202F0FF0001F0FF01FDE8CF
:100360000445A0EB010070474FEAC40420F00300ED
:1003700050F8082B21F0030151F8083B0CFA04F463
:1003800062EA040263EA0403C9E710F003041AD026
:10039000A1EB040120F00300E40750F8042B06D081
:1003A0000FD28B785FFAA2F4E41A06D12BB1CB7886
:1003B0005FFAB2F4E41A00D11BB920465DF8104B85
:1003C000704701F1040150F8042BCC0721F0030120
:1003D00051F8043B48D824D222F07F4482FA4CF5ED
:1003E00094EA1325A5FA8CF50AD165B951F8043BB6
:1003F00084EA0204B4EB036F0ED150F8042BEBE750
:100400004FEA132355E035F07F454DD10878FDE8DC
:100410000445C0F1000070474FEA126203F0FF0389
:1004200047E002EA1C4482FA4CF594EA1345A5FA27
:100430008CF50AD165B951F8043B84EA0204B4EBA7
:10044000034F0CD150F8042BEBE74FEA134330E095
:1004500015EA1C4528D10B884FEA124229E04FEAE1
:10046000124203EA1C4324E002F0FF0482FA4CF536
:1004700094EA1365A5FA8CF50AD165B951F8043BE5
:1004800084EA0204B4EB032F09D150F8042BEBE704
:100490004FEA13630DE015F0FF0F05D10B684FEA2B
:1004A000122223F07F4304E04FF00000FDE80445F2
:1004B000704712BA1BBA82FA4CF482EA0304A4FA17
:1004C0008CF5B5FA85F402FA04F203FA04F34FEA64
:1004D0001260FDE80445A0EB1360704700000000C7
:1004E00001F0FF01102A2BDB10F0070F08D010F8E5
:1004F000013B013A8B422DD010F0070F42B3F6D1E9
:10050000F0B441EA012141EA014122F007047FF001
:1005100000070023F0E80256083C85EA010586EA58
:10052000010685FA47F5A3FA87F586FA47F6A5FA94
:1005300087F68EB9EED1F0BC01F0FF0102F00702A0
:1005400032B110F8013B013A83EA010313B1F8D14B
:100550000020704701387047002D06BF354603382C
:10056000073815F0010F07D1013015F4807F02BF65
:10057000013015F4C03F0130F0BC0138704700BFB6
:10058000844641EA000313F003036DD1403A41D39E
:1005900051F8043B40F8043B51F8043B40F8043B5D
:1005A00051F8043B40F8043B51F8043B40F8043B4D
:1005B00051F8043B40F8043B51F8043B40F8043B3D
:1005C00051F8043B40F8043B51F8043B40F8043B2D
:1005D00051F8043B40F8043B51F8043B40F8043B1D
:1005E00051F8043B40F8043B51F8043B40F8043B0D
:1005F00051F8043B40F8043B51F8043B40F8043BFD
:1006000051F8043B40F8043B51F8043B40F8043BEC
:10061000403ABDD2303211D351F8043B40F8043B8C
:1006200051F8043B40F8043B51F8043B40F8043BCC
:1006300051F8043B40F8043B103AEDD20C3205D39C
:1006400051F8043B40F8043B043AF9D2043208D094
:10065000D2071CBF11F8013B00F8013B01D30B8806
:1006600003806046704700BF082A13D38B078DD0E4
:1006700010F003038AD0C3F10403D21ADB071CBFB6
:1006800011F8013B00F8013B80D331F8023B20F820
:10069000023B7BE7043AD9D3013A11F8013B00F859
:1006A000013BF9D20B7803704B7843708B788370E1
:1006B00060467047000000000000000000000000DD
:1006C00090F800F06DE9024520F007016FF0000C92
:1006D00010F0070491F820F040F049804FF000043A
:1006E0006FF00700D1E9002391F840F000F1080015
:1006F00082FA4CF2A4FA8CF283FA4CF3A2FA8CF34D
:100700004BBBD1E9022382FA4CF200F10800A4FAB3
:100710008CF283FA4CF3A2FA8CF3E3B9D1E9042307
:1007200082FA4CF200F10800A4FA8CF283FA4CF33E
:10073000A2FA8CF37BB9D1E9062301F1200182FAF8
:100740004CF200F10800A4FA8CF283FA4CF3A2FAFE
:100750008CF3002BC6D0002A04BF04301A4612BA0C
:10076000B2FA82F2FDE8024500EBD2007047D1E90F
:10077000002304F00305C4F100004FEAC50514F09E
:10078000040F91F840F00CFA05F562EA05021CBF6F
:1007900063EA050362464FF00004A9E781F00041D7
:1007A00002E000BF83F0004330B54FEA41044FEA56
:1007B000430594EA050F08BF90EA020F1FBF54EAF1
:1007C000000C55EA020C7FEA645C7FEA655C00F08D
:1007D000E2804FEA5454D4EB5555B8BF6D420CDD5E
:1007E0002C4480EA020281EA030382EA000083EAE1
:1007F000010180EA020281EA0303362D88BF30BD81
:1008000011F0004F4FEA01314FF4801C4CEA1131D6
:1008100002D0404261EB410113F0004F4FEA033335
:100820004CEA133302D0524263EB430394EA050FC0
:1008300000F0A780A4F10104D5F1200E0DDB02FA2F
:100840000EFC22FA05F2801841F1000103FA0EF2C3
:10085000801843FA05F359410EE0A5F120050EF189
:10086000200E012A03FA0EFC28BF4CF0020C43FABA
:1008700005F3C01851EBE37101F0004507D54FF0C7
:10088000000EDCF1000C7EEB00006EEB0101B1F517
:10089000801F1BD3B1F5001F0CD349085FEA30005D
:1008A0004FEA3C0C04F101044FEA445212F5800F68
:1008B00080F09A80BCF1004F08BF5FEA500C50F105
:1008C000000041EB045141EA050130BD5FEA4C0CE8
:1008D000404141EB0101013C28BFB1F5801FE9D245
:1008E00091F0000F04BF01460020B1FA81F308BF68
:1008F0002033A3F10B03B3F120020CDA0C3208DD34
:1009000002F1140CC2F10C0201FA0CF021FA02F10E
:100910000CE002F11402D8BFC2F1200C01FA02F17E
:1009200020FA0CFCDCBF41EA0C019040E41AA2BFA3
:1009300001EB0451294330BD6FEA04041F3C1CDA6B
:100940000C340EDC04F11404C4F1200220FA04F08B
:1009500001FA02F340EA030021FA04F345EA030135
:1009600030BDC4F10C04C4F1200220FA02F001FAF7
:1009700004F340EA0300294630BD21FA04F0294679
:1009800030BD94F0000F83F4801306BF81F4801112
:100990000134013D4EE77FEA645C18BF7FEA655C85
:1009A00029D094EA050F08BF90EA020F05D054EA57
:1009B000000C04BF1946104630BD91EA030F1EBF5C
:1009C0000021002030BD5FEA545C05D14000494160
:1009D00028BF41F0004130BD14F580043CBF01F553
:1009E000801130BD01F0004545F0FE4141F4700139
:1009F0004FF0000030BD7FEA645C1ABF1946104614
:100A00007FEA655C1CBF0B46024650EA013406BF14
:100A100052EA033591EA030F41F4002130BD00BFD3
:100A200090F0000F04BF0021704730B54FF4806490
:100A300004F132044FF000054FF0000150E700BF11
:100A400090F0000F04BF0021704730B54FF4806470
:100A500004F1320410F0004548BF40424FF000015D
:100A60003EE700BF42004FEAE2014FEA31014FEAA0
:100A700002701FBF12F07F4393F07F4F81F06051EF
:100A8000704732F07F4208BF704793F07F4F04BF3A
:100A900041F40021704730B54FF4607401F0004517
:100AA00021F000411CE700BF50EA010208BF704777
:100AB00030B54FF000050AE050EA010208BF704768
:100AC00030B511F0004502D5404261EB41014FF4D1
:100AD000806404F132045FEA915C3FF4D8AE4FF0D9
:100AE00003025FEADC0C18BF03325FEADC0C18BFBC
:100AF000033202EBDC02C2F1200300FA03FC20FA0D
:100B000002F001FA03FE40EA0E0021FA02F1144459
:100B1000BDE600BF70B54FF0FF0C4CF4E06C1CEA72
:100B200011541DBF1CEA135594EA0C0F95EA0C0FE3
:100B300000F0DEF82C4481EA030621EA4C5123EA56
:100B40004C5350EA013518BF52EA033541F4801185
:100B500043F4801338D0A0FB02CE4FF00005E1FB38
:100B600002E506F00042E0FB03E54FF00006E1FB82
:100B700003569CF0000F18BF4EF0010EA4F1FF04C5
:100B8000B6F5007F64F5407404D25FEA4E0E6D4105
:100B900046EB060642EAC62141EA55514FEAC52016
:100BA00040EA5E504FEACE2EB4F1FD0C88BFBCF592
:100BB000E06F1ED8BEF1004F08BF5FEA500E50F143
:100BC000000041EB045170BD06F0004646EA010109
:100BD00040EA020081EA0301B4EB5C04C2BFD4EB3B
:100BE0000C0541EA045170BD41F480114FF0000E34
:100BF000013C00F3AB8014F1360FDEBF002001F0A2
:100C0000004170BDC4F10004203C35DA0C341BDC1B
:100C100004F11404C4F1200500FA05F320FA04F0ED
:100C200001FA05F240EA020001F0004221F0004121
:100C300010EBD37021FA04F642EB06015EEA430E94
:100C400008BF20EAD37070BDC4F10C04C4F12005C4
:100C500000FA04F320FA05F001FA04F240EA020077
:100C600001F0004110EBD37041F100015EEA430E48
:100C700008BF20EAD37070BDC4F1200500FA05F268
:100C80004EEA020E20FA04F301FA05F243EA0203E7
:100C900021FA04F001F0004121FA04F220EA0200F6
:100CA00000EBD3705EEA430E08BF20EAD37070BD3C
:100CB00094F0000F0FD101F00046400041EB01011C
:100CC00011F4801F08BF013CF7D041EA060195F0FE
:100CD000000F18BF704703F00046520043EB0303B8
:100CE00013F4801F08BF013DF7D043EA06037047A5
:100CF00094EA0C0F0CEA135518BF95EA0C0F0CD0B0
:100D000050EA410618BF52EA4306D1D181EA0301F5
:100D100001F000414FF0000070BD50EA410606BFEF
:100D20001046194652EA430619D094EA0C0F02D134
:100D300050EA013613D195EA0C0F05D152EA033679
:100D40001CBF104619460AD181EA030101F0004197
:100D500041F0FE4141F470014FF0000070BD41F0E0
:100D6000FE4141F4780170BD70B54FF0FF0C4CF4BA
:100D7000E06C1CEA11541DBF1CEA135594EA0C0FD9
:100D800095EA0C0F00F0A7F8A4EB050481EA030E26
:100D900052EA03354FEA013100F088804FEA03330D
:100DA0004FF0805545EA131343EA12634FEA0222DB
:100DB00045EA111545EA10654FEA00260EF000419C
:100DC0009D4208BF964244F1FD0404F5407402D2EE
:100DD0005B084FEA3202B61A65EB03055B084FEA7F
:100DE00032024FF480104FF4002CB6EB020E75EB7C
:100DF000030E22BFB61A754640EA0C005B084FEAA4
:100E00003202B6EB020E75EB030E22BFB61A754620
:100E100040EA5C005B084FEA3202B6EB020E75EB6B
:100E2000030E22BFB61A754640EA9C005B084FEAE3
:100E30003202B6EB020E75EB030E22BFB61A7546F0
:100E400040EADC0055EA060E18D04FEA051545EADF
:100E500016754FEA06164FEAC30343EA52734FEA88
:100E6000C2025FEA1C1CC0D111F4801F0BD141EA01
:100E700000014FF000004FF0004CB6E711F4801F66
:100E800004BF01430020B4F1FD0C88BFBCF5E06F46
:100E90003FF6AFAEB5EB030C04BFB6EB020C5FEA56
:100EA000500C50F1000041EB045170BD0EF0004EAB
:100EB0004EEA113114EB5C04C2BFD4EB0C0541EADD
:100EC000045170BD41F480114FF0000E013C90E6DA
:100ED00045EA060E8DE60CEA135594EA0C0F08BF9E
:100EE00095EA0C0F3FF43BAF94EA0C0F0AD150EA9D
:100EF00001347FF434AF95EA0C0F7FF425AF104630
:100F000019462CE795EA0C0F06D152EA03353FF457
:100F1000FDAE1046194622E750EA410618BF52EAD4
:100F200043067FF4C5AE50EA41047FF40DAF52EAA8
:100F300043057FF4EBAE12E74FF0FF3C06E000BF45
:100F40004FF0010C02E000BF4FF0010C4DF804CD52
:100F50004FEA410C7FEA6C5C4FEA430C18BF7FEA12
:100F60006C5C1BD001B050EA410C0CBF52EA430C40
:100F700091EA030F02BF90EA020F0020704710F1C0
:100F8000000F91EA030F58BF994208BF90422CBF4F
:100F9000D8176FEAE37040F0010070474FEA410C48
:100FA0007FEA6C5C02D150EA013C07D14FEA430C66
:100FB0007FEA6C5CD6D152EA033CD3D05DF8040BD7
:100FC000704700BF8446104662468C461946634609
:100FD00000E000BF01B5FFF7B7FF002848BF10F1E0
:100FE000000F01BD4DF808EDFFF7F4FF0CBF012025
:100FF00000205DF808FB00BF4DF808EDFFF7EAFFA1
:1010000034BF012000205DF808FB00BF4DF808ED5B
:10101000FFF7E0FF94BF012000205DF808FB00BF50
:101020004DF808EDFFF7CEFF94BF012000205DF8DA
:1010300008FB00BF4DF808EDFFF7C4FF34BF0120E7
:1010400000205DF808FB00BF4FEA410C7FEA6C5CB2
:1010500002D150EA013C0AD14FEA430C7FEA6C5CB2
:1010600002D152EA033C02D14FF0000070474FF02A
:10107000010070474FEA410212F5001215D211D556
:101080006FF47873B3EB625212D94FEAC12343F085
:10109000004343EA505311F0004F23FA02F018BF07
:1010A000404270474FF00000704750EA013005D1D0
:1010B00011F0004008BF6FF0004070474FF0000093
:1010C000704700BF4A0011D212F5001211D20DD59F
:1010D0006FF47873B3EB62520ED44FEAC12343F03E
:1010E000004343EA505323FA02F070474FF00000E8
:1010F000704750EA013002D14FF0FF3070474FF097
:10110000000070474FEA4102B2F1E04324BFB3F55B
:10111000001CDCF1FE5C0DD901F0004C4FEAC0026E
:101120004CEA5070B2F1004F40EB830008BF20F052
:101130000100704711F0804F21D113F13872BCBF0C
:1011400001F00040704741F480114FEA5252C2F161
:101150001802C2F1200C10FA0CF320FA02F018BFAA
:1011600040F001004FEAC1234FEAD32303FA0CFCFD
:1011700040EA0C0023FA02F34FEA4303CCE77FEA8C
:10118000625307D150EA01331EBF4FF0FE4040F4D6
:101190004000704701F0004040F0FE4040F4000085
:1011A000704700BF80F0004002E000BF81F00041C6
:1011B00042001FBF5FEA410392EA030F7FEA226CFD
:1011C0007FEA236C6AD04FEA1262D2EB1363C1BF8D
:1011D000D218414048404140B8BF5B42192B88BFFC
:1011E000704710F0004F40F4000020F07F4018BF1F
:1011F000404211F0004F41F4000121F07F4118BF3F
:10120000494292EA030F3FD0A2F1010241FA03FCE6
:1012100010EB0C00C3F1200301FA03F100F00043CE
:1012200002D5494260EB4000B0F5000F13D3B0F196
:10123000807F06D340084FEA310102F10102FE2A05
:1012400051D2B1F1004F40EBC25008BF20F0010075
:1012500040EA03007047490040EB0000013A28BF14
:10126000B0F5000FEDD2B0FA80FCACF1080CB2EB97
:101270000C0200FA0CF0AABF00EBC2505242184315
:10128000BCBFD0401843704792F0000F81F40001BA
:1012900006BF80F400000132013BB5E74FEA41038D
:1012A0007FEA226C18BF7FEA236C21D092EA030FF9
:1012B00004D092F0000F08BF0846704790EA010F73
:1012C0001CBF0020704712F07F4F04D1400028BFA0
:1012D00040F00040704712F100723CBF00F5000082
:1012E000704700F0004343F0FE4040F400007047B8
:1012F0007FEA226216BF08467FEA23630146420264
:1013000006BF5FEA412390EA010F40F48000704776
:101310004FF0000304E000BF10F0004348BF40421C
:101320005FEA000C08BF704743F0964301464FF058
:1013300000001CE050EA010208BF70474FF00003B4
:101340000AE000BF50EA010208BF704711F00043F5
:1013500002D5404261EB41015FEA010C02BF8446C5
:101360000146002043F0B64308BFA3F18053A3F524
:101370000003BCFA8CF2083AA3EBC25310DB01FA6B
:1013800002FC634400FA02FCC2F12002BCF1004FEF
:1013900020FA02F243EB020008BF20F00100704780
:1013A00002F1200201FA02FCC2F1200250EA4C00D4
:1013B00021FA02F243EB020008BF20EADC7070471A
:1013C0007BB972B90029BEBF00204FF0004106E092
:1013D00008BF00281CBF6FF000414FF0FF3000F045
:1013E0002DB9ADF1080C6DE904CE002909DB002B05
:1013F0001ADB3AF079FEDDF804E0DDE9022304B0FF
:101400007047404261EB4101002B1BDB3AF06CFE60
:10141000DDF804E0DDE9022304B0404261EB410164
:10142000524263EB43037047524263EB43033AF08B
:101430005BFEDDF804E0DDE9022304B0404261EB2D
:1014400041017047524263EB43033AF04DFEDDF831
:1014500004E0DDE9022304B0524263EB430370472A
:1014600053B94AB9002908BF00281CBF4FF0FF310B
:101470004FF0FF3000F0E2B8ADF1080C6DE904CE9A
:101480003AF032FEDDF804E0DDE9022304B07047F3
:1014900000F1340191E838009C46A6464CF8045D02
:1014A00090E8FF0FE54600BD90EC210B704700BFB0
:1014B00080EC210B704700BF90EC200B704700BF01
:1014C00080EC200B704700BFD0EC200B704700BFB2
:1014D000C0EC200B704700BFF0EC0201F0EC0211F1
:1014E000F0EC0221F0EC0231F0EC0241F0EC0251A0
:1014F000F0EC0261F0EC0271F0EC0281F0EC029190
:10150000F0EC02A1F0EC02B1F0EC02C1F0EC02D17F
:10151000F0EC02E1F0EC02F1704700BFE0EC0201F8
:10152000E0EC0211E0EC0221E0EC0231E0EC0241DF
:10153000E0EC0251E0EC0261E0EC0271E0EC0281CF
:10154000E0EC0291E0EC02A1E0EC02B1E0EC02C1BF
:10155000E0EC02D1E0EC02E1E0EC02F1704700BF08
:10156000B0FC0181B0FC0191B0FC01A1B0FC01B163
:10157000704700BFA0FC0181A0FC0191A0FC01A16B
:10158000A0FC01B1704700BFEC4600B52DE900504A
:101590002DE9FF1F4FF000032DE90C0001A93BF0DE
:1015A00055F8DDF840E012B0704700BFEC4600B5DA
:1015B0002DE900502DE9FF1F4FF000032DE90C002D
:1015C00001A93BF07FF8DDF840E012B0704700BFA2
:1015D000EC4600B52DE900502DE9FF1F4FF0000348
:1015E0002DE90C0001A93BF08DF8DDF840E012B0C8
:1015F000704700BFEC4600B52DE900502DE9FF1FF4
:101600004FF000032DE90C0001AB3BF053F8DDF87F
:1016100040E012B0704700BFEC4600B52DE9005025
:101620002DE9FF1F4FF000032DE90C0001AA3BF04C
:10163000C5F8DDF840E012B0704700BF704700BF4A
:101640000348044B834202D0034B03B11847704751
:101650009809002098090020000000000548064B6A
:101660001B1AD90F01EBA301491002D0034B03B1A0
:1016700018477047980900209809002000000000D2
:1016800010B5064C237843B9FFF7DAFF044B13B1CA
:101690000448AFF300800123237010BDA80B002085
:1016A0000000000014D1030808B5054B1BB1054923
:1016B0000548AFF30080BDE80840FFF7CFBF00BF8B
:1016C00000000000AC0B002014D1030830B5254801
:1016D000254C2649002301228DB04FF48035C0E906
:1016E0000045C0E90A1383600361037680F8203067
:1016F000C360C26180F8303042610FF0EDFD08BB7D
:10170000062401220023174802936946CDE90042CE
:101710000FF08AFF08BB01220E210023CDE904123D
:101720004FF4801408920F4806934FF4102204A936
:10173000CDE90A24ADF82430079310F029F830B928
:101740000DB030BD0A485A2100F062FBD8E70848C6
:10175000722100F05DFB0DB030BD0548632100F043
:1017600057FBD8E7B40C0020002001400100000F17
:10177000D0D2030810B52748274C4FF480310023FE
:10178000C0E9004101228CB04FF080544FF06061FD
:10179000C0E90A1483600361037680F82030C360D7
:1017A000C26180F8303042610FF096FD08BB0D2415
:1017B00001220023174802936946CDE900420FF049
:1017C00033FF08BB01220B210023CDE904124FF4A3
:1017D000801408920F4806934FF4102204A9CDE913
:1017E0000A24ADF8243007930FF0D2FF30B90CB0C3
:1017F00010BD0A48892100F00BFBD8E70748A1215A
:1018000000F006FB0CB010BD0448922100F000FB74
:10181000D8E700BF6C0C002000210140D0D20308A3
:1018200010B52748274C4FF480310023C0E9004110
:1018300001228CB04FF080544FF06061C0E90A146F
:1018400083600361037680F82030C360C26180F852
:10185000303042610FF040FD08BB0C240122002310
:10186000174802936946CDE900420FF0DDFE08BB40
:1018700001220C210023CDE904124FF480140892B8
:101880000F4806934FF4102204A9CDE90A24ADF8BD
:10189000243007930FF07CFF30B90CB010BD0A481C
:1018A000B82100F0B5FAD8E70748D02100F0B0FA27
:1018B0000CB010BD0448C12100F0AAFAD8E700BF5F
:1018C000240C002000220140D0D2030870B5424A07
:1018D000036893428AB007D0404A934240D0404ABE
:1018E00093425DD00AB070BD00263E4B01965A6C03
:1018F0003D4D42F480725A645B6C069603F480732B
:101900000193262204A9032304463848CDE9042381
:10191000019B11F0D9F8302203233548069604A91B
:10192000CDE9042311F0D0F8324A6E624FF480639F
:10193000C5E900262B614FF400624FF40053C5E95E
:10194000052328464FF48073C5E90266C5E90736CA
:1019500010F08CFC00283AD1A563AC630AB070BDCE
:101960000024204B02945A6C204842F400725A64BE
:101970005B6C069403F40073029304A926220323EC
:10198000CDE90423029B11F09FF83022032318486D
:10199000069404A9CDE9042311F096F80AB070BDAD
:1019A000104B002403945A6C42F480625A645B6CBE
:1019B00006940620032103F48063CDE90401039318
:1019C0000A48039B04A911F07FF80AB070BD0A48C9
:1019D000FE2100F01DFABFE7002001400021014078
:1019E0000022014000380240C40B002000080240E1
:1019F0000000024010640240D0D20308224B02686B
:101A00009A4200D0704730B589B0002503F5EA331B
:101A100001951A6C1D4842F000721A641B6C03F0A9
:101A2000007301934FF4407202230924CDE902238D
:101A300002A900220323CDE904230694019B11F09F
:101A400043F82A462146132010F08CFB132010F097
:101A5000C7FB2A462146142010F084FB142010F006
:101A6000BFFB2A462146152010F07CFB152010F004
:101A7000B7FB2A462146162010F074FB162010F002
:101A8000AFFB09B030BD00BF00640040000402405D
:101A900010B582B00024244B00941A6B42F400125B
:101AA0001A63186B00F40010009000980194186BF2
:101AB00040F4800018631B6B03F48003224604216A
:101AC00001930B20019B10F04DFB0B2010F088FBC5
:101AD00022460A210D2010F045FB0D2010F080FB5E
:101AE00022460A210F2010F03DFB0F2010F078FB5A
:101AF00022460A21102010F035FB102010F070FB58
:101B000022460A21112010F02DFB112010F068FB55
:101B100022462F20032110F025FB2F2002B0BDE824
:101B2000104010F05DBB00BF0038024070B58CB0B3
:101B3000344B354D354E002401941A6B42F00402AB
:101B40001A63196B01F00401019101990294196B58
:101B500041F080011963196B01F080010291029933
:101B60000394196B012211431963196B11400391FE
:101B700003990494196B41F002011963196B01F088
:101B80000201049104990594196B41F0080119634D
:101B90001B6B03F00803059328464FF40051059B87
:101BA00011F064F9224630464FF4805111F05EF98D
:101BB00028464FF40053012506A9CDE90635CDE9A5
:101BC000084410F081FF4FF4806206A900231048FA
:101BD0000894CDE9062310F077FF30464FF4805388
:101BE00006A90693CDE90754099410F06DFF04226D
:101BF00000230848089506A9CDE9062310F064FFE4
:101C00000CB070BD003802400008024000040240E1
:101C100000000240000C02400D4B10B541000D4C7D
:101C20000D481C60002258604FF480441846C3E9F8
:101C30000314C3E90522C3E907229A6011F01AF9D7
:101C400000B910BDBDE8104004484F2100F0E0B8D5
:101C5000C00D002000540040A086010008D30308F6
:101C6000304B02689A4200D0704770B582B00023B2
:101C70002D4A0193116C2D4E41F400111164126C28
:101C80002B49316002F4001201924FF000720446B9
:101C900072600198B3604FF480614FF480723046F7
:101CA000F36031617361B361F2613362736210F0AA
:101CB000DDFA60BB1F4D2049A6634FF00072002380
:101CC00029606A6040214FF480622846B463A960AD
:101CD000EB602A616B61AB61EB612B626B6210F0B0
:101CE000C5FAC8B90022092165631F20AC6310F052
:101CF00039FA1F2010F074FA20200022092110F078
:101D000031FA202002B0BDE8704010F069BA0B48EB
:101D10006E2100F07DF8CDE70848802100F078F8CA
:101D2000E0E700BF0054004000380240600D002092
:101D300010600240000D0020A060024008D303089C
:101D400070B596B02A4A2B4B00200190116C41F0DF
:101D500080511164126C02F080520192019A02903B
:101D60001A6842F440421A601B689FED1F7B03F41F
:101D70004043029301230224029A0D934FF4800101
:101D80000425A822072308A88DED087BCDE90E4184
:101D9000109511921294139313F0AAFA00B1FEE772
:101DA0004FF4A05205904FF480530F26052103A84D
:101DB000CDE90364CDE9062313F05EF9044600B1D2
:101DC000FEE713F0F7F90C4BA3FB0030800910F08D
:101DD00027FA284610F03EFA224631464FF0FF30EF
:101DE00010F0C0F916B070BD09000000000001003D
:101DF0000038024000700040D34D6210034B02686F
:101E00009A4200D070470FF043BA00BF0020004054
:101E1000FEE700BF10B51148114C4FF48272002349
:101E2000C0E900424FF400610122C0E90231C0E97B
:101E300004324FF4007418210A22C0E906410362FB
:101E400043628362C26213F011FD00B910BDBDE8A8
:101E5000104004485221FFF7DBBF00BFD80E00201E
:101E6000003C00403CD303083A4B02689A4200D041
:101E70007047F0B587B003F5FE33002700971A6C62
:101E800042F400421A641B6C03F4004302210093E5
:101E90004FF4A0520126CDE90211009B01920623C6
:101EA000044601A92C48CDE904634FF4006510F005
:101EB0000BFE03962848294E019501A910F004FE57
:101EC000274B33604023C6E90173E3684FF4806217
:101ED000C6E9037263BB1D461A460023B2611F4860
:101EE00075614FF40032F3613262736210F0BEF933
:101EF00058BB1C4DE3681C49A66400224FF4806067
:101F0000C5E90012C5E90222B46328619BB91946EC
:101F100000226B611348A9614FF48033EA612B62A0
:101F20006A6210F0A3F958B9E564AC6307B0F0BD7C
:101F30004FF40052D1E74FF400634FF40051E7E74C
:101F40000A48A021FFF764FFEEE708488921FFF760
:101F50005FFFCEE7003C004000080240780E002002
:101F6000B8600240180E0020106002403CD3030805
:101F70000D4B02689A4200D070470C4A136C10B5A2
:101F800023F4004304464FF4E0511364084810F072
:101F9000BFFEA06C10F000FAE06C10F0FDF9BDE897
:101FA0001040332010F02AB9003C004000380240B5
:101FB0000008024010B582B00024224B00945A6CF5
:101FC00042F480425A645A6C02F480420092009AB1
:101FD00001941A6C42F080521A641B6C03F0805317
:101FE00001930320019B10F0ABF8224621466FF0CD
:101FF0000B0010F0B7F8224621466FF00A0010F0EF
:10200000B1F8224621466FF0090010F0ABF82246E5
:102010006FF00400032110F0A5F8224621466FF06E
:10202000030010F09FF822460F216FF0010010F01E
:1020300099F822460F214FF0FF3002B0BDE8104062
:1020400010F090B80038024030B5014689B0002247
:102050002D2010F087F82D2010F0C2F80025164B27
:1020600002951A6C154C42F480721A641B6C03F4CE
:10207000807301A903A80293029B13F0C1F813F027
:102080009FF80F4A0F4921604300A2FB03239B0CDA
:10209000013B40F2E7322046C4E903256360A560B6
:1020A00013F082FF10B1012009B030BD204614F0BA
:1020B0000BF809B030BD00BF00380240300F0020DF
:1020C00083DE1B4300200040704700BF1B4A1C49B1
:1020D000536C10B423F4404353644B6C0468194AA6
:1020E0008FB023F440434B640294D0E9014303943E
:1020F0000493D0E90434C16805910693D0E906132E
:10210000079408910993936A0A93D2F888200E4B9A
:102110000B925B6B0C930A9BC3F340238DF8063044
:102120000A9B0122C3F300238DF807300D920D9B0B
:10213000002BFCD10FB05DF8044B7047000001404C
:102140000004014000ED00E000EF00E01EF0040F8D
:102150000CBFEFF30880EFF30980FFF7B7BF00BFB4
:102160000549064A4B6C23F440434B64536C23F4FB
:1021700040435364F6E700BF000001400004014003
:1021800008B5FFF7EDFF00BF08B5FFF7E9FF00BF97
:10219000704700BF0CF07EBE014810F0D5B900BFFB
:1021A000180E0020014810F0CFB900BF48120020DF
:1021B000014810F0C9B900BFE8110020014810F033
:1021C000C3B900BF88110020014810F0BDB900BF9D
:1021D00028110020014810F0B7B900BF780E002088
:1021E00001480FF03BBE00BF0400002001480FF083
:1021F00035BE00BF0400002001480FF02FBE00BF15
:102200000400002001480FF029BE00BF0400002098
:10221000014815F07BB900BFA812002008B504489A
:1022200014F0D0FDBDE80840024814F0CBBD00BF5B
:10223000C00F0020300F0020014813F02BBE00BF5C
:10224000D80E0020014815F061B900BFF01200203F
:102250001049114BD1F8882042F4700210B4C1F833
:1022600088201A680D4C002042F001021A60986024
:102270001A6822F0847222F480321A605C601A6854
:102280004FF0006422F480221A60D8608C605DF800
:10229000044B704700ED00E000380240103000248D
:1022A00070B5434C00234FF08040C4E9000390B068
:1022B00060214FF480522046C4E90323A16013F04B
:1022C000CFFF58BB0022002339486946CDE90023DF
:1022D00014F022FE002843D170220023CDE9082308
:1022E000022200230A9232480C93082208A914F013
:1022F000B3FB80BB41F20102002309922C480A93F0
:1023000008A90C2214F0A8FB68B92368B3F1804F28
:1023100011D0284A934228D010B070BD26484D21D4
:10232000FFF776FDCEE724486121FFF771FD2368B2
:10233000B3F1804FEDD100230122204807924FF4E2
:102340004065022403A9CDE90354CDE9053310F01B
:10235000BBFB10B070BD18485B21FFF759FDC9E702
:1023600015485321FFF754FDB6E700240325022644
:10237000802303A912480795CDE90336CDE905442A
:1023800010F0A2FB03A90D480795CDE90356CDE94E
:10239000054410F099FB4FF4E0730A48039303A936
:1023A000CDE90464CDE9064510F08EFB10B070BD98
:1023B000981000200004014088D303080004024064
:1023C000000002400008024010B51848184901609A
:1023D0008CB04FF6FF71C160032100230124042259
:1023E000039103A9C0E90133CDE90434CDE90632F4
:1023F000CDE90834CDE90A32036114F047F950B948
:102400000022002309486946CDE9002314F084FD29
:1024100030B90CB010BD07487B21FFF7F9FCEFE79E
:1024200004488121FFF7F4FC0CB010BDE01000203F
:102430000000014088D3030810B52348234C6022D4
:10244000002386B040F6AC5182600222C0E900430E
:10245000C0E90313426113F0A7FDD0B94FF48053D4
:102460001948029302A914F0FBFB38BB164813F07D
:10247000F7FEF0B9144813F063FEA8B92022002338
:1024800011486946CDE9002314F046FD30B906B085
:1024900010BD0F488F21FFF7BBFCDFE70C48A221DE
:1024A000FFF7B6FC06B010BD09489C21FFF7B0FC51
:1024B000E4E707489821FFF7ABFCDBE704489421E9
:1024C000FFF7A6FCD2E700BF501000200008004034
:1024D00088D3030800B522482249002387B04FF073
:1024E000FF32C0E90013C0E90232036113F0AEFF0E
:1024F00000BB002200231A486946CDE9002314F0EE
:102500000BFD40BB0A220123CDE9022300210F234A
:102510000822CDE9041312480DEB020114F0C8F9AA
:10252000A0B90F480C2202A914F0C2F938B907B0BB
:102530005DF804FB0C48B021FFF76AFCD9E70A48B4
:10254000C221FFF765FC07B05DF804FB0648BE2119
:10255000FFF75EFCE5E70448B621FFF759FCD1E739
:1025600008100020000C004088D303080000000081
:1025700070B55F485F4C00236022C4E9000398B047
:1025800040F6AC51A26020460222C4E90313626106
:1025900013F066FE00284AD1564813F0D1FD0028FA
:1025A0004ED12022002353486946CDE9002314F080
:1025B000B3FC002870D1002000210022CDE90C01DD
:1025C00070234C48089308A9CDE909220B920E927A
:1025D00014F042FA00285AD14648042208A914F0FF
:1025E0003BFA00284ED14348082208A914F034FAD7
:1025F000002842D19FED3C7B4FF400614FF4806294
:10260000CDE91012002314223A48179310A9CDE9FE
:1026100012328DED147B14F0BFFCB0B92368B3F116
:10262000804F1AD0324A93423BD018B070BD324826
:10263000D321FFF7EDFB2F4813F082FD0028B0D027
:102640002D48D721FFF7E4FBABE72B48FB21FFF731
:10265000DFFB2368B3F1804FE4D100230122274838
:1026600007924FF44065022403A9CDE90354CDE954
:10267000053310F029FA18B070BD1F48F021FFF79C
:10268000C7FBB7E71C48EC21FFF7C2FBABE71A48D2
:10269000E821FFF7BDFB9FE71748DD21FFF7B8FBF7
:1026A00089E7002403250226802303A914480795FF
:1026B000CDE90336CDE9054410F006FA03A90F4829
:1026C0000795CDE90356CDE9054410F0FDF94FF427
:1026D000E0730C48039303A9CDE90464CDE90645F2
:1026E00010F0F2F918B070BD0000000000200000EA
:1026F00000040140C00F002088D3030800040240FA
:1027000000000240000802400A480B4908B542F6A2
:1027100003120023016043608360C260036113F011
:1027200043FC00B908BDBDE8084004484FF484717B
:10273000FFF76EBB780F0020001C004088D3030811
:10274000124A0368934282B012D0114A934201D0D8
:1027500002B070470F4B002201921A6C42F08002C7
:102760001A641B6C03F080030193019B02B0704755
:10277000084B002200921A6C42F004021A641B6C8F
:1027800003F004030093009B02B070470008004070
:10279000001C0040003802400368B3F1804F82B053
:1027A00012D0114A934201D002B070470F4B002261
:1027B00001925A6C42F002025A645B6C03F002030D
:1027C0000193019B02B0704703F50E330022009283
:1027D0001A6C42F001021A641B6C03F001030093AF
:1027E000009B02B0704700BF000401400038024067
:1027F00000B51B4A016889B000239142CDE902333C
:10280000CDE90433069302D009B05DF804FB02F56C
:102810009C320093506C40F001005064506C00F00A
:102820000100009000980193136B0E4843F00103E0
:102830001363136B9FED087B03F00103019302A95F
:1028400001238DED027B019A069310F03DF909B04A
:102850005DF804FBAFF300800003000002000000FD
:1028600000000140000002400E4B02689A4200D076
:10287000704700B583B003F50B3300220192196C49
:1028800041F0080119641B6C03F008030193322026
:102890000121019B0FF066FC322003B05DF804EBD0
:1028A0000FF09EBC000C00409FED0B7B0C480D49C7
:1028B00008B50C220023C0E9023380ED067B0160DD
:1028C0000361426114F096FB00B908BDBDE8084001
:1028D00005485121FFF79CBA0000000000000000ED
:1028E000F0120020004C0040BCD3030800000000A0
:1028F0009FED0B7B0C480D4908B50C220023C0E965
:10290000023380ED067B01600361426114F072FBCB
:1029100000B908BDBDE8084005486421FFF778BA52
:102920000000000000000000A81200200044004049
:10293000BCD3030870B5584A0368934282B004467A
:1029400004D0564A93424BD002B070BD002302F52A
:10295000F6320093116C524E41F400211164126C56
:102960005049316002F4002200924FF0006200985A
:1029700072604FF480614FF480723046B360F36050
:1029800031617361B361F261336273620FF06EFCA7
:10299000002872D1444D4549A6634FF000620023E0
:1029A00029606A6040214FF480622846B463A960C0
:1029B000EB602A616B61AB61EB612B626B620FF0C4
:1029C00055FC002854D16563342000220A21AC63F1
:1029D0000FF0C8FB342002B0BDE870400FF000BC1F
:1029E000002302F5FA320193116C314E41F40031AB
:1029F0001164126C2F49316002F4003201924FF0E1
:102A00000062019872604FF480614FF4807230462A
:102A1000B360F36031617361B361F2613362736219
:102A20000FF024FC70BB244D2449A6634FF00062D4
:102A3000002329606A6040214FF480622846B46315
:102A4000A960EB602A616B61AB61EB612B626B6229
:102A50000FF00CFCD8B96563262000220A21AC6374
:102A60000FF080FB262002B0BDE870400FF0B8BB2D
:102A700013489421FFF7CCF9A5E711488221FFF70D
:102A8000C7F987E70E48B621FFF7C2F9CBE70C4834
:102A9000C821FFF7BDF9DEE7004C004000440040CC
:102AA0004812002040600240E8110020706002409F
:102AB000881100208860024028110020A060024098
:102AC000BCD3030810B5094C09490022204615F073
:102AD000DDFF0849204615F0EDFF2046064915F0B8
:102AE0008BFF2046BDE8104016F000B834130020DC
:102AF0005C000020900200203000002008B509682A
:102B000026F026F8002008BD08B5044B00221868FE
:102B100002210CF055F9002008BD00BF7CA2012065
:102B200008B5044B0022186801210CF049F9002077
:102B300008BD00BF7CA20120212806D14FF4E1305E
:102B40000022082308608A808B710020704700BF34
:102B50008C46BCF1400F014613460DD8094A812B23
:102B6000D2F8BC220CD0832B06D15C32127A2AB95F
:102B70000448624615F04CBF03207047012070479F
:102B80004432F3E7341300200368B3F1A04F00D0C0
:102B9000704700B59FED147B89B08DED027B9FEDF2
:102BA000147B02A90A23144806938DED047B0FF0D1
:102BB0008BFF124B596B002241F080015963019247
:102BC000596C41F4804159645B6C03F480430621E5
:102BD00001934320019B0FF0C5FA43200FF000FB47
:102BE00009B05DF804FB00BF0018000002000000FF
:102BF0000000000003000000000002400038024016
:102C000070B5D0F8085500F2C4460446314605F2C6
:102C1000AA2016F0A3FB95F8AA3203F06003402B1C
:102C200003D195F8AB32502B06D0D4F808053146C5
:102C3000BDE8704015F06EBFB5F8B032C5F89832F7
:102C40000122C5F8942203B170BD2846BDE870404A
:102C500016F0F2BB01EBC10300EB8303D0F80805CB
:102C6000D3F88C2215F086BF01EBC10300EB830380
:102C7000D0F80805DA6C15F0B7BF00BFD0F808052A
:102C800016F056B810B5C16804460039D0F80805EA
:102C900018BF012116F030F8D4F80805BDE810403F
:102CA00015F0FCBF10B50446D0F8080516F028F85A
:102CB0002268D2F8003E43F00103C2F8003E236AC6
:102CC00023B1034A136943F00603136110BD00BF2B
:102CD00000ED00E0D0F8080516F01EB8D0F80805A1
:102CE00016F04CB8D0F8080516F032B8D0F8080540
:102CF00016F05AB8D0F8080516F058B802780AB19C
:102D000000207047194B10B5C3F808054FF0A044D8
:102D1000C0F8C83206200221C3E900401846C3E9C2
:102D20000312C3E90521DA611A625A62DA621A6390
:102D300011F054F9A0B980210C4812F081F9402219
:102D400000210A4812F0F8F840220121074812F049
:102D5000F3F840220321054812F0EEF8002010BDE0
:102D6000034840F25911FFF753F8E4E7101600202A
:102D7000F0D3030808B5D0F8C80211F0BFF918B1B4
:102D800002280CBF0120032008BD00BF944608B5EF
:102D90001A46D0F8C802634611F08CFF18B1022819
:102DA0000CBF0120032008BD08B5D0F8C80211F0FF
:102DB000BFFF18B102280CBF0120032008BD00BFCF
:102DC00008B5D0F8C80212F03BF818B102280CBFC1
:102DD0000120032008BD00BF08B5D0F8C80212F0DA
:102DE00073F818B102280CBF0120032008BD00BFF2
:102DF0000A06D0F8C83206D401EBC10103EB810307
:102E000093F87E02704701F07F0101EBC10103EBF3
:102E1000810393F83E00704708B5D0F8C80211F05E
:102E200035FF18B102280CBF0120032008BD00BFE8
:102E300008B5D0F8C80211F0DBFF18B102280CBFAA
:102E40000120032008BD00BF08B5D0F8C80211F06A
:102E50009DFF18B102280CBF0120032008BD00BF50
:102E6000D0F8C80211F0BABF122301480B80704796
:102E700048000020042301480B80704744000020D4
:102E800010B5044C04480A46214616F07FFA204645
:102E900010BD00BF1C1B002028D4030810B5044C33
:102EA00004480A46214616F071FA204610BD00BFBC
:102EB0001C1B002064A9012010B5044C04480A46DC
:102EC000214616F063FA204610BD00BF1C1B0020EF
:102ED00038D4030810B5044C04480A46214616F0BD
:102EE00055FA204610BD00BF1C1B002054D4030817
:102EF00010B5044C04480A46214616F047FA20460D
:102F000010BD00BF1C1B002060D403080020EE2968
:102F100008B5108002D0062905D008BD134612223C
:102F200004481A8008BD0449044816F02FFA0248E4
:102F300008BD00BF780000201C1B002070D40308CF
:102F4000704700BF704700BF10B5214B2DED028BBD
:102F5000DB6B84B00446184606F056FF1D4B1E4935
:102F6000DA6B684609F0FCFF1C4B1B49DA6B9DEDE0
:102F7000008A02A809F0F4FF9DF8043083B19DF89F
:102F80000C306BB19DED027A237BF1EE487A77EE3F
:102F9000C77AA3B1C4ED007A84ED018A84ED027A88
:102FA0000B480C490D4A6FF0040404606FF02603CF
:102FB00001200B60136004B0BDEC028B10BD012337
:102FC000C4ED007A84ED018A84ED027A2373E7E789
:102FD0000020014000210140E05B00200022014070
:102FE00008B50EF03BF9FEF7ABFE084A084B117826
:102FF000FF2918BF1346DA78032A00D0FEE71A79B2
:10300000062AFBD15B79182BF8D108BD0078FF1F89
:103010009809002070B582B0FEF788FDFEF738FDF4
:10302000FEF754FBFEF7A6FBFFF7CEF9FFF738F9E2
:10303000FFF702FAFFF74EFAFFF79AFAFFF764FB81
:10304000FEF7E8FEFEF7ECFB0022012106200FF060
:1030500089F806200FF0C4F80022012107200FF0A4
:1030600081F807200FF0BCF80022012108200FF0A2
:1030700079F808200FF0B4F80022012109200FF0A0
:1030800071F809200FF0ACF8002201210A200FF09E
:1030900069F80A200FF0A4F80022012117200FF090
:1030A00061F817200FF09CF80022012128200FF072
:1030B00059F828200FF094F8002205214D200FF038
:1030C00051F84D200FF08CF8002211462C20514C65
:1030D0000FF048F82C200FF083F894F87E31002B85
:1030E00036D194F87F31002B3DD194F89131002BEB
:1030F00044D194F8903143B1B4F87C2140F2077385
:103100009A421CBF012384F8A032434BD86840F098
:103110000100D860DC68414844F00204DC609C682F
:1031200044F080049C6000224FF480510FF09EFE1A
:1031300028200BF029FD01224FF4805137480FF071
:1031400095FE44F620600BF01FFD012002B070BD1B
:10315000334BD4F884211B685A60FFF7A5FB94F821
:103160007F31002BC1D02F4BD4F888211B685A60C7
:10317000FFF7BEFB94F89131002BBAD02A4D05F130
:10318000180393E803006E46002386E8030001223B
:103190001946304600F00EFE05F1200393E80300C7
:1031A000002386E8030001221946304600F002FEA3
:1031B00005F1280393E80300002386E803000122B9
:1031C0001946304600F0F6FD01200BF035FDAB69E5
:1031D000AA8B23B11B691A4214BF01230023286A5A
:1031E000AA8C28B101690A4214BF012000204000C6
:1031F000AA6AA98D32B11269114214BF01220022BC
:1032000043EA82031843094B40F068001870FEF748
:1032100003FD6EE7789F0020002004E000040240D8
:10322000E0010020DC010020301D002080A90120E9
:10323000F0B587B0EFF3108C72B6494F494E3A683B
:1032400049489368494D4A4C23F4401393603268CF
:103250009368034093602A68464B1968936803405B
:1032600093600B68226823F001030B60CB6823F0A6
:103270000103CB604B6943F001034B616FF0010028
:1032800040F2566308614B62136803401360D368D1
:103290000340D360536943F001035361364B10611F
:1032A0001B684FF0000EC2F824E0D3F800E00EEAED
:1032B000000EC3F800E0D3F80CE00EEA000EC3F8ED
:1032C0000CE0D3F814E000914EF0010EC3F814E0C6
:1032D00040F22B3E1861C3F824E00968CDE90123D0
:1032E00012681B6841F0010142F0010243F0010342
:1032F000039104920593EFF3108E72B6DDE900128C
:10330000039B0B600499029B1160059A1A608EF36F
:10331000108839682B688D683268184E246845F427
:1033200080158D609568354395609D6835439D6037
:103330006FF004050D6015601D606FF002050D60F3
:1033400015601D606FF020050D6015601D60206127
:10335000E36843F00103E3608CF3108807B0F0BD2D
:10336000B40C00206C0C0020FFFFCFCF240C0020F9
:10337000C00F002050100020780F00200000101017
:10338000034B834200D07047024801F001BC00BFEC
:10339000D80E00204C5E0020034B834200D07047C3
:1033A000024801F0F5BB00BFD80E00204C5E0020A3
:1033B000034B834200D07047024801F0E9BB00BFD5
:1033C000D80E00204C5E002001480AF0BBBE00BFB2
:1033D000241D00201A4B1B491B681B486FF001027B
:1033E00010B51A610A680478C2F3001C64451ED047
:1033F000164C80F800C0236803F52453043302F010
:10340000100223602AB140F2D663CB638B634B6317
:1034100010BD0F480F4B90F8B4221A70A0F58040F1
:1034200007F022FF0C4B4D22C3F8002E10BDBDE863
:1034300010400A484FF40022002309F095BC00BF59
:10344000C00F0020000401401C1D0020201D002092
:10345000789F0020545E002000E100E0E05B002047
:103460002DE9F0435A4BDFF8888187B0D8F8004047
:103470001A6802AD00235607C5E901330293EB60D9
:1034800006D5544B1B6803F00603062B00F08A8018
:1034900051484FF00072002309F066FC4F4B5B6C03
:1034A00013F4004307D19DF81420002A00F088800F
:1034B0000293C5E9013304AF97E803008DE80300E8
:1034C000454895E80C00A4F2566109F019FF214621
:1034D000434808F09FFE434B3E4A596A490089B26F
:1034E00013689807FCD53F4BDFF808915B6A99F8A1
:1034F00000003D4E5B009BB25A1A18B1C6E9BA13E0
:10350000C6F8F022D6F8F432934238BF1346C6F814
:10351000F4322F4B1B685B0705D52E4B1B6803F05D
:103520000603062B32D02C484FF00072002309F01E
:103530001BFC97E803008DE8030004F50A5195E8A9
:103540000C0025482E310AF0A7F804F5E94122487D
:1035500036310AF00DF904F52454D8F8003004345B
:103560009C4204D01C481022002309F0FDFB96F871
:10357000B4321BB199F8003083F00103002286F8C1
:10358000B43289F8002007B0BDE8F083174B1B6800
:1035900003F00603062BC6D12846FFF7D5FC00280A
:1035A000C7D1C0E7114B1B6803F00603062B7FF45D
:1035B0006FAF2846FFF7C8FC00287FF46FAF67E7BE
:1035C00001230292C5E901228DF8143073E700BF90
:1035D0000020014000210140E05B0020000001408C
:1035E000785F0020001C0040789F002000220140EE
:1035F000201D0020545E002001480FF0A5BE00BF32
:10360000C00D0020014810F071BB00BFC00D0020AC
:10361000014810F093BD00BF1016002010B53821EE
:10362000044626F087FD204610BD00BF10B550218E
:10363000044626F07FFD204610BD00BF2DE9F04F67
:10364000CF4BD04DD04ED14F2B60D148DFF89C935B
:10365000E86118334FF0040BC5E90136CD4ACE4B73
:10366000DFF88C8332604FF40050ABB00024EB6085
:1036700028825B46C94A74600F2138466C612C83EE
:1036800085F82C40A5F820B00AF04EFF4A46C44900
:10369000384626F0CBFC40460AF06EFF4A46C14948
:1036A000404626F0C3FCCDE901789FEDBF0A0095A6
:1036B0002B46BE49BE48BF4D062209F0B9F94FF46A
:1036C000806106962895ADF8A4102AAE4FF40070DC
:1036D000ADF88C10ADF89C0016E9030022954FF46C
:1036E000807A0DF1100822AB0CCB26952495ADF80D
:1036F00094A088E803000DF1980E9EE803000DF1F8
:10370000080C8CE8030024AF97E803008DE8030061
:10371000A949AA48AA4F03F027FEAA4AAA49AB48DA
:10372000DFEDAB7ADFF8CCC2C0F804C002F540533D
:103730004FF00106BE714FF0320E03F50966C0F876
:1037400008C0C1F804E0C1F830E00A9603F50A6E3B
:1037500003F6AC06DFF8A0C28C62C1E90244C1E9FD
:103760000444C1E90D44C1E90F44C7E902444C6572
:10377000C1ED007AC1ED067AC1ED077AC1ED087A94
:10378000C1ED097AC1ED0B7AC1ED117AC1ED127A62
:10379000C1ED137AC1ED147A04600474BC80C0F8E2
:1037A0000CC0CDF82CE00C9603F50B660D9603F6D5
:1037B000B8060E9603F6BC060F9603F6C4061096DE
:1037C00003F6D406119603F6D806129603F50E6694
:1037D000139603F6E806149603F50F66159603F69E
:1037E000F806169603F6FC06179603F604161896C6
:1037F00003F60816199603F60C161A9603F51166C9
:103800001B9603F614161C9603F618161D9603F65F
:103810001C161E9603F512661F9603F624162096B4
:1038200003F6281621966B4E3E600A9E9FED6A3A7B
:10383000DFED6A3A9FED6A4ADFED6A4A9FED6A5A08
:1038400082ED053AB7EE007A86ED007A03F6940928
:10385000022603F69808C2ED063A82ED084AC2ED48
:10386000094A82ED0B5A89ED007AC0ED057A88EDA0
:10387000007A8662066386630B9EA3F88C48F2EE9C
:10388000045AC6ED005A0C9E82ED0A7A86ED007A43
:103890004FF4806902F563564FF0010883F89C8865
:1038A000C6ED005AC2F838900D9EDFF85081C2F87C
:1038B000008040F20319B3EE046AF0EE006AA2F849
:1038C0000C90DFF83C81C3F8A4884FF07A5982ED60
:1038D000046AC2ED076A82ED0D7AC2ED106AC0ED8E
:1038E000067AC0ED077AC0ED087AC0ED097AC0ED1E
:1038F0000B7AC0ED0D7AC0ED0F7A82F83040C2ED40
:103900000F7A9464C2F84490C6ED007A0E9EDFF8F8
:10391000F4C086ED006A0F9E86ED006A119EC6ED2A
:10392000007A129EC6ED007A139EC6ED007A149EB0
:10393000C6ED007A159EC6ED007A169EC6ED007A99
:10394000179EC6ED007A02F56456C6ED007A189E01
:10395000C6ED007A199EC6ED007A1A9EC6ED007A71
:103960001B9EC6ED007A1C9EC6ED007A1D9EC6ED1C
:10397000007A1E9EC6ED007A1F9EC3F8CC4843E035
:1039800004D50308185E00204C5E0020E05D002096
:10399000000C0240D80E00200008024090D403081A
:1039A000412F0008452F0008FFFFF944C00F0020F9
:1039B000E05B002000000240E01000203C5A0020A4
:1039C000D459002050200020E459002094590020B0
:1039D0000000000080D90308ABAA2A3EABAAAA3E89
:1039E0009A99993F0000807F0AD7233C000000206D
:1039F000905D002000007A440118CF3A9CD603085D
:103A00000001010110200020C6ED007A209E83F8FD
:103A1000D048C6ED007A4FF0FF0E109E83F8A8E85C
:103A200083F8B4E8DFF828E1C6F800E0219E83F8C7
:103A3000DC48C6ED007A01F12C0683F8E44883F8EF
:103A4000EC4883F8F448CDE9061637490491374924
:103A5000029001910897CCED016A039202F565523C
:103A6000CDF814C0C2ED007A0222C3F83C2903222B
:103A7000A3F830A983F83249CCF80040009203F64D
:103A80002C12C2ED007A03F6341203F63813C2ED9D
:103A9000007AC3ED007A4FF07C53CCF80830CCF8B4
:103AA0000C30214602230122214801F095FA214BD6
:103AB00021481C604FF002029A82204A9A624FF419
:103AC00000424FF480619A871D4AA3F85C101D499B
:103AD00011601D499C80C2E901011C4A1A634FF420
:103AE00000744FF001061A641A669A6610210822C3
:103AF0009E819D601D619D61A3F81CB0A3F834B048
:103B00001D629D639D64A3F84CA01D65A3F85440FD
:103B10009D65A3F864A0A3F86C409A849985A3F8E6
:103B200044202BB0BDE8F08FE05B00203C5A002021
:103B3000A01D0020301D00200100020000080240EE
:103B4000241D00200810002003000400000402408F
:103B5000000020C1DFF834D00D480E490E4A002382
:103B600002E0D458C4500433C4188C42F9D30B4A31
:103B70000B4C002301E013600432A242FBD3FEF79A
:103B800067FB2FF041FA07F009FC704700000220A4
:103B9000000000209809002074380508A80B0020B8
:103BA0002CB90120FEE7000001207047B6EE000AA4
:103BB000704700BFB6EE000A704700BF9FED010AD4
:103BC000704700BF5E74513F9FED010A704700BF10
:103BD0005E74513F90F82C00A0F10200B0FA80F022
:103BE0004009704790F82800A0F10200B0FA80F078
:103BF0004009704790F82C302BB1C36923B11B6981
:103C0000028C1A4200D07047002380F82C30704795
:103C10002DE9F04F074691B041F400464FF0010AFC
:103C20004FF47A7B27F8286FCDE90CAB00230B9378
:103C30000A9700F10C092A4D0F92044699E80300F7
:103C40000DF1200805F10C0E88E80300BEE80F0016
:103C5000EC46ACE80F009EE80F008CE80F0095E8FA
:103C60000E00A06800F030FF20B90025284611B0F2
:103C7000BDE8F08F50460AF087FF0A97CDF834B0C0
:103C80002685CDF830A099E8030004F12A030B93B0
:103C900005F10C074FF6FF7388E8030063850FCF2B
:103CA0006E460FC697E80F0086E80F0095E80E00F5
:103CB000A06800F009FF05460028D6D050460AF05B
:103CC00063FF638D4BF6EF629342CED00F9A002ACA
:103CD000CCD0C3F30A032846138011B0BDE8F08F9F
:103CE00028D503082DE9F047064690B04FF400436D
:103CF0004FF001094FF47A7A26F8283FCDE90C9A63
:103D000000230B930A9600F10C08284D044698E80E
:103D1000030008AF05F10C0E87E80300BEE80F00B2
:103D2000EC46ACE80F009EE80F008CE80F0095E829
:103D30000E00A06800F0C8FE20B94FF0FF3010B0B0
:103D4000BDE8F08748460AF01FFF194B0A96CDF8E8
:103D500034A0CDF83090A36298E8030004F12A0360
:103D60000B9387E8030005F10C070FCF6E460FC6D3
:103D700097E80F0086E80F0095E80E00A06800F0B5
:103D8000A3FE0028D9D048460AF0FEFE628D4BF60D
:103D9000EF639A42D1D00DF13E024FF4006120460C
:103DA000FFF736FF013810B0BDE8F08728D50308CB
:103DB0000080FFFF70B50468694DAC4288B064D0E4
:103DC000684DAC4218D0684DAC4200F08280674D1F
:103DD000AC4200F08C80664DAC426CD0654DAC427C
:103DE00000F09380644DAC4200F0AB80634DAC4278
:103DF00000F09980002046E005F550550026019618
:103E00002E6B46F002062E632D6B05F00205019520
:103E1000019DB0F804C05FEA5C0C48D0002001307E
:103E20005FEA5C0C80B2FAD14FEA400C4FF0030E0F
:103E30000EFA0CFE02FA0CF26FEA0E0E266801F082
:103E4000030506EA0E0605FA0CF53543256021F058
:103E50001005013D012D10D8A56803FA0CF305EA01
:103E60000E052B43A360636809090125814005FA0B
:103E700000F023EA000319436160E36803EA0E03DC
:103E80001A430120E26008B070BD05F560550026B8
:103E900000962E6BB0F804C046F001062E632D6B21
:103EA00005F0010500955FEA5C0C009DB6D16FF04E
:103EB000030E6046C2E705F52055002604962E6BDA
:103EC00046F010062E632D6B05F010050495049D39
:103ED0009FE705F54055002602962E6B46F0040636
:103EE0002E632D6B05F004050295029D91E705F503
:103EF0003055002603962E6B46F008062E632D6B78
:103F000005F008050395039D83E705F51055002688
:103F100005962E6B46F020062E632D6B05F02005CE
:103F20000595059D75E705F5E055002607962E6B6E
:103F300046F080062E632D6B05F080050795079DE2
:103F400067E705F50055002606962E6B46F04006FD
:103F50002E632D6B05F040050695069D59E700BFC1
:103F6000000002400004024000080240000C024031
:103F7000001002400014024000180240001C0240E1
:103F80002DE9F041B0F804E05FEA5E0E82B000F087
:103F90009D804FF0000C0CF1010C5FEA5E0E1FFAE1
:103FA0008CFCF8D1BCF10F0F644600F28180514DBA
:103FB0000CEB4C0E05EB8E0E0668BFF35B8F5EE8D4
:103FC000007F002F04D14EE80068B8F1000FF6D151
:103FD000BFF35B8F6CD1484EDFF824810027019737
:103FE000776C47F4804777644FEA940E766C4FEA1B
:103FF0008E0E0EF1804E06F480460EF59C3E019624
:104000000CF0030C019EDEF808604FEA8C0C0F27C1
:1040100007FA0CF726EA0706076847451CD008F59B
:10402000806847454DD0DFF8DC80474553D0DFF846
:10403000D880474540D0DFF8D480474550D0DFF8DE
:10404000D080474551D0DFF8CC8047450CBF0627CC
:10405000072707FA0CF73E43CEF808608688274802
:10406000F743D9B9816821EA060181602349DAB1B1
:10407000CA683243CA60214A04EB440405EB840158
:1040800054683C4054601468344314605661089A84
:104090000120C1E9013202B0BDE8F08181683143FD
:1040A00081601649002AE3D1CA683A40CA60E2E753
:1040B000002002B0BDE8F081032707FA0CF73E4369
:1040C000CAE7012707FA0CF73E43C5E7094DF44656
:1040D0007446AE4670E7022707FA0CF73E43BBE78B
:1040E000042707FA0CF73E43B6E7052707FA0CF753
:1040F0003E43B1E7605E002000380240003C0140D2
:104100000000024000080240000C02400010024083
:10411000001402400018024081884A0822D000237F
:10412000013352089BB2FBD10F2B1AD803EB430388
:104130000D4A00684FEA830C30B452F80C408442B8
:1041400002EB830301D030BC7047084C2568002087
:104150000D432560616130BCC3E9010042F80C00E9
:10416000704770471346E1E7605E0020003C014065
:10417000054B5A69D20706D504494A68012058619F
:104180000AB1886810477047003C0140605E00201B
:10419000054B5A69920706D504490A6902205861FD
:1041A0000AB1486910477047003C0140605E00203A
:1041B000054B5A69520706D50449CA69042058615B
:1041C0000AB1086A10477047003C0140605E002059
:1041D000054B5A69120706D504498A6A08205861B6
:1041E0000AB1C86A10477047003C0140605E002079
:1041F000054B5A69D20606D504494A6B102058610E
:104200000AB1886B10477047003C0140605E002097
:104210001E4B5A69920610B506D51D490A6C20201E
:1042200058610AB1486C9047184B5A69540606D534
:104230001749CA6C402058610AB1086D9047134B6A
:104240005A69100606D512498A6D802058610AB154
:10425000C86D90470D4B5A69D10507D50C494A6E78
:104260004FF4807058610AB1886E9047074B5A69C5
:10427000920509D506490A6F4FF4007058611AB1CA
:10428000BDE81040486F104710BD00BF003C014022
:10429000605E00202B4B5A69510510B508D52A499C
:1042A000CA6F4FF48060586112B1D1F88000904716
:1042B000244B5A69120509D52349D1F888204FF4B7
:1042C0000060586112B1D1F88C0090471D4B5A69BB
:1042D000D40409D51C49D1F894204FF4805058617A
:1042E00012B1D1F898009047164B5A69900409D53D
:1042F0001549D1F8A0204FF40050586112B1D1F8FF
:10430000A40090470F4B5A69510409D50E49D1F8C2
:10431000AC204FF48040586112B1D1F8B000904702
:10432000084B5A6912040BD50749D1F8B8204FF44D
:104330000040586122B1BDE81040D1F8BC001047E0
:1043400010BD00BF003C0140605E0020024B002217
:104350001A609A80704700BF585E00202DE9F04136
:104360000646C06888424FD8B4688818A0424BD22D
:104370001D0145EA83051D4345EA83154B0003F003
:10438000060301F00308FF249C40904421F003073A
:104390000EF0A0FA1E4BE443F322EDB2E4B2DA6071
:1043A0000EE0316945EA0402002301EB9701D2B225
:1043B00018460EF0EDF9A8F1040804370446E8B9F0
:1043C000B8F1030FEDD8B8F1000F12D0C8F104080E
:1043D0004FEA4808FF223169254342FA08F20023D8
:1043E00065EA020201EB97011846D2B20EF0D0F94D
:1043F00020B90EF083FA0020BDE8F0810EF07EFABD
:10440000BDE8F0410EF084BA4FF0FF30F4E700BF92
:10441000003C02402DE9F041604CD4E90210CD1C73
:1044200025F0030500F1040C6545A5EB0101C0F082
:10443000AC806B1E26699B08F35CDBB269B1490056
:10444000FF220A41D243D2B223EA0203134304E01B
:1044500061450DD3B35C0D46DBB26A1FFF2B4FEAFB
:104460009202A5F10401F3D09A09032A29460CD13E
:10447000814202D809E0814207D09B00C3F3811238
:10448000032A01F1FF31DBB2F5D0226A656A2160AF
:10449000D61C26F0030605F1040E7645A6EB0202B3
:1044A00076D3731EA76A9B08FB5CDBB282B14FEA2E
:1044B0004208FF2242FA08F2D243D2B223EA0203B0
:1044C000134305E072450ED317F808301646DBB2E9
:1044D000721FFF2B4FEA9208A6F10402F2D09F0947
:1044E000032F32460CD1954202D346E0AA4244D073
:1044F0009B00C3F38117032F02F1FF32DBB2F5D02B
:10450000A261002F3AD1264901230B70D61C26F058
:1045100003067645A6EB02003DD303EB430304EB11
:10452000C3031C69731E9B08E35CDBB248B1400007
:10453000FF2101410B4004E071450AD3235C0E4684
:10454000DBB2711F8808311F002BF5D09909314665
:104550000BD18D4202D308E08D4206D0980010F0B6
:10456000C00F01F1FF31C3B2F6D00E4C0E4B511A01
:10457000002021601860BDE8F081A261084E002390
:10458000E64605460A463370C0E72946FF236FE733
:104590003246FF23A7E731460023DAE7E401002093
:1045A000285F0020205F0020245F002030B5244CCD
:1045B0002449E2682260002387B0626A0B70616858
:1045C000A261CDE9013301220223CDE90312059353
:1045D0000EF080F91C4BF322DA60694601A80EF058
:1045E000FBF9F0B9E368236005460EF087F9002374
:1045F000CDE90133E369039301220223CDE90423CA
:104600000EF068F9104BF322694601A8DA600EF04B
:10461000E3F960B9636AA3610EF070F9284607B048
:1046200030BD0EF06BF90EF073F90546DFE70EF0C2
:1046300065F90EF06DF90543284607B030BD00BF9F
:10464000E4010020285F0020003C0240064B074A9E
:104650001B78C3F1010303EB430302EBC303D3E96C
:104660000203C01AC0007047285F0020E401002048
:1046700038B5104C256800EB020CBCEBC50F15D803
:10468000034608460C4991F800C00C490CEB4C0C51
:1046900051F83C4001EBCC01A4EB050C496903EB5C
:1046A000CC031944FBF76CFF002038BD4FF0FF30FE
:1046B00038BD00BF205F0020285F0020E4010020FB
:1046C000F0B5224B224E1B78C3F1010303EB4303E9
:1046D00006EBC305DC00D5E9023207309A1AB2EBCB
:1046E000D00F87B02ED33159C7085B1ABB4217D2FF
:1046F0006B68039300230122CDE901330223CDE946
:1047000004230EF0E7F8134BF32201A8DA606946A0
:104710000EF062F970B9EB6833510EF0EFF83159D1
:1047200001233A462846FFF719FE08B90A4B1F60D5
:1047300007B0F0BD0EF0E2F80EF0EAF80028EED077
:1047400007B0F0BD4FF0FF30F2E700BF285F002058
:10475000E4010020003C0240245F00203A4B2DE998
:10476000F04115461A684319B3EBC20F69D8374BAD
:1047700004461F7888460EF0ADF8354BF322DA6018
:10478000A207C7F1010720D0002D55D0314E07EB0D
:10479000470306EBC30603E0A30716D0002D4BD05A
:1047A00032687169002301EBC201214418F8012B22
:1047B00018460DF0EDFF0134013D0028ECD00EF05D
:1047C0009DF8BDE8F0410EF0A3B8032D17D9214E96
:1047D00007EB470306EBC30601E0032D0FD933684F
:1047E000716958F8042B01EBC30121440023022016
:1047F0000DF0CEFF043D04340028EED0DFE7DDB13C
:10480000144E07EB470306EBC30608EB05074546C6
:1048100001E0BD4210D07269316802EBC101214450
:104820000023A1EB08012944184615F8012B0DF0CF
:10483000AFFF0028EDD0C2E70EF060F80020BDE821
:10484000F0814FF0FF30FAE7245F0020285F00205E
:10485000003C0240E40100202DE9F043334F344D89
:104860003E78DFF8D890C6F1010000EB40004FEA37
:10487000C008D9F8002055F8081087B005EBC00033
:104880000023FFF76BFD044698BBD9F8002055F8CC
:104890000830C9F80000134445F8083006EB460319
:1048A0004FEAC30805EBC3093B7855F80810C3F17C
:1048B00001033B701F4B1A60D9F8083099421CD392
:1048C000D9F80430039301220223CDE90423CDE972
:1048D00001000DF0FFFF184BF32201A8DA606946D2
:1048E0000EF07AF8C0B9D9F80C3045F808300EF05F
:1048F00005F8204607B0BDE8F08301231A46484674
:10490000FFF72CFD55F8083004460133204645F8E2
:10491000083007B0BDE8F0830DF0F0FF0DF0F8FFB0
:104920000446204607B0BDE8F08300BF285F0020A2
:10493000E4010020205F0020003C0240245F0020B2
:104940000170704748304FF00102BFF35B8FD0E831
:104950004F3FC0E8412F0029F9D1BFF35B8FD8B298
:10496000B0FA80F040097047002380F84830704763
:1049700070B54468002C33D005460068226843684F
:104980009A4246D010F0D4FFA646BEE80F002E682B
:1049900006F1040CACE80F00BEE80F00ACE80F0015
:1049A0009EE807008CE80700304610F05FFF28689B
:1049B0000268136843F040031360E36A93B118463A
:1049C000218E00220EF052FA2868836C93F835305D
:1049D000012B0CD0E06A18B1218E01220EF046FAAC
:1049E000002070BD836C93F83530012BF8D1C36C77
:1049F00093F83530012BEDD1616B002936D0A26BD5
:104A0000002A2FD0A38F11F00FF80028E2D1012047
:104A100070BD626883689A42B4D1A268C3689A4242
:104A2000B0D1E26803699A42ACD1226943699A42E3
:104A3000A8D1626983699A42A4D1A269C3699A42E2
:104A4000A0D1E269036A9A429CD1226A436A9A42DF
:104A500098D1626A836A9A4294D1A26AC36A9A42DE
:104A600090D1AAE7A28F10F079FFCEE7A16B0029C1
:104A7000B0D0A28F11F05CF8C7E700BF002310B5DB
:104A80000C46CB64EFF3108172B6436800F1040C5E
:104A900053B11A46DB6C002BFBD142F84C4F81F32B
:104AA0001088944503D010BD446081F31088FFF74F
:104AB0005FFF01460028F6D1236C002BF3D0606C19
:104AC000BDE81040184700BF84B02DE9F04196B012
:104AD0000DF1740C8CE80E000023CDE914332B4B40
:104AE0001293FF238DF807300446051DBCE80F0024
:104AF0000DF1080EAEE80F00BCE80F00AEE80F00A5
:104B00009CE8070028AF8EE8070097E803000DAE89
:104B100086E803002A9B0F932B9B10930DF1070847
:104B20002C9B1193CDF84C80EFF3108172B6636823
:104B3000E3B11A46DB6C002BFBD102AB42F84C3FD1
:104B400081F31088954203D114E001200AF074F833
:104B50009DF80730FF2BF8D09DF80700003818BFEC
:104B6000012016B0BDE8F04104B0704702AB6360AD
:104B700081F310882046FFF7FBFE01460028E7D1AD
:104B8000129B002BE4D013989847E1E741490008B5
:104B90004368E3B110B50446D86A20B1198E0122EA
:104BA0000EF064F963681A6C12B1586C01219047D9
:104BB000EFF3108272B66368DB6C636082F3108877
:104BC00023B12046BDE81040FFF7D2BE10BD7047AC
:104BD0004068704710B5034B0360044625F06EFC37
:104BE000204610BDF8D5030810B5054B03600446F8
:104BF00025F064FC2046082125F09CFA204610BDD3
:104C0000F8D5030810B50446082025F055FB0349E4
:104C1000034AC0E90014034925F0DEFFF8D5030874
:104C2000D54B0008B0D50308B4EE400AF1EE10FAF7
:104C30006CBF01200020704738B52DED048B037B3D
:104C4000022B044600F0AD80012B00F08880002B81
:104C500040F0D48090ED028A0123227D022A00F0E8
:104C60008780012A00F0B480002A40F0C78094EDCC
:104C7000049A012294F82000022800F0868001287E
:104C800000F09780002840F0B48094ED067A94ED0F
:104C9000076A002B00F09680002A00F0938094F8B9
:104CA0002430A26AA162002B00F09B808B1A07EED1
:104CB000903ADFED545AD4ED0B6AF8EE677A37EE8E
:104CC000667AC7EEA59AD4ED015A27EE257AF0EE62
:104CD000667AE9EE877AC6EE278AC4ED0B7A68EE2B
:104CE000A58AB0EE680AFFF79FFF00287ED1DFEDAE
:104CF000467AC7EEA96AB0EEE87ADFED447AF4EEC0
:104D0000476AF1EE10FA48BFF0EE678AD4ED0C7AEC
:104D10009FED3F7AC4ED0E8AE8EEA97A0023636323
:104D200038EE899AC7EE876AFDEE666AE3636364CC
:104D3000F8EEE66A84ED109AE6EEC77A37EE888AD6
:104D4000C4ED0C7AC8EE077AFDEE677AF8EEE77AE2
:104D5000A7EEC78A84ED128ABDEC048B38BD826849
:104D6000002A3AD092ED008A227D022A7FF479AFA0
:104D70002269A2B3106890BB94F8200092ED019ACA
:104D800002284FF001027FF47AAFA069D0B1056824
:104D9000C5B990ED017A90ED026A002B7FF47CAFEB
:104DA00010E08368CBB11A68BAB993ED018A012388
:104DB00053E7A06930B190ED007A90ED016A002BC5
:104DC0007FF46AAF0023BDEC048B84F8243038BD37
:104DD000206920B190ED009A4CE700233DE70022C6
:104DE00048E700220123E2622263ECE7DFED078A55
:104DF0008CE7FF2802D10748FFF704FF0648FFF7BA
:104E000001FF00BFA037204DCDCCCC3D00000000FD
:104E1000DB0FC94078D5030854D503089FED1F7AEE
:104E2000F5EE007AE0EE077AF5EEC07AF1EE10FAD0
:104E3000BDEEE77A04D517EE103A013B07EE103AC3
:104E4000B8EEC77ADFED166A37EEC70A20EE260AFB
:104E5000FCEEC07A17EE903A9BB2B3F5007F18D201
:104E600007EE903AF8EE677A591C30EE670A0D4A61
:104E700002EB810191ED007A02EB8302F7EE007AFA
:104E800077EEC07A20EE070A92ED007AA7EE870A45
:104E9000704730EE660A01210023E8E783F9223EDD
:104EA00000000044EC9D0408DFED1E7AB5EEC00A58
:104EB00060EE277AF1EE10FABDEEE77A04D517EE30
:104EC000103A013B07EE103AB8EEC77ADFED166AEA
:104ED00037EEC70A20EE260AFCEEC07A17EE903AAB
:104EE0009BB2B3F5007F18D207EE903AF8EE677ADE
:104EF000591C30EE670A0D4A02EB810191ED007AF0
:104F000002EB8302F7EE007A77EEC07A20EE070A12
:104F100092ED007AA7EE870A704730EE660A01210B
:104F20000023E8E783F9223E00000044EC9D0408DA
:104F3000D0ED067AF5EEC07AF1EE10FA15D49FEDB9
:104F40000D7AF4EEC77AF1EE10FA03DD0A4BC0F8E1
:104F5000683270479FED097A67EE877AFCEEE77A50
:104F600017EE903AC0F8683270470023C0F86832F4
:104F7000704700BF300E034900B6F7FF0000FA4546
:104F800003680B400360704703680B43036070477E
:104F900090F82C32B3B1D0F8443223B11B69B0F889
:104FA00048221A420FD1D0E98C31013B41F1FF3147
:104FB000D0F8E02002F540524FF0010CC0E98C31EE
:104FC00082F830C97047D0E98C31013341F10001DA
:104FD000EEE700BFC04370472DE9F04F0446416043
:104FE0006381A349A34B23600C9BBDF9240022815C
:104FF0008946A08103F5405A0F46B9E80F00DFED5E
:105000009E7A9FED9E1AC4ED067A002504F1240EC7
:10501000C4E904552577C4F81E50AEE80F0099E89E
:10502000070040F2011B8EE8070084ED0E1AA4F879
:105030003DB00FCF04F1400CACE80F0099E8070039
:105040004FF001038CE8070084F8583064220A23EB
:10505000C4E920230A9BC4F88C30DFED891A9FED48
:10506000892A9FED893ADFED893ADFED894A9FED84
:10507000895ADFED895A894BC4F89030F2EE042A40
:105080000C9B9FED877AC4ED131AB3EE044A84EDAE
:10509000142AC4ED172A84ED183AC4ED193A84EDA8
:1050A0001A4AC4ED1B4A84ED1C5AA4F8745084F8C3
:1050B0007650A56784F87C50C4F88850C4ED255A12
:1050C000C4F8E030774BC4F8E43002260B9BC4F8F8
:1050D000DC30C4E94156C4ED267A84F89C50C4ED16
:1050E000287A84F8A450C4ED2A7AC4ED2B7A84F887
:1050F000B05084F8B450C4F8B850C4ED2F7AC4ED61
:10510000307AC4F8C460C4ED327AC4F8CC60C4ED1F
:10511000347AC4F8D460C4ED367A84ED3A7A84EDFA
:105120003B7A84ED3C7AC4ED3D7AC4ED3E7AC4ED21
:105130003F7AC4ED407AC4ED437AC4ED447AC4F8B2
:105140001461C4ED467A0D9BC4F838310E9BC4F847
:105150003C310F9BC4F84031109BC4F84431119B83
:10516000C4ED477AC4E952354FF40063C4E954559D
:10517000C4E95655C4E95855C4E95A55C4E95C55C3
:10518000C4E95E55C4E96055C4F82061C4ED497AAC
:10519000C4F82861C4ED4B7AC4ED4D7AC4F830618F
:1051A000C4E96255C4E96455C4E96655C4E9685563
:1051B000C4E96A55C4E96C55C4E96E55C4E9705533
:1051C000C4E97255C4E97455C4E97655C4E9785503
:1051D000C4E97A55C4E97C55C4E97E55C4E98055D3
:1051E000C4E98255C4F820320A9BC4F81852C4E9B5
:1051F0008455C4E99855C4F83C52A4F84052C4F808
:105200004452A4F8485284F85C521C630B9B84F807
:105210004C621C600D9BCAF8CC489FED136BC3F821
:1052200084400E9BC4F81C5204F24D2884ED8C6B14
:1052300084F82452C4F8285284F82C52C4F8385206
:10524000C4F84D52C4F85152A4F85552C4F85882CB
:10525000C4F868521C600F9B1C61109B1C61119B61
:105260002046DC60BDE8F08F000000000000000078
:1052700030D103084CD603080000000063141D441D
:10528000000048430000C843CDCCCC3EDB0F494072
:10529000000020420000C842C74B6B410CD60308F7
:1052A0000000807F4CDA030810B5C28B254CC0F893
:1052B00088000D2A94BF04EBC2022246034692E8FE
:1052C000030082B06A4682E80300198CC3F83C02EE
:1052D0000D29908888BF1B49A3F8400298BF04EBB2
:1052E000C10103C91C6882E803002168C3F84402B5
:1052F00015489288A3F8482281421ED1D3ED067A40
:10530000F5EEC07AF1EE10FA15D49FED107AF4EEB6
:10531000C77AF1EE10FA05DD0D4AC3F868220120C4
:1053200002B010BD9FED0B7A67EE877AFCEEE77A4C
:1053300017EE902AF1E70022EFE718468847012090
:1053400002B010BD301D0020314F0008300E03495F
:1053500000B6F7FF0000FA453B4BDFED3C3A9FED0E
:105360003C4ADFED3C4ADFED3C5A9FED3C6A9FED45
:105370003C7ADFED3C7A2DE9F04F4FF000099E4674
:105380009A4600238446C0E9049980F81C90836102
:1053900000F1240600F14004BEE80F008FB0E8469B
:1053A000A8E80F009EE8070088E80700BAE80F00A9
:1053B0000DF11C0B5D46ABE80F009EE8070040F2C4
:1053C00001138BE807006F46ADF819304FF0010369
:1053D0008DF834300FCFCDED053A0FC697E80700B2
:1053E0008DED0A4A86E807000FCDCDED0B4A0FC4BC
:1053F00095E807000A2384E807006421CCE920131C
:10540000DCF80820DCF80430CCED185AB2EE045A6F
:10541000F3EE046A8CED175A8CED196ACCED1A6A1A
:105420008CED1B7ACCED1C7AACF874908CF87690ED
:105430008CF87C90CCF88890CCF81E20CCF8783092
:105440000FB0BDE8F08F00BF30D1030863141D44D6
:10545000000048430000C843CDCCCC3EDB0F4940A0
:10546000000020420000C84210B586B00022D0F8EB
:105470002032CDF80E20ADF812200B490B4AB0F8BF
:105480000CC0ADF80CC00446CDE901129B080146E2
:1054900001A8059309F0A2FB0123C4F81C0284F8BB
:1054A000243206B010BD00BFE49B04084963000825
:1054B00000B585B068464FF0FF32012109F0EEFBE0
:1054C00068464FF0FF32012109F0E8FB68464FF0D3
:1054D000FF32012109F0E2FB012005B05DF804FB79
:1054E00010B4C28B124C0D2A94BF04EBC2022246A8
:1054F000034692E8030083B06A4682E80300198CF1
:10550000C3F83C020D29908888BF0949A3F84002DE
:1055100098BF04EBC10103C982E803009288C3F875
:105520004402A3F8482203B05DF8044B704700BF63
:10553000301D002038B504460D46D0F8380107F07C
:1055400097FCD4F83801294607F046FCD4F84031DE
:105550009A7AAAB11A7D5B7D934211D082B1D4F8B8
:1055600058321B780B2B0BD04FF4805104F50A7086
:10557000FFF70AFDD4F82802B0FA80F0400938BDE0
:10558000D4F844319A7A002AF4D01A7D5B7D934294
:10559000F0D0002AEED0D4F858321B780B2BE9D08B
:1055A0004FF4005104F50A70FFF7EEFCE2E700BF8C
:1055B00008B5037F2BB1D0F8682222B1013AC0F8B8
:1055C0006822012008BD4FF4006100F50A70FFF762
:1055D000DBFC104608BD00BF2DE9F0472DED028B26
:1055E000044686B00D4691461E46EFF3108772B60C
:1055F00091ED007A91ED016AD0F83831CA68C0F8AF
:10560000F020C7EE066A93F83820D5F81080002104
:10561000C0F80811C0F81411C0F82011C0F8281102
:10562000022A00F5847E00F58A7C00F5907004F56E
:105630009471DFED8B7A40ED0E6A40ED0D6A40ED1E
:10564000057A40ED047A40ED027A40ED017AC0ED32
:10565000017AC0ED037AC4F8F4804FF00008C4F872
:10566000348116BFF0EE476AF0EE676AB0EE677AF3
:105670004FF00008023AC4ED3E6A84ED3F7AC4F868
:10568000308118BF012283F8E02093F8EC20C3F8A2
:10569000E4E0022A1CBF022283F8EC2093F8F820F1
:1056A000C3F8F0C0022A1CBF022283F8F82093F846
:1056B0000021022A1CBF022283F80021C3F8FC004B
:1056C00094F89C20C4F89800022A1CBF022284F897
:1056D0009C2093F88821C3F88411022A1CBF02225F
:1056E00083F8882193F80821C3F80411022A1CBF0B
:1056F000022283F8082194F8A430C4F8A010022BE9
:105700001CBF022384F8A43087F310884FF0FF32C7
:105710000121684609F0C2FA4FF0FF3201216846C4
:1057200009F0BCFA68464FF0FF32012109F0B6FAE1
:10573000D4F8380100F1C80107F05AFAD5ED047A1F
:1057400094F84C32F5EEC07AB7EE008AFFEE007A9C
:10575000F1EE10FAB8BFB0EE678A002B43D1DFED4F
:10576000418A9846D4F8383193F89C70002F3CD089
:1057700095ED047AD4ED4B7AD4ED4D6A77EEC77A85
:1057800095ED057AF0EEE77AF4EEE87AF1EE10FAAC
:1057900068EE266A28EE077A94BF4FF0010A4FF0B0
:1057A000000A44D82A7E002A4FD1F4EEC76AF1EEEF
:1057B00010FA25DAD4F88C0090F88E206AB3AA7E0D
:1057C000002A42D1B3683BB1F3688DF817A00DF100
:1057D00017013046984730B1012009F02DFA94F8AE
:1057E0004C32002BBED0D4F83831002700211846A7
:1057F00007F040FA384606B0BDEC028BBDE8F087F2
:105800006A7E12BBD4F88C0090F88E20002AD6D184
:10581000F4EEE87AF1EE10FAD4D8B8F1000F01D026
:10582000B846CFE7012101F055FFB846CAE7F4EECC
:10583000C76AF1EE10FAE3DAD4F88C2092F88E20E1
:10584000002ABFD0AA7E002ABCD0B9F1000FCDD06B
:105850004F46384606B0BDEC028BBDE8F08700BF6E
:105860000000000000000034F0B5C57D89B004469A
:10587000002D40F0ED80EFF310873E4672B6D0F871
:10588000E00000F5405393F8B428002A40F03E8130
:10589000BC4A93F8E478D2F88C2002F1E001022FA0
:1058A000C3F8E01893F8F41818BF022700F1340089
:1058B00018BF83F8E478012918BF0121C3F8F00864
:1058C00093F8DC0818BF83F8F41802F1D00102281D
:1058D000C3F8D81893F8EC181CBF022083F8DC0832
:1058E000D8320229C3F8E82802D0022283F8EC2833
:1058F000D4F8E00000F068FED4F8E020D4F83831A5
:1059000002F54051012081F8300902F5645000276A
:105910000760024693F88001022802F13C021CBF96
:10592000022083F88001C3F87C21002D40F089809B
:10593000D4F88C20D2ED177AF8EEE77A93F8380095
:1059400093F8EC70C3ED637A821E18BF0122022F18
:105950001CBF022783F8EC7093F8F87083F8E020FE
:10596000022F03F5CE72C3F8E42018BF022703F517
:10597000C87218BF83F8F870C3F8F020002D63D008
:10598000D4F8DC20283294F89C70C4F89820022FB8
:105990001CBF022784F89C7093F80071032808BF8D
:1059A00004F1D402022F1CBF022783F80071C3F850
:1059B000FC20002D41D0D4F8DC20303294F8A470C3
:1059C000C4F8A020022F1CBF022784F8A47003286B
:1059D00093F8880108BF04F1CC0202281CBF022002
:1059E00083F8880193F80801C3F8842102281CBFBA
:1059F000022083F80801C3F804219DB1D3ED087A91
:105A00009FED617AD4ED146AF8EEE77A01F60C1393
:105A100067EE877A01F6FC0186EEA77A83ED007ABD
:105A200081ED007A86F31088D4F8383193F89C30F1
:105A3000002B52D0012009B0F0BDD4F88C20A43244
:105A4000BCE7F7EE007A79E7D4F88C209C329AE72D
:105A50000023CDE90433CDE90633012204AB00F184
:105A60004001FFF7B9FD069B06461BB104A90322BE
:105A700008469847002E76D0EFF3108672B6D4F819
:105A8000E03003F5405393F8DC2893F8EC18022A31
:105A90001CBF022283F8DC280022C3F8D82893F820
:105AA000E428022A1CBF022283F8E4280022C3F85B
:105AB000E02893F8F428022A1CBF022283F8F42875
:105AC0000022C3F8F028D4F8DC20022902F13802C1
:105AD000C3F8E8287FF409AF0AE768464FF0FF32C1
:105AE000012109F0DBF868464FF0FF32012109F08F
:105AF000D5F868464FF0FF32012109F0CFF8D4F80D
:105B0000380100F1C80107F073F893E793F8E4282F
