:020000040800F2
:1000000000000220ED580008AD230008712400080C
:1000100085240008AD240008D52400080000000055
:10002000000000000000000000000000419B0108EB
:10003000FD24000800000000919D01080B25000828
:100040004159000841590008415900084159000828
:100050004159000841590008796400088764000884
:1000600095640008A3640008B1640008192500081D
:10007000415900082D250008415900084125000874
:1000800055250008692500084159000891250008F8
:10009000A5250008B9250008CD250008BF64000883
:1000A00041590008415900084159000841590008C8
:1000B00041590008415900084159000829500008D9
:1000C0003D500008415900084159000841590008B5
:1000D0004159000841590008E1250008415900082C
:1000E000E5640008415900084159000841590008D9
:1000F000B54D0008F5250008415900087D25000888
:100100004159000841590008A14D00081126000876
:1001100025260008415900084159000841590008A6
:100120004159000841590008415900084159000847
:10013000415900080000000000000000415900087B
:100140004159000841590008415900085150000820
:100150004159000841590008415900084159000817
:100160004159000841590008415900084159000807
:10017000415900087D4E000800000000000000000A
:08018000415900084159000833
:1001C000A2EB0300704700BF02780B78012A28BF1A
:1001D0009A42F5D16DE9044540EA0104CDE9026790
:1001E0006FF0000C4FEA447212B380EA010414F07D
:1001F000070F6AD100F0070420F0070004F00305A0
:1002000021F007014FEAC505F0E8042314F0040FBC
:10021000F1E804670CFA05F462EA040266EA0406EF
:100220000AD063EA0403624667EA0407664603E00D
:10023000F0E80423F1E8046782FA4CF582EA060448
:10024000A4FA8CF46CBB83FA4CF583EA0705A5FA93
:100250008CF595B950E9022351E9026782FA4CF511
:1002600082EA0604A4FA8CF483FA4CF583EA0705C3
:10027000A5FA8CF52543DBD09CB92DBAB5FA85F4E7
:1002800024F0070427FA04F1DDE9026723FA04F3F6
:1002900003F0FF0001F0FF01FDE80445A0EB0100C1
:1002A000704724BAB4FA84F424F0070426FA04F15F
:1002B000DDE9026722FA04F202F0FF0001F0FF011B
:1002C000FDE80445A0EB0100704714F0030F3CD19A
:1002D00010F0030428D150F8082B51F8083B82FA9B
:1002E0004CF582EA0305A5FA8CF55DB950F8042CAB
:1002F00051F8043C82FA4CF582EA0305A5FA8CF524
:10030000002DE8D02DBAB5FA85F424F0070423FABD
:1003100004F122FA04F202F0FF0001F0FF01FDE80F
:100320000445A0EB010070474FEAC40420F003002D
:1003300050F8082B21F0030151F8083B0CFA04F4A3
:1003400062EA040263EA0403C9E710F003041AD066
:10035000A1EB040120F00300E40750F8042B06D0C1
:100360000FD28B785FFAA2F4E41A06D12BB1CB78C6
:100370005FFAB2F4E41A00D11BB920465DF8104BC5
:10038000704701F1040150F8042BCC0721F0030160
:1003900051F8043B48D824D222F07F4482FA4CF52D
:1003A00094EA1325A5FA8CF50AD165B951F8043BF6
:1003B00084EA0204B4EB036F0ED150F8042BEBE790
:1003C0004FEA132355E035F07F454DD10878FDE81D
:1003D0000445C0F1000070474FEA126203F0FF03CA
:1003E00047E002EA1C4482FA4CF594EA1345A5FA68
:1003F0008CF50AD165B951F8043B84EA0204B4EBE8
:10040000034F0CD150F8042BEBE74FEA134330E0D5
:1004100015EA1C4528D10B884FEA124229E04FEA21
:10042000124203EA1C4324E002F0FF0482FA4CF576
:1004300094EA1365A5FA8CF50AD165B951F8043B25
:1004400084EA0204B4EB032F09D150F8042BEBE744
:100450004FEA13630DE015F0FF0F05D10B684FEA6B
:10046000122223F07F4304E04FF00000FDE8044532
:10047000704712BA1BBA82FA4CF482EA0304A4FA57
:100480008CF5B5FA85F402FA04F203FA04F34FEAA4
:100490001260FDE80445A0EB136070470000000007
:1004A00001F0FF01102A2BDB10F0070F08D010F825
:1004B000013B013A8B422DD010F0070F42B3F6D129
:1004C000F0B441EA012141EA014122F007047FF042
:1004D00000070023F0E80256083C85EA010586EA99
:1004E000010685FA47F5A3FA87F586FA47F6A5FAD5
:1004F00087F68EB9EED1F0BC01F0FF0102F00702E1
:1005000032B110F8013B013A83EA010313B1F8D18B
:100510000020704701387047002D06BF354603386C
:10052000073815F0010F07D1013015F4807F02BFA5
:10053000013015F4C03F01300138F0BC704700BFF6
:10054000844641EA000313F003036DD1403A41D3DE
:1005500051F8043B40F8043B51F8043B40F8043B9D
:1005600051F8043B40F8043B51F8043B40F8043B8D
:1005700051F8043B40F8043B51F8043B40F8043B7D
:1005800051F8043B40F8043B51F8043B40F8043B6D
:1005900051F8043B40F8043B51F8043B40F8043B5D
:1005A00051F8043B40F8043B51F8043B40F8043B4D
:1005B00051F8043B40F8043B51F8043B40F8043B3D
:1005C00051F8043B40F8043B51F8043B40F8043B2D
:1005D000403ABDD2303211D351F8043B40F8043BCD
:1005E00051F8043B40F8043B51F8043B40F8043B0D
:1005F00051F8043B40F8043B103AEDD20C3205D3DD
:1006000051F8043B40F8043B043AF9D2043208D0D4
:10061000D2071CBF11F8013B00F8013B01D30B8846
:1006200003806046704700BF082A13D38B078DD024
:1006300010F003038AD0C3F10403D21ADB071CBFF6
:1006400011F8013B00F8013B80D331F8023B20F860
:10065000023B7BE7043AD9D3013A11F8013B00F899
:10066000013BF9D20B7803704B7843708B78837021
:10067000604670470000000000000000000000001D
:1006800030B490F800F020F007016FF0000C10F08B
:10069000070491F820F040F048804FF000046FF01C
:1006A0000700D1E9002391F840F000F1080082FA38
:1006B0004CF2A4FA8CF283FA4CF3A2FA8CF34BBB03
:1006C000D1E9022382FA4CF200F10800A4FA8CF27C
:1006D00083FA4CF3A2FA8CF3E3B9D1E9042382FA4A
:1006E0004CF200F10800A4FA8CF283FA4CF3A2FA5F
:1006F0008CF37BB9D1E9062301F1200182FA4CF297
:1007000000F10800A4FA8CF283FA4CF3A2FA8CF3FD
:10071000002BC6D0002A04BF04301A4612BAB2FA1F
:1007200082F200EBD20030BC7047D1E9002304F024
:100730000305C4F100004FEAC50514F0040F91F859
:1007400040F00CFA05F562EA05021CBF63EA0503F6
:1007500062464FF00004AAE781F0004102E000BFCA
:1007600083F0004330B54FEA41044FEA430594EA71
:10077000050F08BF90EA020F1FBF54EA000C55EAAC
:10078000020C7FEA645C7FEA655C00F0E2804FEA7D
:100790005454D4EB5555B8BF6D420CDD2C4480EA5F
:1007A000020281EA030382EA000083EA010180EA8F
:1007B000020281EA0303362D88BF30BD11F0004FDD
:1007C0004FEA01314FF4801C4CEA113102D0404213
:1007D00061EB410113F0004F4FEA03334CEA13334E
:1007E00002D0524263EB430394EA050F00F0A78066
:1007F000A4F10104D5F1200E0DDB02FA0EFC22FA61
:1008000005F2801841F1000103FA0EF2801843FA54
:1008100005F359410EE0A5F120050EF1200E012A45
:1008200003FA0EFC28BF4CF0020C43FA05F3C01883
:1008300051EBE37101F0004507D54FF0000EDCF1FC
:10084000000C7EEB00006EEB0101B1F5801F1BD3A5
:10085000B1F5001F0CD349085FEA30004FEA3C0CA9
:1008600004F101044FEA445212F5800F80F09A809F
:10087000BCF1004F08BF5FEA500C50F1000041EBA3
:10088000045141EA050130BD5FEA4C0C404141EBA7
:100890000101013C28BFB1F5801FE9D291F0000FA2
:1008A00004BF01460020B1FA81F308BF2033A3F151
:1008B0000B03B3F120020CDA0C3208DD02F1140C48
:1008C000C2F10C0201FA0CF021FA02F10CE002F183
:1008D0001402D8BFC2F1200C01FA02F120FA0CFC7C
:1008E000DCBF41EA0C019040E41AA2BF01EB0451C5
:1008F000294330BD6FEA04041F3C1CDA0C340EDCC3
:1009000004F11404C4F1200220FA04F001FA02F305
:1009100040EA030021FA04F345EA030130BDC4F1C3
:100920000C04C4F1200220FA02F001FA04F340EAB8
:100930000300294630BD21FA04F0294630BD94F069
:10094000000F83F4801306BF81F480110134013D50
:100950004EE77FEA645C18BF7FEA655C29D094EAC1
:10096000050F08BF90EA020F05D054EA000C04BF3F
:100970001946104630BD91EA030F1EBF002100202A
:1009800030BD5FEA545C05D14000494128BF41F0C9
:10099000004130BD14F580043CBF01F5801130BD2D
:1009A00001F0004545F0FE4141F470014FF00000B8
:1009B00030BD7FEA645C1ABF194610467FEA655C69
:1009C0001CBF0B46024650EA013406BF52EA03350B
:1009D00091EA030F41F4002130BD00BF90F0000FF9
:1009E00004BF0021704730B54FF4806404F1320435
:1009F0004FF000054FF0000150E700BF90F0000FEE
:100A000004BF0021704730B54FF4806404F1320414
:100A100010F0004548BF40424FF000013EE700BFE4
:100A200042004FEAE2014FEA31014FEA02701FBF74
:100A300012F07F4393F07F4F81F06051704732F0A6
:100A40007F4208BF704793F07F4F04BF41F40021FD
:100A5000704730B54FF4607401F0004521F000415B
:100A60001CE700BF50EA010208BF704730B54FF0E5
:100A700000050AE050EA010208BF704730B511F0E6
:100A8000004502D5404261EB41014FF4806404F11E
:100A900032045FEA915C3FF4D8AE4FF003025FEAA4
:100AA000DC0C18BF03325FEADC0C18BF033202EB28
:100AB000DC02C2F1200300FA03FC20FA02F001FA82
:100AC00003FE40EA0E0021FA02F11444BDE600BF25
:100AD00070B54FF0FF0C4CF4E06C1CEA11541DBFD4
:100AE0001CEA135594EA0C0F95EA0C0F00F0DEF89F
:100AF0002C4481EA030621EA4C5123EA4C5350EA84
:100B0000013518BF52EA033541F4801143F48013D4
:100B100038D0A0FB02CE4FF00005E1FB02E506F065
:100B20000042E0FB03E54FF00006E1FB03569CF0BA
:100B3000000F18BF4EF0010EA4F1FF04B6F5007FC0
:100B400064F5407404D25FEA4E0E6D4146EB060632
:100B500042EAC62141EA55514FEAC52040EA5E50BB
:100B60004FEACE2EB4F1FD0C88BFBCF5E06F1ED865
:100B7000BEF1004F08BF5FEA500E50F1000041EB9C
:100B8000045170BD06F0004646EA010140EA020049
:100B900081EA0301B4EB5C04C2BFD4EB0C0541EA6B
:100BA000045170BD41F480114FF0000E013C00F380
:100BB000AB8014F1360FDEBF002001F0004170BDA4
:100BC000C4F10004203C35DA0C341BDC04F11404BD
:100BD000C4F1200500FA05F320FA04F001FA05F249
:100BE00040EA020001F0004221F0004110EBD37016
:100BF00021FA04F642EB06015EEA430E08BF20EA42
:100C0000D37070BDC4F10C04C4F1200500FA04F3E4
:100C100020FA05F001FA04F240EA020001F0004176
:100C200010EBD37041F100015EEA430E08BF20EAE9
:100C3000D37070BDC4F1200500FA05F24EEA020E31
:100C400020FA04F301FA05F243EA020321FA04F060
:100C500001F0004121FA04F220EA020000EBD37017
:100C60005EEA430E08BF20EAD37070BD94F0000F17
:100C70000FD101F00046400041EB010111F4801F4B
:100C800008BF013CF7D041EA060195F0000F18BFFC
:100C9000704703F00046520043EB030313F4801F38
:100CA00008BF013DF7D043EA0603704794EA0C0FF2
:100CB0000CEA135518BF95EA0C0F0CD050EA410608
:100CC00018BF52EA4306D1D181EA030101F0004185
:100CD0004FF0000070BD50EA410606BF10461946AD
:100CE00052EA430619D094EA0C0F02D150EA0136B9
:100CF00013D195EA0C0F05D152EA03361CBF1046FA
:100D000019460AD181EA030101F0004141F0FE4198
:100D100041F470014FF0000070BD41F0FE4141F41C
:100D2000780170BD70B54FF0FF0C4CF4E06C1CEA1C
:100D300011541DBF1CEA135594EA0C0F95EA0C0FD1
:100D400000F0A7F8A4EB050481EA030E52EA03358C
:100D50004FEA013100F088804FEA03334FF08055AD
:100D600045EA131343EA12634FEA022245EA1115DA
:100D700045EA10654FEA00260EF000419D4208BF8B
:100D8000964244F1FD0404F5407402D25B084FEA38
:100D90003202B61A65EB03055B084FEA32024FF4E4
:100DA00080104FF4002CB6EB020E75EB030E22BF41
:100DB000B61A754640EA0C005B084FEA3202B6EB01
:100DC000020E75EB030E22BFB61A754640EA5C00B0
:100DD0005B084FEA3202B6EB020E75EB030E22BF40
:100DE000B61A754640EA9C005B084FEA3202B6EB41
:100DF000020E75EB030E22BFB61A754640EADC0000
:100E000055EA060E18D04FEA051545EA16754FEA61
:100E100006164FEAC30343EA52734FEAC2025FEA7F
:100E20001C1CC0D111F4801F0BD141EA00014FF00E
:100E300000004FF0004CB6E711F4801F04BF0143DF
:100E40000020B4F1FD0C88BFBCF5E06F3FF6AFAEFB
:100E5000B5EB030C04BFB6EB020C5FEA500C50F18B
:100E6000000041EB045170BD0EF0004E4EEA11310E
:100E700014EB5C04C2BFD4EB0C0541EA045170BD15
:100E800041F480114FF0000E013C90E645EA060E59
:100E90008DE60CEA135594EA0C0F08BF95EA0C0F87
:100EA0003FF43BAF94EA0C0F0AD150EA01347FF4CF
:100EB00034AF95EA0C0F7FF425AF104619462CE7A6
:100EC00095EA0C0F06D152EA03353FF4FDAE104609
:100ED000194622E750EA410618BF52EA43067FF45A
:100EE000C5AE50EA41047FF40DAF52EA43057FF4EA
:100EF000EBAE12E74FF0FF3C06E000BF4FF0010CF5
:100F000002E000BF4FF0010C4DF804CD4FEA410C58
:100F10007FEA6C5C4FEA430C18BF7FEA6C5C1BD025
:100F200001B050EA410C0CBF52EA430C91EA030FA6
:100F300002BF90EA020F0020704710F1000F91EA03
:100F4000030F58BF994208BF90422CBFD8176FEAD1
:100F5000E37040F0010070474FEA410C7FEA6C5C9F
:100F600002D150EA013C07D14FEA430C7FEA6C5CA6
:100F7000D6D152EA033CD3D05DF8040B704700BFD2
:100F80008446104662468C461946634600E000BF20
:100F900001B5FFF7B7FF002848BF10F1000F01BDF2
:100FA0004DF808EDFFF7F4FF0CBF012000205DF8BD
:100FB00008FB00BF4DF808EDFFF7EAFF34BF012042
:100FC00000205DF808FB00BF4DF808EDFFF7E0FFDB
:100FD00094BF012000205DF808FB00BF4DF808ED2C
:100FE000FFF7CEFF94BF012000205DF808FB00BF93
:100FF0004DF808EDFFF7C4FF34BF012000205DF875
:1010000008FB00BF4FEA410C7FEA6C5C02D150EA5A
:10101000013C0AD14FEA430C7FEA6C5C02D152EAF0
:10102000033C02D14FF0000070474FF001007047C1
:101030004FEA410212F5001215D211D56FF4787300
:10104000B3EB625212D94FEAC12343F0004343EAA3
:10105000505311F0004F23FA02F018BF404270477E
:101060004FF00000704750EA013005D111F0004008
:1010700008BF6FF0004070474FF00000704700BF9E
:101080004A0011D212F5001211D20DD56FF4787307
:10109000B3EB62520ED44FEAC12343F0004343EA5C
:1010A000505323FA02F070474FF00000704750EAA7
:1010B000013002D14FF0FF3070474FF00000704711
:1010C0004FEA4102B2F1E04324BFB3F5001CDCF16A
:1010D000FE5C0DD901F0004C4FEAC0024CEA5070A2
:1010E000B2F1004F40EB830008BF20F001007047D1
:1010F00011F0804F21D113F13872BCBF01F00040D4
:10110000704741F480114FEA5252C2F11802C2F105
:10111000200C10FA0CF320FA02F018BF40F0010086
:101120004FEAC1234FEAD32303FA0CFC40EA0C0038
:1011300023FA02F34FEA4303CCE77FEA625307D175
:1011400050EA01331EBF4FF0FE4040F440007047AC
:1011500001F0004040F0FE4040F40000704700BF46
:1011600080F0004002E000BF81F0004142001FBF5C
:101170005FEA410392EA030F7FEA226C7FEA236C65
:101180006AD04FEA1262D2EB1363C1BFD21841405A
:1011900048404140B8BF5B42192B88BF704710F0F0
:1011A000004F40F4000020F07F4018BF404211F093
:1011B000004F41F4000121F07F4118BF494292EAFB
:1011C000030F3FD0A2F1010241FA03FC10EB0C0027
:1011D000C3F1200301FA03F100F0004302D54942B4
:1011E00060EB4000B0F5000F13D3B0F1807F06D361
:1011F00040084FEA310102F10102FE2A51D2B1F159
:10120000004F40EBC25008BF20F0010040EA03004D
:101210007047490040EB0000013A28BFB0F5000FCD
:10122000EDD2B0FA80FCACF1080CB2EB0C0200FA83
:101230000CF0AABF00EBC25052421843BCBFD040D2
:101240001843704792F0000F81F4000106BF80F44C
:1012500000000132013BB5E74FEA41037FEA226C0F
:1012600018BF7FEA236C21D092EA030F04D092F0DA
:10127000000F08BF0846704790EA010F1CBF00200E
:10128000704712F07F4F04D1400028BF40F000406B
:10129000704712F100723CBF00F50000704700F08B
:1012A000004343F0FE4040F4000070477FEA2262B2
:1012B00016BF08467FEA23630146420206BF5FEA83
:1012C000412390EA010F40F4800070474FF0000383
:1012D00004E000BF10F0004348BF40425FEA000C4A
:1012E00008BF704743F0964301464FF000001CE0F2
:1012F00050EA010208BF70474FF000030AE000BF48
:1013000050EA010208BF704711F0004302D5404285
:1013100061EB41015FEA010C02BF844601460020F7
:1013200043F0B64308BFA3F18053A3F50003BCFA12
:101330008CF2083AA3EBC25310DB01FA02FC6344BF
:1013400000FA02FCC2F12002BCF1004F20FA02F2C6
:1013500043EB020008BF20F00100704702F12002B9
:1013600001FA02FCC2F1200250EA4C0021FA02F21A
:1013700043EB020008BF20EADC7070477BB972B90A
:101380000029BEBF00204FF0004106E008BF002842
:101390001CBF6FF000414FF0FF3000F02DB9ADF1F0
:1013A000080C6DE904CE002909DB002B1ADB6AF07A
:1013B000A1F8DDF804E0DDE9022304B07047404203
:1013C00061EB4101002B1BDB6AF094F8DDF804E0CF
:1013D000DDE9022304B0404261EB4101524263EB7C
:1013E00043037047524263EB43036AF083F8DDF82E
:1013F00004E0DDE9022304B0404261EB41017047A3
:10140000524263EB43036AF075F8DDF804E0DDE96E
:10141000022304B0524263EB4303704753B94AB905
:10142000002908BF00281CBF4FF0FF314FF0FF30EC
:1014300000F0E2B8ADF1080C6DE904CE6AF05AF89C
:10144000DDF804E0DDE9022304B0704700F1340167
:1014500091E838009C46A6464CF8045D90E8FF0FE2
:10146000E54600BD90EC210B704700BF80EC210BDE
:10147000704700BF90EC200B704700BF80EC200B42
:10148000704700BFD0EC200B704700BFC0EC200BB2
:10149000704700BFF0EC0201F0EC0211F0EC022109
:1014A000F0EC0231F0EC0241F0EC0251F0EC0261A0
:1014B000F0EC0271F0EC0281F0EC0291F0EC02A190
:1014C000F0EC02B1F0EC02C1F0EC02D1F0EC02E180
:1014D000F0EC02F1704700BFE0EC0201E0EC021119
:1014E000E0EC0221E0EC0231E0EC0241E0EC0251E0
:1014F000E0EC0261E0EC0271E0EC0281E0EC0291D0
:10150000E0EC02A1E0EC02B1E0EC02C1E0EC02D1BF
:10151000E0EC02E1E0EC02F1704700BFB0FC0181B9
:10152000B0FC0191B0FC01A1B0FC01B1704700BF5B
:10153000A0FC0181A0FC0191A0FC01A1A0FC01B1D3
:10154000704700BFEC4600B52DE900502DE9FF1FA4
:101550004FF000032DE90C0001A96AF07DFADDF8D7
:1015600040E012B0704700BFEC4600B52DE90050D6
:101570002DE9FF1F4FF000032DE90C0001A96AF0CF
:10158000A7FADDF840E012B0704700BFEC4600B5A6
:101590002DE900502DE9FF1F4FF000032DE90C004D
:1015A00001A96AF0B5FADDF840E012B0704700BF5B
:1015B000EC4600B52DE900502DE9FF1F4FF0000368
:1015C0002DE90C0001AB6AF07BFADDF840E012B0C7
:1015D000704700BFEC4600B52DE900502DE9FF1F14
:1015E0004FF000032DE90C0001AA6AF0F1FADDF8D2
:1015F00040E012B0704700BF704700BF0348044B83
:10160000834202D0034B03B118477047B80C002047
:10161000B80C0020000000000548064B1B1AD90F2B
:1016200001EBA301491002D0034B03B118477047E7
:10163000B80C0020B80C00200000000010B5064CCB
:10164000237843B9FFF7DAFF044B13B10448AFF333
:1016500000800123237010BDB80C002000000000A2
:1016600084C5060808B5054B1BB105490548AFF30D
:101670000080BDE80840FFF7CFBF00BF00000000BA
:10168000BC0C002084C5060880B58EB000AF334B7B
:10169000334A1A60314B4FF480325A602F4B00228C
:1016A0009A602E4B00221A612C4B00229A612B4B20
:1016B00000221A62294B0022DA62284B294A9A62D8
:1016C000264B0022DA60254B0122DA61234B0022EF
:1016D0001A63224B01225A6120481AF06BFF03461D
:1016E000002B03D05E21204800F084FC0623BB625F
:1016F0000123FB6200233B6307F1280319461748C7
:101700001BF08CF80346002B03D06821164800F02C
:1017100071FC06237B600123BB6001237B610023F6
:10172000FB604FF480137B624FF480333B620023F5
:10173000FB610023BB6100233B613B1D1946074849
:101740001BF000FB0346002B03D07821064800F075
:1017500051FC00BF3837BD4680BD00BFD40C00200F
:10176000002001400100000FA0C5060880B58EB022
:1017700000AF344B344A1A60324B4FF480325A6017
:10178000304B00229A602F4B00221A612D4B002211
:101790009A612C4B00221A622A4B4FF08052DA6277
:1017A000284B4FF060629A62264B0022DA60254B8C
:1017B0000122DA61234B00221A63224B01225A6173
:1017C00020481AF0F7FE0346002B03D092211F4851
:1017D00000F010FC0D23BB620123FB6200233B637E
:1017E00007F12803194617481BF018F80346002B89
:1017F00003D09C21154800F0FDFB0A237B600123E8
:10180000BB6001237B610023FB604FF480137B628C
:101810004FF480333B620023FB610023BB61002354
:101820003B613B1D194607481BF08CFA0346002B11
:1018300003D0AC21054800F0DDFB00BF3837BD46C2
:1018400080BD00BF1C0D002000210140A0C506087E
:1018500080B58EB000AF344B344A1A60324B4FF42F
:1018600080325A60304B00229A602F4B00221A615E
:101870002D4B00229A612C4B00221A622A4B4FF00A
:101880008052DA62284B4FF060629A62264B002247
:10189000DA60254B0122DA61234B00221A63224BC6
:1018A00001225A6120481AF085FE0346002B03D01E
:1018B000C6211F4800F09EFB0C23BB620123FB6284
:1018C00000233B6307F12803194617481AF0A6FFC7
:1018D0000346002B03D0D021154800F08BFB0B23CF
:1018E0007B600123BB6001237B610023FB604FF41D
:1018F00080137B624FF480333B620023FB61002343
:10190000BB6100233B613B1D194607481BF01AFAD7
:101910000346002B03D0E021054800F06BFB00BF1D
:101920003837BD4680BD00BF640D00200022014055
:10193000A0C5060880B58AB000AF78607B681B68D8
:10194000554A934259D100233B61544B5B6C534A37
:1019500043F480735364514B5B6C03F480733B61BD
:101960003B692F237B610323BB610023FB6107F1EC
:10197000140319464A481DF00FFB70237B610323B3
:10198000BB610023FB6107F11403194645481DF0B4
:1019900003FB454B454A1A60434B00225A60424BB9
:1019A00000229A60404B0022DA603F4B4FF4806285
:1019B0001A613D4B4FF400625A613B4B4FF40052A9
:1019C0009A61394B4FF48072DA61374B00221A6208
:1019D000354B00225A6234481CF0A6FB0346002B0C
:1019E00004D04FF48A71324800F004FB7B682E4A21
:1019F0009A632D4A7B6893634AE07B681B682D4A93
:101A0000934226D10023FB60244B5B6C234A43F4B2
:101A100000735364214B5B6C03F40073FB60FB6841
:101A20002F237B610323BB610023FB6107F11403B8
:101A300019461B481DF0B0FA70237B610323BB617C
:101A40000023FB6107F11403194616481DF0A4FAA0
:101A50001EE07B681B68184A934219D10023BB60C3
:101A60000E4B5B6C0D4A43F4806353640B4B5B6C11
:101A700003F48063BB60BB680F237B610323BB61FE
:101A80000023FB6107F11403194605481DF084FA91
:101A900000BF2837BD4680BD00200140003802400D
:101AA0000008024000000240AC0D0020106402401B
:101AB000A0C50608002101400022014080B588B081
:101AC00000AF78607B681B68224A93423ED10023B6
:101AD000BB60214B1B6C204A43F0007313641E4B08
:101AE0001B6C03F00073BB60BB684FF44073FB607A
:101AF00002233B6100237B610323BB610923FB615C
:101B000007F10C03194615481DF046FA0022092179
:101B100013201CF0A8FA13201CF0C1FA002209219E
:101B200014201CF0A0FA14201CF0B9FA002209219C
:101B300015201CF098FA15201CF0B1FA002209219A
:101B400016201CF090FA16201CF0A9FA00BF2037CE
:101B5000BD4680BD006400400038024000040240E1
:101B600080B582B000AF00237B60274B1B6B264AF9
:101B700043F400131363244B1B6B03F400137B60CB
:101B80007B6800233B60204B1B6B1F4A43F48003A0
:101B900013631D4B1B6B03F480033B603B68002207
:101BA00004210B201CF05FFA0B201CF078FA0022B5
:101BB0000A210D201CF057FA0D201CF070FA0022AB
:101BC0000A210F201CF04FFA0F201CF068FA0022A7
:101BD0000A2110201CF047FA10201CF060FA0022A5
:101BE0000A2111201CF03FFA11201CF058FA0022A3
:101BF00003212F201CF037FA2F201CF050FA00BFD1
:101C00000837BD4680BD00BF0038024080B58AB0AD
:101C100000AF00233B61454B1B6B444A43F0040378
:101C20001363424B1B6B03F004033B613B690023CE
:101C3000FB603E4B1B6B3D4A43F0800313633B4B01
:101C40001B6B03F08003FB60FB680023BB60374B1A
:101C50001B6B364A43F001031363344B1B6B03F0D9
:101C60000103BB60BB6800237B60304B1B6B2F4ABA
:101C700043F0020313632D4B1B6B03F002037B60E5
:101C80007B6800233B60294B1B6B284A43F0080309
:101C90001363264B1B6B03F008033B603B68012278
:101CA0004FF4C04122481DF00FFC00224FF4805138
:101CB00020481DF009FC4FF4C0437B610123BB6148
:101CC0000023FB6100233B6207F114031946184807
:101CD0001DF062F948F210237B610023BB610023F1
:101CE000FB6107F11403194611481DF055F94FF433
:101CF00080537B610123BB610023FB6100233B62B6
:101D000007F1140319460B481DF046F904237B61C3
:101D10000023BB610123FB6107F114031946064848
:101D20001DF03AF900BF2837BD4680BD003802409B
:101D30000008024000040240000C024080B582B05E
:101D400000AF0346FB71154B154A1A60134B154A39
:101D50005A60124B00229A60FB795B000F4AD360F5
:101D60000E4B4FF480421A610C4B00225A610B4B10
:101D700000229A61094B0022DA61084B00221A62A4
:101D800006481DF0BBFB0346002B03D04F2106483D
:101D900000F030F900BF0837BD4680BD100E0020AE
:101DA00000540040A0860100D8C5060880B584B064
:101DB00000AF78607B681B68424A93427ED1002363
:101DC000FB60414B1B6C404A43F4001313643E4BD1
:101DD0001B6C03F40013FB60FB683C4B3C4A1A602D
:101DE0003A4B4FF000725A60384B00229A60374BE2
:101DF0000022DA60354B4FF480621A61334B0022C7
:101E00005A61324B00229A61304B4FF48072DA6192
:101E10002E4B00221A622D4B00225A622B481CF0D6
:101E200083F90346002B03D06E212A4800F0E2F824
:101E30007B68264A9A63254A7B689363264B274A28
:101E40001A60254B4FF000725A60234B40229A6073
:101E5000214B0022DA60204B4FF480621A611E4B46
:101E600000225A611C4B00229A611B4B0022DA614E
:101E7000194B00221A62184B00225A6216481CF0B5
:101E800053F90346002B03D08021124800F0B2F82A
:101E90007B68114A5A63104A7B68936300220921C8
:101EA0001F201CF0E0F81F201CF0F9F80022092187
:101EB00020201CF0D8F820201CF0F1F800BF1037CB
:101EC000BD4680BD0054004000380240640E002032
:101ED00010600240D8C50608C40E0020A060024071
:101EE00080B594B000AF0023BB60354B1B6C344A07
:101EF00043F080531364324B1B6C03F08053BB6080
:101F0000BB6800237B602F4B1B682E4A43F4804341
:101F100013602C4B1B6803F480437B607B680923B0
:101F20003B624FF480337B6201237B630223BB63FC
:101F30004FF48003FB6304233B64A8237B640223E8
:101F4000BB640723FB6407F1200318461FF07AFEE9
:101F50000346002B03D0B9211B4800F04BF80F2398
:101F6000FB6002233B6100237B614FF4A053BB6104
:101F70004FF48053FB6107F10C030521184620F054
:101F80009FF80346002B03D0C7210F4800F032F81A
:101F900020F07EFA03460D4AA2FB03239B09184654
:101FA0001CF099F804201CF0A3F800220F214FF038
:101FB000FF301CF058F800BF5037BD4680BD00BF51
:101FC000003802400070004010C60608D34D621071
:101FD00080B582B000AF78607B681B68044A93428A
:101FE00001D11AF0A3FA00BF0837BD4680BD00BF7B
:101FF0000020004080B483B000AF78603960FEE715
:1020000080B500AF194B1A4A1A60184B4FF4827210
:102010005A60164B00229A60144B4FF40062DA604B
:10202000124B00221A61114B01225A610F4B4FF4DF
:1020300000729A610D4B1822DA610C4B00221A6271
:102040000A4B00225A62094B00229A62074B0A226D
:10205000DA62064820F082FA0346002B03D05221B0
:102060000448FFF7C7FF00BF80BD00BF240F00205A
:10207000003C004048C6060880B588B000AF7860D4
:102080007B681B68554A934240F0A4800023BB60E4
:10209000534B1B6C524A43F400431364504B1B6C6C
:1020A00003F40043BB60BB684FF4A053FB60022302
:1020B0003B6102237B610123BB610623FB6107F1C6
:1020C0000C03194647481CF067FF4FF40063FB60A0
:1020D00001237B6107F10C03194642481CF05CFFA9
:1020E000414B424A1A60404B00225A603E4B40220C
:1020F0009A603D4B0022DA603B4B4FF480621A61DC
:102100007B68DB68002B06D1374B00225A61364BC7
:1021100000229A6107E0344B4FF400625A61324B5F
:102120004FF400529A61304B0022DA612E4B4FF48B
:1021300000321A622C4B00225A622B481BF0F4FF2B
:102140000346002B03D089212948FFF753FF7B6802
:10215000254A9A64244A7B689363264B264A1A6070
:10216000244B00225A60234B00229A60214B00220C
:10217000DA60204B4FF480621A617B68DB68002BC9
:1021800006D11C4B00225A611A4B00229A6107E0CB
:10219000184B4FF400625A61164B4FF400529A618B
:1021A000144B0022DA61134B4FF480321A62114B48
:1021B00000225A620F481BF0B7FF0346002B03D0E2
:1021C000A0210B48FFF716FF7B680A4ADA64094A28
:1021D0007B68936300BF2037BD4680BD003C004054
:1021E00000380240000802407C0F0020B860024026
:1021F00048C60608DC0F00201060024080B582B09F
:1022000000AF78607B681B680F4A934217D10F4B71
:102210001B6C0E4A23F4004313644FF4E0510C4846
:102220001DF056F87B689B6C18461CF02BF87B68F9
:10223000DB6C18461CF026F833201BF03EFF00BF75
:102240000837BD4680BD00BF003C0040003802405A
:102250000008024080B582B000AF00237B60254BB0
:102260005B6C244A43F480435364224B5B6C03F45D
:1022700080437B607B6800233B601E4B1B6C1D4AC8
:1022800043F0805313641B4B1B6C03F080533B6083
:102290003B6803201BF0DCFE002200216FF00B00E6
:1022A0001BF0E1FE002200216FF00A001BF0DBFEB4
:1022B000002200216FF009001BF0D5FE002203214F
:1022C0006FF004001BF0CFFE002200216FF003002E
:1022D0001BF0C9FE00220F216FF001001BF0C3FEAE
:1022E00000220F214FF0FF301BF0BDFE00BF08376A
:1022F000BD4680BD0038024080B58CB000AF78602C
:102300000023FB620023BB62002279682D201BF0B2
:10231000AAFE2D201BF0C3FE0023FB601F4B1B6C8D
:102320001E4A43F4807313641C4B1B6C03F48073CC
:10233000FB60FB6807F1100207F114031146184611
:1023400020F0DAF820F0B0F803465B00FB62FB6A8D
:10235000134AA2FB03239B0C013BBB62114B124AA5
:102360001A60104B40F2E732DA600E4ABB6A5360E3
:102370000C4B00221A610B4B00229A60094820F096
:1023800064FE0346002B04D1064820F089FE034674
:1023900000E0012318463037BD4680BD00380240BA
:1023A00083DE1B433C1000200020004080B400AFBF
:1023B00000BFBD465DF8047B7047000080B491B05B
:1023C00000AF7860264B5B6C254A23F4404353648E
:1023D000244B5B6C234A23F4404353647B681B68A3
:1023E000FB637B685B68BB637B689B687B637B6824
:1023F000DB683B637B681B69FB627B685B69BB6274
:102400007B689B697B627B68DB693B62164B9B6ADE
:10241000FB61154BD3F88830BB61144B5B687B6163
:10242000FB6903F40073002B14BF01230023DBB20C
:10243000FB74FB6903F48073002B14BF012300239A
:10244000DBB2BB740123FB6000BFFB68002BFCD137
:1024500000BF00BF4437BD465DF8047B704700BF36
:10246000000001400004014000ED00E030EF00E01A
:102470001EF0040F0CBFEFF30880EFF30980FFF7A5
:102480009DBF00BF80B400AF064B5B6C054A23F4D0
:1024900040435364044B5B6C034A23F4404353644E
:1024A000F2E700BF000001400004014080B400AF2B
:1024B000064B5B6C054A23F440435364044B5B6C4E
:1024C000034A23F440435364F2E700BF0000014095
:1024D0000004014080B400AF064B5B6C054A23F456
:1024E00040435364044B5B6C034A23F440435364FE
:1024F000F2E700BF000001400004014080B400AFDB
:1025000000BFBD465DF8047B704780B500AF17F093
:10251000F3F900BF80BD000080B500AF02481BF09A
:10252000EFFF00BF80BD00BFDC0F002080B500AF13
:1025300002481BF0E5FF00BF80BD00BF9C120020D9
:1025400080B500AF02481BF0DBFF00BF80BD00BFBD
:10255000FC12002080B500AF02481BF0D1FF00BF85
:1025600080BD00BF5C13002080B500AF02481BF0A7
:10257000C7FF00BF80BD00BFBC13002080B500AF07
:1025800002481BF0BDFF00BF80BD00BF7C0F0020D4
:1025900080B500AF02481BF07FFA00BF80BD00BFCE
:1025A0001402002080B500AF02481BF075FA00BF8E
:1025B00080BD00BF1402002080B500AF02481BF0B0
:1025C0006BFA00BF80BD00BF1402002080B500AFD1
:1025D00002481BF061FA00BF80BD00BF140200205A
:1025E00080B500AF024822F0E3F900BF80BD00BF14
:1025F0005C12002080B500AF034820F05BFF034869
:1026000020F058FF00BF80BDA41100203C10002026
:1026100080B500AF024820F063FA00BF80BD00BF64
:10262000240F002080B500AF024822F0C1F900BF9E
:1026300080BD00BF1C12002080B400AF164BD3F841
:102640008830154A43F47003C2F88830134B1B6876
:10265000124A43F001031360104B00229A600F4BA3
:102660001B680E4A23F0847323F4803313600B4BF2
:102670000B4A5A60094B1B68084A23F480231360F5
:10268000064B0022DA60044B4FF000629A6000BFF4
:10269000BD465DF8047B704700ED00E00038024065
:1026A0001030002480B594B000AF5F4B5F4A1A60D1
:1026B0005D4B00225A605C4B60229A605A4B40F698
:1026C000AC52DA60584B00221A61574B02225A6111
:1026D000554820F0BAFC0346002B03D05321544840
:1026E000FFF788FC4FF480533B6407F14003194621
:1026F0004D4821F0A9F90346002B03D059214C483D
:10270000FFF778FC484820F01BFD0346002B03D060
:102710005E214748FFF76EFC434820F0DCFC03468F
:10272000002B03D063214248FFF764FC2023BB63E6
:102730000023FB6307F1380319463B4821F011FFE2
:102740000346002B03D06A213948FFF753FC70235E
:10275000FB6100233B6200237B620023BB620023FA
:10276000FB6200233B6300237B6307F11C03002211
:1027700019462D4821F0A2F80346002B03D07621FC
:102780002B48FFF737FC07F11C03042219462648A3
:1027900021F094F80346002B03D07B212448FFF757
:1027A00029FC07F11C03082219461F4821F086F86E
:1027B0000346002B03D080211D48FFF71BFC00239C
:1027C000FB6107F11C030C221946174820F07AFF21
:1027D0000346002B03D086211548FFF70BFC4FF46E
:1027E00000633B604FF480637B600023BB60142375
:1027F000FB6000233B614FF400537B610023BB610E
:102800003B461946084821F0F1FE0346002B03D051
:1028100092210748FFF7EEFB034800F0F3FA00BFF0
:102820005037BD4680BD00BF781000200000014039
:1028300080C6060880B58AB000AF2D4B4FF08042AD
:102840001A602B4B00225A60294B60229A60284B59
:102850004FF48052DA60264B00221A61244820F09F
:102860006FFC0346002B03D0A5212248FFF7C2FBD3
:1028700000233B6200237B6207F1200319461C48BA
:1028800021F06FFE0346002B03D0AC211948FFF75F
:10289000B1FB70237B600023BB600223FB6000233D
:1028A0007B613B1D08221946114821F007F80346B9
:1028B000002B03D0B5210F48FFF79CFB41F2010329
:1028C000BB600023FB603B1D0C221946084820F02A
:1028D000F5FF0346002B03D0BC210648FFF78AFB17
:1028E000034800F08FFA00BF2837BD4680BD00BF07
:1028F000B410002080C6060880B58CB000AF214B14
:10290000214A1A601F4B00225A601E4B00229A6017
:102910001C4B4FF6FF72DA601A4B00221A61032338
:10292000FB6000233B6101237B610023BB61042327
:10293000FB6100233B6201237B620023BB62042313
:10294000FB6207F10C0319460E4820F0E5FC034634
:10295000002B03D0D8210D48FFF74CFB00237B60F0
:102960000023BB603B1D1946064821F0FAFD0346D3
:10297000002B03D0DF210548FFF73CFB00BF3037B9
:10298000BD4680BDF01000200004004080C606084F
:1029900080B58CB000AF224B224A1A60204B002237
:1029A0005A601F4B00229A601D4B4FF6FF72DA608F
:1029B0001B4B00221A610323FB6000233B610123B0
:1029C0007B610023BB610423FB6100233B62012385
:1029D0007B620023BB620423FB6207F10C031946F0
:1029E0000F4820F099FC0346002B03D0F9210E4834
:1029F000FFF700FB00237B600023BB603B1D1946F3
:102A0000074821F0AEFD0346002B04D04FF480713F
:102A10000548FFF7EFFA00BF3037BD4680BD00BF65
:102A20002C1100200008004080C6060880B586B042
:102A300000AF2A4B2A4A1A60284B00225A60274BC3
:102A400000229A60254B4FF0FF32DA60234B0022C0
:102A50001A61224820F0D4FB0346002B04D040F238
:102A600011112048FFF7C6FA00233B6100237B6168
:102A700007F110031946194821F073FD0346002B96
:102A800004D04FF48C711748FFF7B4FA0A233B6067
:102A900001237B600023BB600F23FB603B460822C1
:102AA00019460E4820F06EFE0346002B04D040F27B
:102AB00021110C48FFF79EFA3B460C2219460748A5
:102AC00020F060FE0346002B04D04FF493710548BC
:102AD000FFF790FA00BF1837BD4680BD681100208F
:102AE000000C004080C6060880B590B000AF484B8F
:102AF000484A1A60464B00225A60454B60229A6051
:102B0000434B40F6AC52DA60414B00221A61404B15
:102B100002225A613E4820F013FB0346002B04D0EA
:102B200040F239113C48FFF765FA2023BB630023CC
:102B3000FB6307F138031946354821F012FD0346BF
:102B4000002B04D04FF4A0713348FFF753FA7023E1
:102B5000FB6100233B6200237B620023BB620023F6
:102B6000FB6200233B6300237B6307F11C0300220D
:102B70001946274820F0A2FE0346002B04D04FF44C
:102B8000A6712548FFF736FA07F11C0304221946FF
:102B90001F4820F093FE0346002B04D040F2511151
:102BA0001D48FFF727FA07F11C03082219461848A9
:102BB00020F084FE0346002B04D04FF4AB7116487E
:102BC000FFF718FA4FF400633B604FF480637B60BB
:102BD0000023BB601423FB6000233B614FF40053D0
:102BE0007B610023BB613B461946094821F0FEFC8E
:102BF0000346002B04D04FF4B1710748FFF7FAF9F0
:102C0000034800F0FFF800BF4037BD4680BD00BF5D
:102C1000A41100200004014080C6060880B500AF62
:102C20000E4B0F4A1A600D4B00225A600B4B0022CC
:102C30009A600A4B42F60312DA60084B00221A61CE
:102C4000064820F002FA0346002B04D040F273112C
:102C50000448FFF7CFF900BF80BD00BFE01100209E
:102C6000001C004080C6060880B485B000AF7860C4
:102C70007B681B68154A93420ED10023FB60144BFE
:102C80005B6C134A43F001035364114B5B6C03F01C
:102C90000103FB60FB6812E07B681B680D4A9342EE
:102CA0000DD10023BB600A4B1B6C094A43F0800323
:102CB0001364074B1B6C03F08003BB60BB6800BF51
:102CC0001437BD465DF8047B704700BF000001402B
:102CD00000380240001C004080B485B000AF78602E
:102CE0007B681B68B3F1804F0ED10023FB60134B50
:102CF0001B6C124A43F001031364104B1B6C03F06E
:102D00000103FB60FB6812E07B681B680C4A93427E
:102D10000DD10023BB60094B5B6C084A43F00203F2
:102D20005364064B5B6C03F00203BB60BB6800BFDF
:102D30001437BD465DF8047B704700BF0038024081
:102D40000004014080B485B000AF78607B681B68E8
:102D5000154A93420ED10023FB60144B1B6C134A9F
:102D600043F002031364114B1B6C03F00203FB607E
:102D7000FB6812E07B681B680D4A93420DD100236B
:102D8000BB600A4B1B6C094A43F004031364074BF6
:102D90001B6C03F00403BB60BB6800BF1437BD4667
:102DA0005DF8047B704700BF00040040003802401B
:102DB0000008004080B584B000AF78607B681B6875
:102DC0000E4A934215D10023FB600D4B1B6C0C4A3D
:102DD00043F0080313640A4B1B6C03F00803FB6009
:102DE000FB680022012132201BF03DF932201BF04C
:102DF00056F900BF1037BD4680BD00BF000C004033
:102E00000038024080B588B000AF78607B681B68EE
:102E10003B4A934222D14FF46043FB6002233B6163
:102E200000237B610023BB610123FB6107F10C03DD
:102E3000194634481CF0B0F84FF4E063FB600223FD
:102E40003B6100237B610023BB610123FB6107F130
:102E50000C0319462C481CF09FF84CE07B681B685B
:102E6000B3F1804F11D14FF44063FB6002233B610B
:102E700000237B610023BB610123FB6107F10C038D
:102E8000194620481CF088F835E07B681B681F4A0B
:102E9000934230D18023FB6002233B6100237B619E
:102EA0000023BB610323FB6107F10C03194616489D
:102EB0001CF072F80323FB6002233B6100237B615B
:102EC0000023BB610323FB6107F10C0319460D4886
:102ED0001CF062F84FF4E073FB6002233B610023B7
:102EE0007B610023BB610323FB6107F10C031946DF
:102EF00007481CF051F800BF2037BD4680BD00BF19
:102F000000000140000402400000024000040140B3
:102F10000008024080B500AF104B114A1A600F4BF9
:102F200000229A600D4B0022DA600C4B00221A61DD
:102F30000A4B0C225A61094B00229A61074B00226E
:102F4000DA61064821F0BFFB0346002B03D0512174
:102F50000448FFF74FF800BF80BD00BF1C120020DF
:102F6000004C0040B8C6060880B500AF104B114AAF
:102F70001A600F4B00229A600D4B0022DA600C4B56
:102F800000221A610A4B0C225A61094B00229A61F5
:102F9000074B0022DA61064821F095FB0346002B1F
:102FA00003D064210448FFF725F800BF80BD00BFAF
:102FB0005C12002000440040B8C6060880B584B00A
:102FC00000AF78607B681B687D4A934277D100230D
:102FD000FB607C4B1B6C7B4A43F400231364794BEE
:102FE0001B6C03F40023FB60FB68774B774A1A6085
:102FF000754B4FF000625A60734B00229A60724B1F
:103000000022DA60704B4FF480621A616E4B00222E
:103010005A616D4B00229A616B4B4FF48072DA61FA
:10302000694B00221A62684B00225A6266481BF004
:103030007BF80346002B03D082216548FEF7DAFFB8
:103040007B68614A5A63604A7B689363614B624A5A
:103050001A60604B4FF000625A605E4B40229A60EB
:103060005C4B0022DA605B4B4FF480621A61594B73
:1030700000225A61574B00229A61564B0022DA61B6
:10308000544B00221A62534B00225A6251481BF0E3
:103090004BF80346002B03D094214D48FEF7AAFFBE
:1030A0007B684C4A1A634B4A7B68936300220A216F
:1030B00034201AF0D8FF34201AF0F1FF7BE07B684F
:1030C0001B68464A934276D10023BB603D4B1B6C84
:1030D0003C4A43F4003313643A4B1B6C03F4003353
:1030E000BB60BB683E4B3F4A1A603D4B4FF00062ED
:1030F0005A603B4B00229A60394B0022DA60384B11
:103100004FF480621A61364B00225A61344B002220
:103110009A61334B4FF48072DA61314B00221A62AC
:103120002F4B00225A622E481AF0FEFF0346002B56
:1031300003D0B6212648FEF75DFF7B68284A5A6314
:10314000274A7B689363284B284A1A60264B4FF026
:1031500000625A60244B40229A60234B0022DA60BE
:10316000214B4FF480621A611F4B00225A611E4BA3
:1031700000229A611C4B0022DA611B4B00221A626A
:10318000194B00225A6218481AF0CEFF0346002B52
:1031900003D0C8210E48FEF72DFF7B68124A1A6340
:1031A000114A7B68936300220A2126201AF05BFFF4
:1031B00026201AF074FF00BF1037BD4680BD00BF47
:1031C000004C0040003802409C1200204060024049
:1031D000B8C60608FC12002070600240004400409F
:1031E0005C13002088600240BC130020A0600240F5
:1031F00080B500AF00220849084823F099FE08492D
:10320000064823F0CBFE0749044823F08BFD034812
:1032100023F0E5FE00BF80BD680200201C140020E2
:103220006C0400204002002080B500AF044B1B68F6
:1032300000220121184616F0ABFA0023184680BD83
:10324000405F002080B500AF044B1B6800220221C4
:10325000184616F09DFA0023184680BD405F0020F6
:1032600080B483B000AF03463960FB711346BB8066
:10327000FB79232B66D801A252F823F045330008CE
:10328000453300084533000845330008453300083E
:10329000453300084533000845330008453300082E
:1032A000453300084533000845330008453300081E
:1032B000453300084533000845330008453300080E
:1032C00045330008453300084533000845330008FE
:1032D00045330008453300084533000845330008EE
:1032E00045330008453300084533000845330008DE
:1032F00045330008453300084533000845330008CE
:103300000D33000845330008453300083B680022B0
:103310001A703B680133C2221A703B6802330122E3
:103320001A703B68033300221A703B680433002292
:103330001A703B68053300221A703B680633082276
:103340001A7000E000BF002318460C37BD465DF838
:10335000047B704780B584B000AFF860B960134655
:10336000FB71BB681B68FA791946F86854F07EFA5D
:10337000002318461037BD4680BD000080B586B0DA
:1033800000AF78600B467B8013467B700023FB7494
:103390007B88402B01D9032323E0144BD3F8BC32A4
:1033A000FB607B78812B03D1FB6844337B6108E0B1
:1033B0007B78832B03D1FB685C337B6101E00323C3
:1033C0000FE07B691B7ADBB2002B01D0012308E000
:1033D0007A887B787968054823F0B9FC0346FB744A
:1033E000FB7C18461837BD4680BD00BF1C1400206A
:1033F00080B588B000AF78607B681B68B3F1A04FE0
:103400002CD14FF4C053FB6002233B6100237B614E
:103410000323BB610A23FB6107F10C031946114822
:103420001BF0BAFD104B5B6B0F4A43F080035363F4
:103430000023BB600C4B5B6C0B4A43F4804353642A
:10344000094B5B6C03F48043BB60BB680022062120
:1034500043201AF008FE43201AF021FE00BF203757
:10346000BD4680BD000002400038024080B586B0F5
:1034700000AF78600023FB757B68D3F8EC333B61C9
:103480003B6903F2AA23FB607B6803F56F7319465F
:10349000F86824F048FDFB681B7803F06003402BBC
:1034A00022D1FB685B78502B1ED13B690122C3F807
:1034B00094223B69B3F8B0321A463B69C3F89822AC
:1034C0003B69D3F8B8329B68F96838699847034676
:1034D000FB75FB68DB88002B11D1FB7D002B0ED127
:1034E000386924F025FE0AE07B68D3F8EC237B687A
:1034F00003F56F731946104623F0BCFD00E000BFD2
:103500001837BD4680BD80B582B000AF78600B46ED
:10351000FB707B68D3F8EC03FA7879681346DB001C
:103520009B1A9B000B4403F501731A68FB7819463C
:1035300023F0F5FD00BF0837BD4680BD80B582B0E1
:1035400000AF78600B46FB707B68D3F8EC03FA7829
:1035500079681346DB009B1A9B000B4444331A68BE
:10356000FB78194623F03EFE00BF0837BD4680BDFC
:1035700080B582B000AF78607B68D3F8EC33184632
:1035800023F042FF00BF0837BD4680BD80B584B040
:1035900000AF78600123FB737B68DB68002B02D0EF
:1035A000022B03D005E00023FB7305E00123FB732E
:1035B00002E00123FB7300BF7B68D3F8EC33FA7B96
:1035C0001146184623F0E5FE7B68D3F8EC33184625
:1035D00023F09EFE00BF1037BD4680BD80B582B08F
:1035E00000AF78607B68D3F8EC33184623F0E1FE37
:1035F0007B681B6803F560631B687A68126802F5D4
:10360000606243F0010313607B681B6A002B05D0E6
:10361000044B1B69034A43F00603136100BF0837DC
:10362000BD4680BD00ED00E080B582B000AF78609F
:103630007B68D3F8EC33184623F0D0FE00BF083780
:10364000BD4680BD80B582B000AF78600B46FB7090
:103650007B68D3F8EC33FA781146184623F0FBFE6A
:1036600000BF0837BD4680BD80B582B000AF78602E
:103670000B46FB707B68D3F8EC33FA78114618469A
:1036800023F0DCFE00BF0837BD4680BD80B582B0A8
:1036900000AF78607B68D3F8EC33184623F0E8FE7F
:1036A00000BF0837BD4680BD80B582B000AF7860EE
:1036B0007B68D3F8EC33184623F0E5FE00BF0837EB
:1036C000BD4680BD80B582B000AF78607B681B7856
:1036D000002B47D1264A7B68C2F8EC337B68244A2A
:1036E000C3F8C422224B4FF0A0421A60204B06229E
:1036F0005A601F4B0222DA601D4B00221A611C4BDC
:1037000000225A611A4B02229A61194B0022DA6197
:10371000174B00221A62164B00225A62144B0022E9
:10372000DA62134B00221A6311481DF0DDF90346DB
:10373000002B04D040F259110E48FEF75BFC8021AB
:103740000B481EF06EFA4022002109481EF01EFAB6
:103750004022012106481EF019FA402203210448A4
:103760001EF014FA002318460837BD4680BD00BF7E
:10377000EC160020F4C6060880B584B000AF78606F
:103780000023BB730023FB737B68D3F8C432184655
:103790001DF0B1FA0346BB73BB7B032B16D801A205
:1037A00052F823F0B5370008BB370008C1370008CE
:1037B000C73700080023FB730BE00323FB7308E00B
:1037C0000123FB7305E00323FB7302E00323FB7378
:1037D00000BFFB7B18461037BD4680BD80B584B066
:1037E00000AF7860084611461A460346FB700B4648
:1037F000BB7013463B800023BB730023FB737B68C5
:10380000D3F8C402BB783A88F9781DF03AFF034632
:10381000BB73BB7B032B17D801A252F823F000BF68
:1038200031380008373800083D38000843380008B0
:103830000023FB730BE00323FB7308E00123FB73FE
:1038400005E00323FB7302E00323FB7300BFFB7B54
:1038500018461037BD4680BD80B584B000AF786093
:103860000B46FB700023BB730023FB737B68D3F80C
:10387000C432FA78114618461DF06BFF0346BB733D
:10388000BB7B032B16D801A252F823F09D38000809
:10389000A3380008A9380008AF3800080023FB73DC
:1038A0000BE00323FB7308E00123FB7305E0032314
:1038B000FB7302E00323FB7300BFFB7B184610374A
:1038C000BD4680BD80B584B000AF78600B46FB700C
:1038D0000023BB730023FB737B68D3F8C432FA78F0
:1038E000114618461EF02BF80346BB73BB7B032B17
:1038F00016D801A252F823F0093900080F39000840
:10390000153900081B3900080023FB730BE0032363
:10391000FB7308E00123FB7305E00323FB7302E064
:103920000323FB7300BFFB7B18461037BD4680BDE9
:1039300080B584B000AF78600B46FB700023BB738A
:103940000023FB737B68D3F8C432FA78114618461B
:103950001EF050F80346BB73BB7B032B16D801A2A5
:1039600052F823F0753900087B39000881390008C6
:10397000873900080023FB730BE00323FB7308E087
:103980000123FB7305E00323FB7302E00323FB73B6
:1039900000BFFB7B18461037BD4680BD80B485B0A4
:1039A00000AF78600B46FB707B68D3F8C432FB60D5
:1039B00097F90330002B0BDAFB7803F07F02F968EC
:1039C0001346DB009B1A9B000B443A331B780BE039
:1039D000FB7803F07F02F9681346DB009B1A9B001B
:1039E0000B4403F5FD731B7818461437BD465DF88C
:1039F000047B704780B584B000AF78600B46FB70E5
:103A00000023BB730023FB737B68D3F8C432FA78BE
:103A1000114618461DF014FE0346BB73BB7B032BF7
:103A200016D801A252F823F0393A00083F3A0008AC
:103A3000453A00084B3A00080023FB730BE00323D0
:103A4000FB7308E00123FB7305E00323FB7302E033
:103A50000323FB7300BFFB7B18461037BD4680BDB8
:103A600080B586B000AFF8607A603B600B46FB72B1
:103A70000023BB750023FB75FB68D3F8C402F97AF9
:103A80003B687A681DF012FF0346BB75BB7D032BB4
:103A900016D801A252F823F0A93A0008AF3A00085C
:103AA000B53A0008BB3A00080023FB750BE003237E
:103AB000FB7508E00123FB7505E00323FB7502E0BD
:103AC0000323FB7500BFFB7D18461837BD4680BD3C
:103AD00080B586B000AFF8607A603B600B46FB7241
:103AE0000023BB750023FB75FB68D3F8C402F97A89
:103AF0003B687A681DF077FE0346BB75BB7D032BE0
:103B000016D801A252F823F0193B00081F3B000809
:103B1000253B00082B3B00080023FB750BE003232B
:103B2000FB7508E00123FB7505E00323FB7502E04C
:103B30000323FB7500BFFB7D18461837BD4680BDCB
:103B400080B582B000AF78600B46FB707B68D3F81D
:103B5000C432FA78114618461DF08FFE0346184607
:103B60000837BD4680BD000080B584B000AFF86066
:103B70000B467A60FB727B6800221A80FB7AEE2B80
:103B800004D17B6812221A80084B0AE0FB7A062BCC
:103B900006D17A680649074824F010FA044B00E081
:103BA000002318461037BD4680BD00BF54020020D8
:103BB000DC1A002034C7060880B483B000AF034687
:103BC0003960FB713B6812221A80034B18460C3790
:103BD000BD465DF8047B70478402002080B483B04A
:103BE00000AF03463960FB713B6804221A80034B27
:103BF00018460C37BD465DF8047B704798020020DC
:103C000080B582B000AF03463960FB71FB79002BB1
:103C100005D13A680749084824F0D0F904E03A6829
:103C20000449054824F0CAF9024B18460837BD4636
:103C300080BD00BFDC1A002050C7060880B582B0E6
:103C400000AF03463960FB713A680449044824F028
:103C5000B5F9024B18460837BD4680BDDC1A002076
:103C60006CC7060880B582B000AF03463960FB71AF
:103C70003A680449044824F0A1F9024B1846083771
:103C8000BD4680BDDC1A002060A9002080B582B04E
:103C900000AF03463960FB71FB79002B05D13A6810
:103CA0000749084824F08AF904E03A6804490548BD
:103CB00024F084F9024B18460837BD4680BD00BF8A
:103CC000DC1A00207CC7060880B582B000AF03462E
:103CD0003960FB71FB79002B05D13A680749084828
:103CE00024F06CF904E03A680449054824F066F9C8
:103CF000024B18460837BD4680BD00BFDC1A0020C5
:103D000088C7060880B400AF00231846BD465DF89A
:103D1000047B704780B483B000AFEFF310833B6047
:103D20003B687B6072B600BF7B6818460C37BD46A7
:103D30005DF8047B704700BF80B485B000AF786049
:103D40007B68FB60FB6883F3108800BF00BF1437FB
:103D5000BD465DF8047B704780B483B000AF7860E7
:103D6000012318460C37BD465DF8047B704700BF41
:103D700080B582B000AF7860FFF7CCFF02467B6869
:103D80001A607B6800221A717B6818460837BD46A6
:103D900080BD00BF80B582B000AF78607B681B68D3
:103DA0001846FFF7C9FF7B6818460837BD4680BD37
:103DB00080B483B000AF78607B6800221A607B68B3
:103DC00000229A807B6818460C37BD465DF8047B5C
:103DD000704700BF80B485B000AFF860B96013468B
:103DE000FB80FB68BA681A60FB68FA889A80FB68F7
:103DF00018461437BD465DF8047B704780B582B025
:103E000000AF78600B46FB707B681B68002B0CD002
:103E10007B6818687B689988FB78002B01D00123A8
:103E200000E000231A461BF04FFB00BF0837BD46D9
:103E300080BD00BF80B483B000AF78607B681B6832
:103E4000002B09D07B681B681B697A689288134035
:103E5000002B01D0012300E0002318460C37BD469B
:103E60005DF8047B704700BF80B483B000AF78601A
:103E700039607B683A681A607B6800225A607B6808
:103E800018460C37BD465DF8047B704780B483B09C
:103E900000AF7860044A7B681A607B6818460C376C
:103EA000BD465DF8047B7047D4CC060880B483B06F
:103EB00000AF7860044A7B681A607B6818460C374C
:103EC000BD465DF8047B7047C0CC060880B584B061
:103ED00000AFF860B960394681E80C00FB6818460D
:103EE000FFF7D4FFFB6804331846FFF7DFFF144ADF
:103EF000FB681A60134AFB685A60FB68BA689A60EC
:103F0000FB680C333A4692E8030083E80300FB6841
:103F1000143307F1180292E8030083E80300FB68FA
:103F20001C3307F1200292E8030083E80300FB68DA
:103F3000002283F82C20FB6818461037BD4680BD50
:103F4000B4CE0608CCCE060880B485B000AFF860C9
:103F5000B960394681E80C00FB68BA681A60FB68F2
:103F600004333A4692E8030083E80300FB681846EE
:103F70001437BD465DF8047B704700BF80B483B042
:103F800000AF786039603B6818460C37BD465DF875
:103F9000047B704780B483B000AF0223FB80054BE5
:103FA0005B6A9BB25B009BB218460C37BD465DF85E
:103FB000047B7047001C004080B582B000AF786081
:103FC000FFF7E8FF034618460837BD4680BD00BF2F
:103FD00080B584B000AF78603960FFF7DBFF03463F
:103FE000FB60FA683B68D31ABB600E4B1B78002B52
:103FF00008D07B683A681A607B68FA685A60BA68C9
:104000007B689A607B680C3307F1080211461846FA
:1040100001F03CF803461A687B68DA6000BF10378D
:10402000BD4680BDDC1C002080B582B000AF78604A
:1040300039607B683A681A603868FFF7BDFF02464E
:104040007B685A607B6800221A727B6818460837C2
:10405000BD4680BD80B582B000AF78607B681A68CD
:104060007B685B6819461046FFF7B2FF7B6818460D
:104070000837BD4680BD00BF80B483B000AF786014
:104080007B684FF000021A607B6832225A607B68BE
:1040900000221A817B6800229A727B680022DA7201
:1040A0007B680022DA607B6818460C37BD465DF8F5
:1040B000047B704780B483B000AF78607B684FF0BA
:1040C00000021A607B684FF000025A607B684FF074
:1040D00000029A607B6800221A737B6818460C37CE
:1040E000BD465DF8047B704780B582B000AF786054
:1040F0007B681846FFF7C0FF7B6800221A617B6867
:1041000000221A757B6800225A757B6800229A7516
:104110007B684FF000029A617B681C331846FFF7FA
:10412000C9FF7B6818460837BD4680BD80B483B0A0
:1041300000AF7860044A7B681A607B6818460C37C9
:10414000BD465DF8047B70478CCC060880B483B014
:1041500000AF78607B6800221A807B6801229A7029
:104160007B6800225A607B6818460C37BD465DF8B4
:10417000047B704780B582B000AF78607B681846DA
:10418000FFF7D4FF074A7B681A607B680433184640
:10419000FFF7DCFF7B680022DA607B68184608378F
:1041A000BD4680BD1CD3060880B483B000AF7860E4
:1041B00039603B68102B04D83B68DB00074A134486
:1041C00000E0064B7A6893E8030082E80300786811
:1041D0000C37BD465DF8047B704700BF985D00203A
:1041E00080B483B000AF78607B68074A1A607B6850
:1041F000054A5A607B68054A9A607B6818460C3706
:10420000BD465DF8047B704700007A440118CF3A40
:1042100080B582B000AF78607B6800221A607B684E
:1042200004331846FFF7DCFF7B6800221A747B68B2
:104230004FF000025A617B684FF000029A617B6880
:104240004FF00002DA617B684FF000021A627B686F
:104250004FF000025A627B6828339FED0C0A184623
:1042600000F000FF7B6830339FED080A184600F02D
:10427000F9FE7B6838339FED050A184600F0F2FE20
:104280007B6818460837BD4680BD00BF00000000AF
:1042900080B483B000AF7860044A7B681A607B68A2
:1042A00018460C37BD465DF8047B70479CCC060869
:1042B00080B483B000AF78607B6800221A607B68AE
:1042C00003F54053002283F844287B6803F54053EC
:1042D000002283F845287B6803F5405303F6480322
:1042E0004FF07E521A607B6803F5405303F64C038F
:1042F0004FF07E521A607B6803F5405303F5056367
:104300004FF07E521A607B6803F54053012283F818
:1043100054287B6818460C37BD465DF8047B70470F
:1043200080B582B000AF78607B6803221A707B682A
:1043300001225A707B68494A5A607B68484A9A60F1
:104340007B68484ADA607B684FF080421A617B687C
:10435000454A5A617B684FF0FF429A617B684FF093
:104360007E52DA617B68414A1A627B68002283F8D8
:1043700024207B684FF07E529A627B684FF4806203
:10438000DA627B684FF000021A637B684FF080426C
:104390005A637B684FF07A529A637B683C331846C5
:1043A000FFF786FF7B6803F5405303F69403304A1A
:1043B0001A607B6803F54053002283F898287B68D5
:1043C00003F54053012283F899287B6803F5405395
:1043D000012283F89A287B6803F54053012283F871
:1043E0009B287B6803F54053FF2283F89C287B6859
:1043F00003F5405303F50A634FF07E521A607B6861
:1044000003F5405303F6A4034FF000021A607B68E3
:1044100003F54053FF2283F8A8287B6803F5405337
:1044200003F6AC030D4A1A607B6803F5405303F5AD
:104430000B630A4A1A607B6803F5405303F6B40322
:104440000B4A1A607B6803F5405303F6B803094A28
:104450001A607B6818460837BD4680BD0000A04141
:10446000ABAA2A3EABAAAA3E9A99993F0AD7233C07
:1044700000002041000020C180B582B000AF78600C
:104480007B68184600F016FE7B6818460837BD4664
:1044900080BD00BF80B582B000AF78607B681846F1
:1044A000FFF7EAFF7B6818460837BD4680BD00BFAE
:1044B00080B483B000AF78607B684FF000021A6070
:1044C0007B684FF000025A607B684FF000029A60F0
:1044D0007B684FF00002DA607B6818460C37BD46F7
:1044E0005DF8047B704700BF80B582B000AF786094
:1044F0007B681846FFF7CCFE5F4A7B681A607B68D2
:104500000C331846FFF70CFF7B6803F540531A463F
:104510000023C2F8CC387B6803F54053002283F8AF
:10452000D0287B6803F5405303F6D4034FF0000214
:104530001A607B6803F5635318331846FFF7AAFF28
:104540007B6803F5635320331846FFF7A3FF7B68AE
:1045500003F5635328331846FFF79CFF7B6803F588
:10456000635330331846FFF795FF7B6803F54053DC
:1045700003F6F8034FF000021A607B6803F540531E
:1045800003F6FC034FF000021A607B6803F540530A
:1045900003F510634FF000021A607B6803F5405387
:1045A00003F604134FF000021A607B6803F54053D2
:1045B00003F608134FF000021A607B6803F54053BE
:1045C00003F60C134FF000021A607B6803F54053AA
:1045D00003F511634FF000021A607B6803F5405346
:1045E00003F614134FF000021A607B6803F5405382
:1045F00003F618134FF000021A607B6803F564534A
:104600001C331846FFF754FF7B6803F5405303F64D
:104610002C134FF000021A607B6803F54053002210
:1046200083F830297B6803F54053012283F8312950
:104630007B6803F54053002283F832297B6803F539
:10464000405303F634134FF000021A607B6803F501
:10465000405303F638134FF000021A607B6803F5ED
:1046600064533C339FED050A184600F0FBFC7B6861
:1046700018460837BD4680BD14D00608000000006B
:1046800080B483B000AF78607B684FF080421A60DE
:104690007B684FF07C525A607B684FF07C529A6086
:1046A0007B6818460C37BD465DF8047B704700BF39
:1046B00080B582B000AF78607B6800221A607B68AA
:1046C00004331846FFF7DCFF7B6818460837BD4601
:1046D00080BD00BF80B483B000AF78607B680333D7
:1046E0001B78032B0BD17B6804331B78062B06D178
:1046F0007B6805331B78182B01D1012300E00023D0
:1047000018460C37BD465DF8047B704780B582B013
:1047100000AF17F0E9FEFDF7E3FB0B4B7B607B6816
:104720001B78FF2B01D1094B7B607868FFF7D2FF24
:10473000034683F00103DBB2002B00D0FEE700BF8D
:104740000837BD4680BD00BF0078FF1F0000002075
:1047500080B58EB000AFFDF759FAFDF701FAFCF70E
:1047600093FFFDF703F8FDF79DFFFEF7BDF9FEF798
:10477000C3F8FEF70DF9FDF743FCFDF769F8FEF706
:1047800059F8FEF753F9FEF749FA002201210620F5
:1047900019F069FC062019F082FC00220121072093
:1047A00019F061FC072019F07AFC00220121082091
:1047B00019F059FC082019F072FC0022012109208F
:1047C00019F051FC092019F06AFC002201210A208D
:1047D00019F049FC0A2019F062FC0022012117207F
:1047E00019F041FC172019F05AFC00220121282061
:1047F00019F039FC282019F052FC002205214D2027
:1048000019F031FC4D2019F04AFC002200212C2027
:1048100019F029FC2C2019F042FC794B03F5804358
:1048200093F88131002B09D0764B1B68744A02F54E
:104830008042D2F884215A60FEF76CFB704B03F57E
:10484000804393F88231002B09D06F4B1B686C4A70
:1048500002F58042D2F888215A60FEF785FB684B4A
:1048600003F5804393F89131002B7FD007F10803C3
:1048700003211846FFF798FC07F1080000230122E6
:10488000002101F047FB07F1100304211846FFF750
:104890008BFC07F1100000230122002101F03AFBFC
:1048A00007F1180305211846FFF77EFC07F11800F1
:1048B00000230122002101F02DFB012014F014FE41
:1048C000524B68221A7007F1200303211846FFF7A4
:1048D0006BFC07F120031846FFF7ACFA0346002BE8
:1048E00001D0012100E00021484B1B785AB24BB2A5
:1048F00013435BB2DAB2454B1A7007F12803042167
:104900001846FFF751FC07F128031846FFF792FA03
:104910000346002B01D0022100E000213B4B1B7815
:104920005AB24BB213435BB2DAB2384B1A7007F18A
:10493000300305211846FFF737FC07F1300318460E
:10494000FFF778FA0346002B01D0042100E0002194
:104950002E4B1B785AB24BB213435BB2DAB22B4BDD
:104960001A702A4B1B781846FDF7E8F9244B03F51B
:10497000804393F89031002B13D0214B03F58043F3
:1049800093F87F31072B06D11D4B03F5804393F835
:104990008031072B05D01A4B03F58043012283F8A1
:1049A000C4221B4BDB681A4A43F00103D360184B47
:1049B000DB68174A43F00203D360154B9B68144A27
:1049C00043F0800393603B464FF4805211491846F0
:1049D000FFF700FA3B4600211846FFF70FFA2820A0
:1049E00014F0E6FB3B4601211846FFF707FA44F6B0
:1049F000206014F0DDFB012318463837BD4680BD2A
:104A0000485F00209C020020A002002074A9002022
:104A1000002004E00004024080B58AB002AF3B46AB
:104A20001846FFF7A5F93B461846FFF795F90346E8
:104A3000002B00F08B804C4B1B689A684A4B1B681C
:104A400022F440129A60494B1B689B68474A1268DF
:104A500023F0405323F440139360454B1B689B683D
:104A6000434A126823F0405323F440139360414AB1
:104A700007F1080307CA83E807003F4A07F1140358
:104A800007CA83E807006A4607F1180393E80300A2
:104A900082E803007B6907F1080207CA00F018FBEF
:104AA000314B1B689A68304B1B6842F480129A6045
:104AB0002E4B1B689B682D4A126843F0805343F4C9
:104AC000801393602A4B1B689B68294A126843F045
:104AD000805343F480139360234B1B686FF00402F0
:104AE0001A60224B1B686FF004021A60204B1B688F
:104AF0006FF004021A601C4B1B686FF002021A6010
:104B00001A4B1B686FF002021A60194B1B686FF09A
:104B100002021A60144B1B686FF020021A60134BDC
:104B20001B686FF020021A60114B1B686FF02002A7
:104B30001A60124B1B686FF001021A610F4B1B6861
:104B4000DA680E4B1B6842F00102DA603B461846F9
:104B5000FFF720F905E03B461846FFF71BF954F034
:104B60009DFD2037BD4680BDD40C00201C0D0020CB
:104B7000640D002098C70608A4C70608A4110020E9
:104B800080B582B000AF7860786800F005F8034621
:104B900018460837BD4680BD80B483B000AF78604A
:104BA0007B681B7918460C37BD465DF8047B70475F
:104BB00080B582B000AF7860786800F005F80346F1
:104BC00018460837BD4680BD80B582B000AF78601A
:104BD000FFF798F80346002B0AD07868FFF7DCFF50
:104BE000034683F00103DBB2002B01D0012300E078
:104BF0000023002B7B68184600F088FA034618460D
:104C00000837BD4680BD00BF80B52DED028B8AB050
:104C100000AF7860474B1B6803F00403042B0DD1F1
:104C2000454B1B6803F00603062B07D1434B1B685B
:104C300003F00603062B01D1012300E0002387F8CF
:104C4000273097F8273083F00103DBB2002B01D027
:104C5000002368E0374BDB6B18460CF087FD3848C3
:104C600001F013F80346002B50D0334BDA6B07F1F9
:104C700010033449184611F0E1F9304BDA6B07F1B3
:104C800008033049184611F0D9F907F11003184606
:104C9000FFF776FF0346002B09D007F108031846FB
:104CA000FFF76EFF0346002B01D0012300E0002335
:104CB000002B2BD007F110031846FFF779FF0346AE
:104CC000D3ED007AB1EE678A07F108031846FFF7C3
:104CD0006FFF0346D3ED007A78EE677AC7ED067A68
:104CE00007F110031846FFF763FF03461B68FB61DB
:104CF00007F108031846FFF75BFF03461B683B629A
:104D000007F118031946786800F00CFA094B6FF0A8
:104D100004021A60084B6FF026021A60074B6FF00E
:104D200026021A60012318462837BD46BDEC028BC7
:104D300080BD00BF00200140002101400022014051
:104D4000EC1C0020A81D002080B582B000AF786068
:104D5000786800F011F800BF0837BD4680BD00BF7D
:104D600080B582B000AF7860786800F005F800BFC9
:104D70000837BD4680BD00BF80B582B000AF786007
:104D80007B68054A934202D1044802F0D1F800BF83
:104D90000837BD4680BD00BF240F0020E01C002066
:104DA00080B500AF024812F0D9FE00BF80BD00BF41
:104DB000205E002080B582B000AF274B1B686FF0EB
:104DC00001021A61254B1B6803F01003002B14BF6E
:104DD00001230023FB71224B1B78DBB2FA799A4244
:104DE0000CBF01230023BB71BB79002B07D04FF40C
:104DF00000224FF000031B4810F0CEFF28E0184AB5
:104E0000FB791370184B1B6803F524530433164ABF
:104E10001360FB7983F00103DBB2002B0ED0134B40
:104E200003F5804393F8D822114B1A700F480EF007
:104E3000C1F9104B4D22C3F8002E09E00E4B40F291
:104E4000D662DA630C4A40F2D66393630A4A53632C
:104E50000837BD4680BD00BFA411002000040140FA
:104E6000305E0020A81D00202C5E0020485F00203E
:104E7000DC1C002000E100E00000014090B58FB094
:104E800002AF624B1B68FB6207F1100300221A603D
:104E90005A609A60DA6007F110031846FFF7B4FE13
:104EA000034683F00103DBB2002B06D04FF0007203
:104EB0004FF00003564810F06FFF564B5B6C03F445
:104EC0000043002B0CBF01230023DBB2002B0DD0CD
:104ED00007F1200300221A605A609A6007F120024D
:104EE00007F110031146184600F01CF9FB6AA3F203
:104EF00056646A4607F1180393E8030082E803004A
:104F000007F110030CCB2146414811F02BFDF96A43
:104F100041480EF089F93B1D40491846FFF784F8D7
:104F20000DE000BF3E4B1B6803F00203002B0CBFDB
:104F300001230023DBB2002BF4D101233B733B7B25
:104F400083F00103DBB2002BEBD13B1D1846FFF7CA
:104F500081F807F110031846FFF756FE034683F069
:104F60000103DBB2002B06D04FF000724FF00003BC
:104F7000274810F011FFFB6A03F50A542E346A46E5
:104F800007F1180393E8030082E8030007F1100318
:104F90000CCB21461E4811F09BFEFB6A03F5E9434A
:104FA000363319461A4811F04DFFFB6A03F52453B6
:104FB0000433164A1268934214BF01230023DBB264
:104FC000002B06D04FF010024FF00003104810F0F5
:104FD000E3FE114B03F5804393F8D832002B08D041
:104FE000104B1B7883F00103DBB2002B01D00122B0
:104FF00000E00022084B03F5804383F8D822094BD8
:1050000000221A7000BF3437BD4690BD2C5E0020D0
:10501000A81D002000000140485F002054A200208D
:1050200000210140DC1C002080B500AF02481AF0CE
:1050300047FB00BF80BD00BF100E002080B500AF51
:1050400002481AF041FC00BF80BD00BF100E0020D6
:1050500080B500AF02481BF071FE00BF80BD00BFED
:10506000EC16002080B483B000AF786087ED000AB2
:105070007B6802221A607B683A685A607B6818462F
:105080000C37BD465DF8047B704700BF80B483B029
:1050900000AF786039607B681A683B681B689A4289
:1050A00001D23B6800E07B6818460C37BD465DF8CE
:1050B000047B704780B582B000AF7860194678688D
:1050C00000F096F87B6818460837BD4680BD00BFE3
:1050D00082B0B0B588B004AF3C1D84E807007B62A5
:1050E0008DF808506A4607F1280393E8030082E828
:1050F00003007B6A3A1D07CA00F08AF800BF103728
:10510000BD46BDE8B04002B0704700BF80B483B078
:1051100000AF78607B6818460C37BD465DF8047BAD
:10512000704700BF90B583B000AF78603960786891
:1051300000F0C8F80346002B0CD0386800F0EEF8F9
:105140000446786800F0CAF80346224607CA83E896
:10515000070007E0386800F0E1F803461946786870
:1051600000F0E8F87B6818460C37BD4690BD00BFDC
:1051700080B582B000AF786039707B681146184600
:1051800000F0EAF87B6818460837BD4680BD00BFCE
:1051900080B582B000AF786039707B6811461846E0
:1051A000FFF7E6FF7B6818460837BD4680BD00BFA5
:1051B00080B582B000AF786039707B6811461846C0
:1051C000FFF7E6FF7B6818460837BD4680BD00BF85
:1051D00080B582B000AF786039707B6811461846A0
:1051E000FFF7E6FF7B6818460837BD4680BD00BF65
:1051F00080B582B000AF786039707B681146184680
:10520000FFF7E6FF7B6818460837BD4680BD00BF44
:1052100082B02DE970438AB001AD10AE85E8070079
:1052200046F8043F00246FF001082146284600F0AC
:10523000A5F8D0F80090D9F800301A6822F00102E1
:105240001A60DA6822F00102DA605A6942F001025B
:105250005A612146C3F81080304600F09FF80134AF
:10526000D9F8003002685A62032CDED10DF1100823
:1052700007AE00242146284600F080F803681B682A
:1052800048F8043B2146284600F078F803681B687C
:105290001B68013443F00103032C46F8043BE9D1B9
:1052A000FEF738FDDDE90421DDE90635089C1560CF
:1052B000099A0C601A60FEF73FFD0AB0BDE8704322
:1052C00002B0704780B483B000AF78607B681B7B0E
:1052D00018460C37BD465DF8047B704780B582B038
:1052E00000AF7860FEF70EFD0346002B0AD0786809
:1052F000FFF7E8FF034683F00103DBB2002B01D088
:10530000012300E00023002B7B68184600F056F8CC
:10531000034618460837BD4680BD00BF80B483B041
:1053200000AF78607B6818460C37BD465DF8047B9B
:10533000704700BF90B583B000AF786039607C687B
:105340003868FFF7EBFF03461946204600F042F8A5
:1053500000BF0C37BD4690BD80B582B000AF78600D
:1053600039707B681146184600F04EF87B680022C1
:105370001A717B6818460837BD4680BD80B582B07B
:1053800000AF786039607B683968184600F04CF8E7
:10539000034618460837BD4680BD00BF80B582B0C1
:1053A00000AF786039607B683968184600F04CF8C7
:1053B000034618460837BD4680BD00BF80B483B0A1
:1053C00000AF78607B6818460C37BD465DF8047BFB
:1053D000704700BF90B583B000AF786039607B68DC
:1053E000184600F041F804463868FFF797FF034677
:1053F0001946204600F044F87B6801221A7300BF6A
:105400000C37BD4690BD00BF80B582B000AF78605C
:1054100039707B681146184600F04AF87B681846D8
:105420000837BD4680BD00BF80B483B000AF786050
:1054300039603B689B007A68134418460C37BD46B8
:105440005DF8047B704700BF80B483B000AF786024
:1054500039603B689B007A68134418460C37BD4698
:105460005DF8047B704700BF80B483B000AF786004
:105470007B6818460C37BD465DF8047B704700BF5B
:1054800090B583B000AF786039607B6819460C2016
:10549000FEF774FD04463868FFF740FF02462346D6
:1054A00007CA83E8070000BF0C37BD4690BD00BFA8
:1054B00080B483B000AF786039707B684FF0000231
:1054C0001A607B6818460C37BD465DF8047B704750
:1054D00080B483B000AF7860044A7B681A607B6850
:1054E00018460C37BD465DF8047B7047ACCC060807
:1054F00080B582B000AF78607868FFF7E9FF0421DB
:10550000786853F0CDFF7B6818460837BD4680BDEC
:1055100080B582B000AF7860054A7B681A607B680E
:105520001846FFF7D5FF7B6818460837BD4680BD93
:1055300028D4060880B582B000AF78607868FFF79D
:10554000E7FF2C21786853F0ABFF7B6818460837DB
:10555000BD4680BD80B582B000AF7860054A7B68EB
:105560001A607B681846FFF7D3FF7B681846083738
:10557000BD4680BD78CC060880B582B000AF7860AB
:105580007868FFF7E7FF3821786853F089FF7B6878
:1055900018460837BD4680BD80B582B000AF786040
:1055A000054A7B681A607B681846FFF7B1FF7B6885
:1055B00018460837BD4680BD64CC060880B582B069
:1055C00000AF78607868FFF7E7FF5021786853F004
:1055D00067FF7B6818460837BD4680BDB0B59CB0F4
:1055E0000AAF786039607B68012B40F039813B68F5
:1055F0004FF6FF72934240F033819B499B48FEF780
:1056000033FC07F108034FF4005299491846FEF79E
:10561000E1FB07F110031846FEF7CAFB07F1180378
:10562000042294491846FEF7D5FB02AA07F1180395
:1056300093E8030082E803006A4607F1100393E849
:10564000030082E8030007F108030CCB87498A486E
:10565000FEF73CFC0423894A0F21894812F012FF0F
:10566000884A8949864853F097FE884812F04EFFD1
:10567000844A8749854853F08FFE844B0293804BC0
:1056800001937D4B00937C4B9FED820A0622824959
:10569000824810F0B7F807F120034FF40072744904
:1056A0001846FEF797FB07F1280310227C4918469D
:1056B000FEF790FB07F13003202279491846FEF7E8
:1056C00089FB07F138034FF4007269491846FEF769
:1056D00081FB664B069304AA07F1380393E80300A5
:1056E00082E8030002AA07F1300393E8030082E88E
:1056F00003006A4607F1280393E8030082E80300E9
:1057000007F120030CCB6749674807F08BFA674B1A
:1057100001241D4604E02846FEF7E6FC013C2C353A
:10572000002CF8DA6248FEF725FD6248FEF770FDAE
:105730006148FEF7D9FE6148FEF7BAFF5C4B08935B
:105740005F4B0793594B06935C4B0593534B049364
:10575000594B0393574B0293534B019303230093ED
:10576000022301220021574802F0A4FF564C0022D8
:1057700000212046FEF72EFB083401225349204623
:10578000FEF728FB0834022250492046FEF722FB90
:10579000083404224D492046FEF71CFB0834082239
:1057A0004A492046FEF716FB0834102230492046AD
:1057B000FEF710FB0834042239492046FEF70AFBA5
:1057C00008344FF4004241492046FEF703FB0834F9
:1057D000082233492046FEF7FDFA083410223049EA
:1057E0002046FEF7F7FA083420222D492046FEF71E
:1057F000F1FA08344FF400721D492046FEF7EAFA28
:105800000834402226492046FEF7E4FA0834802274
:1058100023492046FEF7DEFA08344FF400421449CB
:105820002046FEF7D7FA08344FF480721C49204610
:10583000FEF7D0FA04F108034FF400721849184635
:10584000FEF7C8FA224A07F1400392E8030083E812
:10585000030007F140030CCB1E491F48FEF774FB01
:1058600000BF4837BD46B0BD240F0020E01C00201B
:1058700000080240000C0240EC1C002048CC060846
:105880001C1D00201002002055550008541D00204A
:1058900099550008FFFFF94478100020A81D00204A
:1058A00000040240F0100020581F0020F8200020C3
:1058B0005021002060210020A0210020E45A002077
:1058C00024210020285B0020985D00200000024079
:1058D000B0C7060868110020205E002080B500AF28
:1058E0004FF6FF710120FFF779FE80BDDFF838D059
:1058F000002103E00D4B5B58435004310C480D4B25
:1059000042189A42F6D30C4A02E0002342F8043BC4
:105910000A4B9A42F9D3FCF78FFE0EF041F85CF087
:1059200071FD0EF081F870470000022010CD0808CC
:1059300000000020B80C0020B80C002000B90020A6
:10594000FEE780B483B000AF78600B46FB700123A4
:1059500018460C37BD465DF8047B704780B483B0B1
:1059600000AF78604FF07C5307EE903AB0EE670AD4
:105970000C37BD465DF8047B7047A0F10400EDE7ED
:1059800080B483B000AF7860044B07EE903AB0EE7D
:10599000670A0C37BD465DF8047B70475E74513F63
:1059A000A0F10400ECE700BF80B483B000AF034671
:1059B000FB800B46BB8013467B80FA88BB88134371
:1059C0009AB27B88C3F30A039BB213439BB2184677
:1059D0000C37BD465DF8047B7047000090B58BB076
:1059E00000AFF86087ED020A79600323FB842A4B3D
:1059F00007F114040FCB84E80F0002E0FB8C013B9D
:105A0000FB84FB8C002B0DD0FB8C9B0028333B448C
:105A1000143BD3ED007A97ED027AB4EEE77AF1EE1B
:105A200010FAEBD47B68002B07D0FB8C9B0028334B
:105A30003B44143B1A687B681A604FF4AA633B82AC
:105A4000FB8C9B009BB27B82FB689A8C3B8A9A42C0
:105A500006D1FB68DA8C7B8A9A4201D1012300E0EF
:105A6000002387F8253097F8253083F00103DBB257
:105A7000002B0CD0FB683A695A62FB68002283F85D
:105A80002C20FB68143300211846FEF7B7F90123D8
:105A900018462C37BD4690BDB8C7060880B586B0FD
:105AA00000AF78607B6893F82C30022B01D1012382
:105AB000C6E07B68143300211846FEF79FF92820C2
:105AC00013F076FB7B68002283F82C207B6814336C
:105AD00001211846FEF792F9142013F005FD7B68AA
:105AE0009B8C1A464FF48051786800F0AFF903465A
:105AF000002B38D07B689B8C1A464FF48051786815
:105B000000F0A4F90346002B2DD07B689B8C1A462D
