:020000040800F2
:1000000000000220B13A0008C92000084D21000874
:1000100061210008812100088921000800000000FA
:10002000000000000000000000000000E1D3000814
:10003000912100080000000071D4000895210008FB
:10004000013B0008013B0008013B0008013B0008A0
:10005000013B0008013B0008294000084940000816
:100060006940000889400008A9400008992100085B
:10007000013B0008A5210008013B0008B121000850
:10008000BD210008C9210008013B0008E12100084A
:10009000ED210008F921000805220008C9400008E8
:1000A000013B0008013B0008013B0008013B000840
:1000B000013B0008013B0008013B0008C135000876
:1000C000CD350008013B0008013B0008013B00085A
:1000D000013B0008013B000811220008013B000819
:1000E0004D410008013B0008013B0008013B0008AE
:1000F000F13300081D220008013B0008D52100084B
:10010000013B0008013B0008E533000839220008E4
:1001100045220008013B0008013B0008013B0008A4
:10012000013B0008013B0008013B0008013B0008BF
:10013000013B00080000000000000000013B000837
:10014000013B0008013B0008013B0008D9350008CD
:10015000013B0008013B0008013B0008013B00088F
:10016000013B0008013B0008013B0008013B00087F
:10017000013B00087D340008013B0008000000003E
:1001800000000000013B000800000000000000002B
:10019000013B00080000000000000000013B0008D7
:1001A000000000000000000000000000013B00080B
:1001B000013B0008013B0008013B0008013B00082F
:0401C000013B0008F7
:10020000A2EB0300704700BF02780B78012A28BFD9
:100210009A42F5D16DE9044540EA0104CDE902674F
:100220006FF0000C4FEA447212B380EA010414F03C
:10023000070F6AD100F0070420F0070004F003055F
:1002400021F007014FEAC505F0E8042314F0040F7C
:10025000F1E804670CFA05F462EA040266EA0406AF
:100260000AD063EA0403624667EA0407664603E0CD
:10027000F0E80423F1E8046782FA4CF582EA060408
:10028000A4FA8CF46CBB83FA4CF583EA0705A5FA53
:100290008CF595B950E9022351E9026782FA4CF5D1
:1002A00082EA0604A4FA8CF483FA4CF583EA070583
:1002B000A5FA8CF52543DBD09CB92DBAB5FA85F4A7
:1002C00024F0070427FA04F1DDE9026723FA04F3B6
:1002D00003F0FF0001F0FF01FDE80445A0EB010081
:1002E000704724BAB4FA84F424F0070426FA04F11F
:1002F000DDE9026722FA04F202F0FF0001F0FF01DB
:10030000FDE80445A0EB0100704714F0030F3CD159
:1003100010F0030428D150F8082B51F8083B82FA5A
:100320004CF582EA0305A5FA8CF55DB950F8042C6A
:1003300051F8043C82FA4CF582EA0305A5FA8CF5E3
:10034000002DE8D02DBAB5FA85F424F0070423FA7D
:1003500004F122FA04F202F0FF0001F0FF01FDE8CF
:100360000445A0EB010070474FEAC40420F00300ED
:1003700050F8082B21F0030151F8083B0CFA04F463
:1003800062EA040263EA0403C9E710F003041AD026
:10039000A1EB040120F00300E40750F8042B06D081
:1003A0000FD28B785FFAA2F4E41A06D12BB1CB7886
:1003B0005FFAB2F4E41A00D11BB920465DF8104B85
:1003C000704701F1040150F8042BCC0721F0030120
:1003D00051F8043B48D824D222F07F4482FA4CF5ED
:1003E00094EA1325A5FA8CF50AD165B951F8043BB6
:1003F00084EA0204B4EB036F0ED150F8042BEBE750
:100400004FEA132355E035F07F454DD10878FDE8DC
:100410000445C0F1000070474FEA126203F0FF0389
:1004200047E002EA1C4482FA4CF594EA1345A5FA27
:100430008CF50AD165B951F8043B84EA0204B4EBA7
:10044000034F0CD150F8042BEBE74FEA134330E095
:1004500015EA1C4528D10B884FEA124229E04FEAE1
:10046000124203EA1C4324E002F0FF0482FA4CF536
:1004700094EA1365A5FA8CF50AD165B951F8043BE5
:1004800084EA0204B4EB032F09D150F8042BEBE704
:100490004FEA13630DE015F0FF0F05D10B684FEA2B
:1004A000122223F07F4304E04FF00000FDE80445F2
:1004B000704712BA1BBA82FA4CF482EA0304A4FA17
:1004C0008CF5B5FA85F402FA04F203FA04F34FEA64
:1004D0001260FDE80445A0EB1360704700000000C7
:1004E00001F0FF01102A2BDB10F0070F08D010F8E5
:1004F000013B013A8B422DD010F0070F42B3F6D1E9
:10050000F0B441EA012141EA014122F007047FF001
:1005100000070023F0E80256083C85EA010586EA58
:10052000010685FA47F5A3FA87F586FA47F6A5FA94
:1005300087F68EB9EED1F0BC01F0FF0102F00702A0
:1005400032B110F8013B013A83EA010313B1F8D14B
:100550000020704701387047002D06BF354603382C
:10056000073815F0010F07D1013015F4807F02BF65
:10057000013015F4C03F0130F0BC0138704700BFB6
:10058000844641EA000313F003036DD1403A41D39E
:1005900051F8043B40F8043B51F8043B40F8043B5D
:1005A00051F8043B40F8043B51F8043B40F8043B4D
:1005B00051F8043B40F8043B51F8043B40F8043B3D
:1005C00051F8043B40F8043B51F8043B40F8043B2D
:1005D00051F8043B40F8043B51F8043B40F8043B1D
:1005E00051F8043B40F8043B51F8043B40F8043B0D
:1005F00051F8043B40F8043B51F8043B40F8043BFD
:1006000051F8043B40F8043B51F8043B40F8043BEC
:10061000403ABDD2303211D351F8043B40F8043B8C
:1006200051F8043B40F8043B51F8043B40F8043BCC
:1006300051F8043B40F8043B103AEDD20C3205D39C
:1006400051F8043B40F8043B043AF9D2043208D094
:10065000D2071CBF11F8013B00F8013B01D30B8806
:1006600003806046704700BF082A13D38B078DD0E4
:1006700010F003038AD0C3F10403D21ADB071CBFB6
:1006800011F8013B00F8013B80D331F8023B20F820
:10069000023B7BE7043AD9D3013A11F8013B00F859
:1006A000013BF9D20B7803704B7843708B788370E1
:1006B00060467047000000000000000000000000DD
:1006C00090F800F06DE9024520F007016FF0000C92
:1006D00010F0070491F820F040F049804FF000043A
:1006E0006FF00700D1E9002391F840F000F1080015
:1006F00082FA4CF2A4FA8CF283FA4CF3A2FA8CF34D
:100700004BBBD1E9022382FA4CF200F10800A4FAB3
:100710008CF283FA4CF3A2FA8CF3E3B9D1E9042307
:1007200082FA4CF200F10800A4FA8CF283FA4CF33E
:10073000A2FA8CF37BB9D1E9062301F1200182FAF8
:100740004CF200F10800A4FA8CF283FA4CF3A2FAFE
:100750008CF3002BC6D0002A04BF04301A4612BA0C
:10076000B2FA82F2FDE8024500EBD2007047D1E90F
:10077000002304F00305C4F100004FEAC50514F09E
:10078000040F91F840F00CFA05F562EA05021CBF6F
:1007900063EA050362464FF00004A9E781F00041D7
:1007A00002E000BF83F0004330B54FEA41044FEA56
:1007B000430594EA050F08BF90EA020F1FBF54EAF1
:1007C000000C55EA020C7FEA645C7FEA655C00F08D
:1007D000E2804FEA5454D4EB5555B8BF6D420CDD5E
:1007E0002C4480EA020281EA030382EA000083EAE1
:1007F000010180EA020281EA0303362D88BF30BD81
:1008000011F0004F4FEA01314FF4801C4CEA1131D6
:1008100002D0404261EB410113F0004F4FEA033335
:100820004CEA133302D0524263EB430394EA050FC0
:1008300000F0A780A4F10104D5F1200E0DDB02FA2F
:100840000EFC22FA05F2801841F1000103FA0EF2C3
:10085000801843FA05F359410EE0A5F120050EF189
:10086000200E012A03FA0EFC28BF4CF0020C43FABA
:1008700005F3C01851EBE37101F0004507D54FF0C7
:10088000000EDCF1000C7EEB00006EEB0101B1F517
:10089000801F1BD3B1F5001F0CD349085FEA30005D
:1008A0004FEA3C0C04F101044FEA445212F5800F68
:1008B00080F09A80BCF1004F08BF5FEA500C50F105
:1008C000000041EB045141EA050130BD5FEA4C0CE8
:1008D000404141EB0101013C28BFB1F5801FE9D245
:1008E00091F0000F04BF01460020B1FA81F308BF68
:1008F0002033A3F10B03B3F120020CDA0C3208DD34
:1009000002F1140CC2F10C0201FA0CF021FA02F10E
:100910000CE002F11402D8BFC2F1200C01FA02F17E
:1009200020FA0CFCDCBF41EA0C019040E41AA2BFA3
:1009300001EB0451294330BD6FEA04041F3C1CDA6B
:100940000C340EDC04F11404C4F1200220FA04F08B
:1009500001FA02F340EA030021FA04F345EA030135
:1009600030BDC4F10C04C4F1200220FA02F001FAF7
:1009700004F340EA0300294630BD21FA04F0294679
:1009800030BD94F0000F83F4801306BF81F4801112
:100990000134013D4EE77FEA645C18BF7FEA655C85
:1009A00029D094EA050F08BF90EA020F05D054EA57
:1009B000000C04BF1946104630BD91EA030F1EBF5C
:1009C0000021002030BD5FEA545C05D14000494160
:1009D00028BF41F0004130BD14F580043CBF01F553
:1009E000801130BD01F0004545F0FE4141F4700139
:1009F0004FF0000030BD7FEA645C1ABF1946104614
:100A00007FEA655C1CBF0B46024650EA013406BF14
:100A100052EA033591EA030F41F4002130BD00BFD3
:100A200090F0000F04BF0021704730B54FF4806490
:100A300004F132044FF000054FF0000150E700BF11
:100A400090F0000F04BF0021704730B54FF4806470
:100A500004F1320410F0004548BF40424FF000015D
:100A60003EE700BF42004FEAE2014FEA31014FEAA0
:100A700002701FBF12F07F4393F07F4F81F06051EF
:100A8000704732F07F4208BF704793F07F4F04BF3A
:100A900041F40021704730B54FF4607401F0004517
:100AA00021F000411CE700BF50EA010208BF704777
:100AB00030B54FF000050AE050EA010208BF704768
:100AC00030B511F0004502D5404261EB41014FF4D1
:100AD000806404F132045FEA915C3FF4D8AE4FF0D9
:100AE00003025FEADC0C18BF03325FEADC0C18BFBC
:100AF000033202EBDC02C2F1200300FA03FC20FA0D
:100B000002F001FA03FE40EA0E0021FA02F1144459
:100B1000BDE600BF70B54FF0FF0C4CF4E06C1CEA72
:100B200011541DBF1CEA135594EA0C0F95EA0C0FE3
:100B300000F0DEF82C4481EA030621EA4C5123EA56
:100B40004C5350EA013518BF52EA033541F4801185
:100B500043F4801338D0A0FB02CE4FF00005E1FB38
:100B600002E506F00042E0FB03E54FF00006E1FB82
:100B700003569CF0000F18BF4EF0010EA4F1FF04C5
:100B8000B6F5007F64F5407404D25FEA4E0E6D4105
:100B900046EB060642EAC62141EA55514FEAC52016
:100BA00040EA5E504FEACE2EB4F1FD0C88BFBCF592
:100BB000E06F1ED8BEF1004F08BF5FEA500E50F143
:100BC000000041EB045170BD06F0004646EA010109
:100BD00040EA020081EA0301B4EB5C04C2BFD4EB3B
:100BE0000C0541EA045170BD41F480114FF0000E34
:100BF000013C00F3AB8014F1360FDEBF002001F0A2
:100C0000004170BDC4F10004203C35DA0C341BDC1B
:100C100004F11404C4F1200500FA05F320FA04F0ED
:100C200001FA05F240EA020001F0004221F0004121
:100C300010EBD37021FA04F642EB06015EEA430E94
:100C400008BF20EAD37070BDC4F10C04C4F12005C4
:100C500000FA04F320FA05F001FA04F240EA020077
:100C600001F0004110EBD37041F100015EEA430E48
:100C700008BF20EAD37070BDC4F1200500FA05F268
:100C80004EEA020E20FA04F301FA05F243EA0203E7
:100C900021FA04F001F0004121FA04F220EA0200F6
:100CA00000EBD3705EEA430E08BF20EAD37070BD3C
:100CB00094F0000F0FD101F00046400041EB01011C
:100CC00011F4801F08BF013CF7D041EA060195F0FE
:100CD000000F18BF704703F00046520043EB0303B8
:100CE00013F4801F08BF013DF7D043EA06037047A5
:100CF00094EA0C0F0CEA135518BF95EA0C0F0CD0B0
:100D000050EA410618BF52EA4306D1D181EA0301F5
:100D100001F000414FF0000070BD50EA410606BFEF
:100D20001046194652EA430619D094EA0C0F02D134
:100D300050EA013613D195EA0C0F05D152EA033679
:100D40001CBF104619460AD181EA030101F0004197
:100D500041F0FE4141F470014FF0000070BD41F0E0
:100D6000FE4141F4780170BD70B54FF0FF0C4CF4BA
:100D7000E06C1CEA11541DBF1CEA135594EA0C0FD9
:100D800095EA0C0F00F0A7F8A4EB050481EA030E26
:100D900052EA03354FEA013100F088804FEA03330D
:100DA0004FF0805545EA131343EA12634FEA0222DB
:100DB00045EA111545EA10654FEA00260EF000419C
:100DC0009D4208BF964244F1FD0404F5407402D2EE
:100DD0005B084FEA3202B61A65EB03055B084FEA7F
:100DE00032024FF480104FF4002CB6EB020E75EB7C
:100DF000030E22BFB61A754640EA0C005B084FEAA4
:100E00003202B6EB020E75EB030E22BFB61A754620
:100E100040EA5C005B084FEA3202B6EB020E75EB6B
:100E2000030E22BFB61A754640EA9C005B084FEAE3
:100E30003202B6EB020E75EB030E22BFB61A7546F0
:100E400040EADC0055EA060E18D04FEA051545EADF
:100E500016754FEA06164FEAC30343EA52734FEA88
:100E6000C2025FEA1C1CC0D111F4801F0BD141EA01
:100E700000014FF000004FF0004CB6E711F4801F66
:100E800004BF01430020B4F1FD0C88BFBCF5E06F46
:100E90003FF6AFAEB5EB030C04BFB6EB020C5FEA56
:100EA000500C50F1000041EB045170BD0EF0004EAB
:100EB0004EEA113114EB5C04C2BFD4EB0C0541EADD
:100EC000045170BD41F480114FF0000E013C90E6DA
:100ED00045EA060E8DE60CEA135594EA0C0F08BF9E
:100EE00095EA0C0F3FF43BAF94EA0C0F0AD150EA9D
:100EF00001347FF434AF95EA0C0F7FF425AF104630
:100F000019462CE795EA0C0F06D152EA03353FF457
:100F1000FDAE1046194622E750EA410618BF52EAD4
:100F200043067FF4C5AE50EA41047FF40DAF52EAA8
:100F300043057FF4EBAE12E74FF0FF3C06E000BF45
:100F40004FF0010C02E000BF4FF0010C4DF804CD52
:100F50004FEA410C7FEA6C5C4FEA430C18BF7FEA12
:100F60006C5C1BD001B050EA410C0CBF52EA430C40
:100F700091EA030F02BF90EA020F0020704710F1C0
:100F8000000F91EA030F58BF994208BF90422CBF4F
:100F9000D8176FEAE37040F0010070474FEA410C48
:100FA0007FEA6C5C02D150EA013C07D14FEA430C66
:100FB0007FEA6C5CD6D152EA033CD3D05DF8040BD7
:100FC000704700BF8446104662468C461946634609
:100FD00000E000BF01B5FFF7B7FF002848BF10F1E0
:100FE000000F01BD4DF808EDFFF7F4FF0CBF012025
:100FF00000205DF808FB00BF4DF808EDFFF7EAFFA1
:1010000034BF012000205DF808FB00BF4DF808ED5B
:10101000FFF7E0FF94BF012000205DF808FB00BF50
:101020004DF808EDFFF7CEFF94BF012000205DF8DA
:1010300008FB00BF4DF808EDFFF7C4FF34BF0120E7
:1010400000205DF808FB00BF4FEA410C7FEA6C5CB2
:1010500002D150EA013C0AD14FEA430C7FEA6C5CB2
:1010600002D152EA033C02D14FF0000070474FF02A
:10107000010070474FEA410212F5001215D211D556
:101080006FF47873B3EB625212D94FEAC12343F085
:10109000004343EA505311F0004F23FA02F018BF07
:1010A000404270474FF00000704750EA013005D1D0
:1010B00011F0004008BF6FF0004070474FF0000093
:1010C000704700BF4A0011D212F5001211D20DD59F
:1010D0006FF47873B3EB62520ED44FEAC12343F03E
:1010E000004343EA505323FA02F070474FF00000E8
:1010F000704750EA013002D14FF0FF3070474FF097
:10110000000070474FEA4102B2F1E04324BFB3F55B
:10111000001CDCF1FE5C0DD901F0004C4FEAC0026E
:101120004CEA5070B2F1004F40EB830008BF20F052
:101130000100704711F0804F21D113F13872BCBF0C
:1011400001F00040704741F480114FEA5252C2F161
:101150001802C2F1200C10FA0CF320FA02F018BFAA
:1011600040F001004FEAC1234FEAD32303FA0CFCFD
:1011700040EA0C0023FA02F34FEA4303CCE77FEA8C
:10118000625307D150EA01331EBF4FF0FE4040F4D6
:101190004000704701F0004040F0FE4040F4000085
:1011A000704700BF80F0004002E000BF81F00041C6
:1011B00042001FBF5FEA410392EA030F7FEA226CFD
:1011C0007FEA236C6AD04FEA1262D2EB1363C1BF8D
:1011D000D218414048404140B8BF5B42192B88BFFC
:1011E000704710F0004F40F4000020F07F4018BF1F
:1011F000404211F0004F41F4000121F07F4118BF3F
:10120000494292EA030F3FD0A2F1010241FA03FCE6
:1012100010EB0C00C3F1200301FA03F100F00043CE
:1012200002D5494260EB4000B0F5000F13D3B0F196
:10123000807F06D340084FEA310102F10102FE2A05
:1012400051D2B1F1004F40EBC25008BF20F0010075
:1012500040EA03007047490040EB0000013A28BF14
:10126000B0F5000FEDD2B0FA80FCACF1080CB2EB97
:101270000C0200FA0CF0AABF00EBC2505242184315
:10128000BCBFD0401843704792F0000F81F40001BA
:1012900006BF80F400000132013BB5E74FEA41038D
:1012A0007FEA226C18BF7FEA236C21D092EA030FF9
:1012B00004D092F0000F08BF0846704790EA010F73
:1012C0001CBF0020704712F07F4F04D1400028BFA0
:1012D00040F00040704712F100723CBF00F5000082
:1012E000704700F0004343F0FE4040F400007047B8
:1012F0007FEA226216BF08467FEA23630146420264
:1013000006BF5FEA412390EA010F40F48000704776
:101310004FF0000304E000BF10F0004348BF40421C
:101320005FEA000C08BF704743F0964301464FF058
:1013300000001CE050EA010208BF70474FF00003B4
:101340000AE000BF50EA010208BF704711F00043F5
:1013500002D5404261EB41015FEA010C02BF8446C5
:101360000146002043F0B64308BFA3F18053A3F524
:101370000003BCFA8CF2083AA3EBC25310DB01FA6B
:1013800002FC634400FA02FCC2F12002BCF1004FEF
:1013900020FA02F243EB020008BF20F00100704780
:1013A00002F1200201FA02FCC2F1200250EA4C00D4
:1013B00021FA02F243EB020008BF20EADC7070471A
:1013C0007BB972B90029BEBF00204FF0004106E092
:1013D00008BF00281CBF6FF000414FF0FF3000F045
:1013E0002DB9ADF1080C6DE904CE002909DB002B05
:1013F0001ADB36F057FCDDF804E0DDE9022304B027
:101400007047404261EB4101002B1BDB36F04AFC88
:10141000DDF804E0DDE9022304B0404261EB410164
:10142000524263EB43037047524263EB430336F08F
:1014300039FCDDF804E0DDE9022304B0404261EB51
:1014400041017047524263EB430336F02BFCDDF859
:1014500004E0DDE9022304B0524263EB430370472A
:1014600053B94AB9002908BF00281CBF4FF0FF310B
:101470004FF0FF3000F0E2B8ADF1080C6DE904CE9A
:1014800036F010FCDDF804E0DDE9022304B070471B
:1014900000F1340191E838009C46A6464CF8045D02
:1014A00090E8FF0FE54600BD90EC210B704700BFB0
:1014B00080EC210B704700BF90EC200B704700BF01
:1014C00080EC200B704700BFD0EC200B704700BFB2
:1014D000C0EC200B704700BFF0EC0201F0EC0211F1
:1014E000F0EC0221F0EC0231F0EC0241F0EC0251A0
:1014F000F0EC0261F0EC0271F0EC0281F0EC029190
:10150000F0EC02A1F0EC02B1F0EC02C1F0EC02D17F
:10151000F0EC02E1F0EC02F1704700BFE0EC0201F8
:10152000E0EC0211E0EC0221E0EC0231E0EC0241DF
:10153000E0EC0251E0EC0261E0EC0271E0EC0281CF
:10154000E0EC0291E0EC02A1E0EC02B1E0EC02C1BF
:10155000E0EC02D1E0EC02E1E0EC02F1704700BF08
:10156000B0FC0181B0FC0191B0FC01A1B0FC01B163
:10157000704700BFA0FC0181A0FC0191A0FC01A16B
:10158000A0FC01B1704700BFEC4600B52DE900504A
:101590002DE9FF1F4FF000032DE90C0001A936F0E3
:1015A00033FEDDF840E012B0704700BFEC4600B5F6
:1015B0002DE900502DE9FF1F4FF000032DE90C002D
:1015C00001A936F05DFEDDF840E012B0704700BFC3
:1015D000EC4600B52DE900502DE9FF1F4FF0000348
:1015E0002DE90C0001A936F06BFEDDF840E012B0E9
:1015F000704700BFEC4600B52DE900502DE9FF1FF4
:101600004FF000032DE90C0001AB36F031FEDDF8A0
:1016100040E012B0704700BFEC4600B52DE9005025
:101620002DE9FF1F4FF000032DE90C0001AA36F051
:10163000A3FEDDF840E012B0704700BF704700BF66
:101640000348044B834202D0034B03B11847704751
:101650009809002098090020000000000548064B6A
:101660001B1AD90F01EBA301491002D0034B03B1A0
:1016700018477047980900209809002000000000D2
:1016800010B5064C237843B9FFF7DAFF044B13B1CA
:101690000448AFF300800123237010BD9809002097
:1016A00000000000D08C030808B5054B1BB10549AC
:1016B0000548AFF30080BDE80840FFF7CFBF00BF8B
:1016C000000000009C090020D08C030830B525489C
:1016D000254C2649002301228DB04FF48035C0E906
:1016E0000045C0E90A1383600361037680F8203067
:1016F000C360C26180F8303042610DF0D5FC08BB98
:10170000062401220023174802936946CDE90042CE
:101710000DF072FE08BB01220E210023CDE9041258
:101720004FF4801408920F4806934FF4102204A936
:10173000CDE90A24ADF8243007930DF011FF30B93C
:101740000DB030BD0A485A2100F062FBD8E70848C6
:10175000722100F05DFB0DB030BD0548632100F043
:1017600057FBD8E7A40A0020002001400100000F29
:10177000A08E030810B52748274C4FF48031002372
:10178000C0E9004101228CB04FF080544FF06061FD
:10179000C0E90A1483600361037680F82030C360D7
:1017A000C26180F8303042610DF07EFC08BB0D2430
:1017B00001220023174802936946CDE900420DF04B
:1017C0001BFE08BB01220B210023CDE904124FF4BC
:1017D000801408920F4806934FF4102204A9CDE913
:1017E0000A24ADF8243007930DF0BAFE30B90CB0DE
:1017F00010BD0A48892100F00BFBD8E70748A1215A
:1018000000F006FB0CB010BD0448922100F000FB74
:10181000D8E700BF5C0A002000210140A08E030829
:1018200010B52748274C4FF480310023C0E9004110
:1018300001228CB04FF080544FF06061C0E90A146F
:1018400083600361037680F82030C360C26180F852
:10185000303042610DF028FC08BB0C24012200232B
:10186000174802936946CDE900420DF0C5FD08BB5B
:1018700001220C210023CDE904124FF480140892B8
:101880000F4806934FF4102204A9CDE90A24ADF8BD
:10189000243007930DF064FE30B90CB010BD0A4837
:1018A000B82100F0B5FAD8E70748D02100F0B0FA27
:1018B0000CB010BD0448C12100F0AAFAD8E700BF5F
:1018C000140A002000220140A08E030870B5424A8D
:1018D000036893428AB007D0404A934240D0404ABE
:1018E00093425DD00AB070BD00263E4B01965A6C03
:1018F0003D4D42F480725A645B6C069603F480732B
:101900000193262204A9032304463848CDE9042381
:10191000019B0EF071FF302203233548069604A97F
:10192000CDE904230EF068FF324A6E624FF4806303
:10193000C5E900262B614FF400624FF40053C5E95E
:10194000052328464FF48073C5E90266C5E90736CA
:101950000EF05EFB00283AD1A563AC630AB070BDFF
:101960000024204B02945A6C204842F400725A64BE
:101970005B6C069403F40073029304A926220323EC
:10198000CDE90423029B0EF037FF302203231848D1
:10199000069404A9CDE904230EF02EFF0AB070BD11
:1019A000104B002403945A6C42F480625A645B6CBE
:1019B00006940620032103F48063CDE90401039318
:1019C0000A48039B04A90EF017FF0AB070BD0A482D
:1019D000FE2100F01DFABFE7002001400021014078
:1019E0000022014000380240B409002000080240F3
:1019F0000000024010640240A08E0308224B0268DF
:101A00009A4200D0704730B589B0002503F5EA331B
:101A100001951A6C1D4842F000721A641B6C03F0A9
:101A2000007301934FF4407202230924CDE902238D
:101A300002A900220323CDE904230694019B0EF0A2
:101A4000DBFE2A46214613200EF05EFA13200EF02C
:101A500099FA2A46214614200EF056FA14200EF068
:101A600091FA2A46214615200EF04EFA15200EF066
:101A700089FA2A46214616200EF046FA16200EF064
:101A800081FA09B030BD00BF00640040000402408C
:101A900010B582B00024244B00941A6B42F400125B
:101AA0001A63186B00F40010009000980194186BF2
:101AB00040F4800018631B6B03F48003224604216A
:101AC00001930B20019B0EF01FFA0B200EF05AFA27
:101AD00022460A210D200EF017FA0D200EF052FAC0
:101AE00022460A210F200EF00FFA0F200EF04AFABC
:101AF00022460A2110200EF007FA10200EF042FABA
:101B000022460A2111200EF0FFF911200EF03AFAB8
:101B100022462F2003210EF0F7F92F2002B0BDE856
:101B200010400EF02FBA00BF0038024070B58CB0E4
:101B3000344B354D354E002401941A6B42F00402AB
:101B40001A63196B01F00401019101990294196B58
:101B500041F080011963196B01F080010291029933
:101B60000394196B012211431963196B11400391FE
:101B700003990494196B41F002011963196B01F088
:101B80000201049104990594196B41F0080119634D
:101B90001B6B03F00803059328464FF40051059B87
:101BA0000EF0FCFF224630464FF480510EF0F6FF57
:101BB00028464FF40053012506A9CDE90635CDE9A5
:101BC00008440EF019FE4FF4806206A90023104865
:101BD0000894CDE906230EF00FFE30464FF48053F3
:101BE00006A90693CDE9075409940EF005FE0422D8
:101BF00000230848089506A9CDE906230EF0FCFD50
:101C00000CB070BD003802400008024000040240E1
:101C100000000240000C02400D4B10B541000D4C7D
:101C20000D481C60002258604FF480441846C3E9F8
:101C30000314C3E90522C3E907229A600EF0B2FF3C
:101C400000B910BDBDE8104004484F2100F0E0B8D5
:101C5000B00B002000540040A0860100D88E03087D
:101C6000304B02689A4200D0704770B582B00023B2
:101C70002D4A0193116C2D4E41F400111164126C28
:101C80002B49316002F4001201924FF000720446B9
:101C900072600198B3604FF480614FF480723046F7
:101CA000F36031617361B361F261336273620EF0AC
:101CB000AFF960BB1F4D2049A6634FF000720023AF
:101CC00029606A6040214FF480622846B463A960AD
:101CD000EB602A616B61AB61EB612B626B620EF0B2
:101CE00097F9C8B90022092165631F20AC630EF083
:101CF0000BF91F200EF046F92020002209210EF0DA
:101D000003F9202002B0BDE870400EF03BB90B484B
:101D10006E2100F07DF8CDE70848802100F078F8CA
:101D2000E0E700BF0054004000380240500B0020A4
:101D300010600240F00A0020A0600240D88E030824
:101D400070B596B02A4A2B4B00200190116C41F0DF
:101D500080511164126C02F080520192019A02903B
:101D60001A6842F440421A601B689FED1F7B03F41F
:101D70004043029301230224029A0D934FF4800101
:101D80000425A822072308A88DED087BCDE90E4184
:101D9000109511921294139310F040FE00B1FEE7DB
:101DA0004FF4A05205904FF480530F26052103A84D
:101DB000CDE90364CDE9062310F0F4FC044600B13C
:101DC000FEE710F08DFD0C4BA3FB003080090EF0F8
:101DD000F9F828460EF010F9224631464FF0FF3050
:101DE0000EF092F816B070BD09000000000001006E
:101DF0000038024000700040D34D6210034B02686F
:101E00009A4200D070470DF02BB900BF002000406F
:101E1000FEE700BF10B51148114C4FF48272002349
:101E2000C0E900424FF400610122C0E90231C0E97B
:101E300004324FF4007418210A22C0E906410362FB
:101E400043628362C26211F0B7F800B910BDBDE809
:101E5000104004485221FFF7DBBF00BFC80C002030
:101E6000003C00400C8F03083A4B02689A4200D0B5
:101E70007047F0B587B003F5FE33002700971A6C62
:101E800042F400421A641B6C03F4004302210093E5
:101E90004FF4A0520126CDE90211009B01920623C6
:101EA000044601A92C48CDE904634FF400650EF007
:101EB000A3FC03962848294E019501A90EF09CFC2D
:101EC000274B33604023C6E90173E3684FF4806217
:101ED000C6E9037263BB1D461A460023B2611F4860
:101EE00075614FF40032F361326273620EF090F864
:101EF00058BB1C4DE3681C49A66400224FF4806067
:101F0000C5E90012C5E90222B46328619BB91946EC
:101F100000226B611348A9614FF48033EA612B62A0
:101F20006A620EF075F858B9E564AC6307B0F0BDAD
:101F30004FF40052D1E74FF400634FF40051E7E74C
:101F40000A48A021FFF764FFEEE708488921FFF760
:101F50005FFFCEE7003C004000080240680C002014
:101F6000B8600240080C0020106002400C8F03088B
:101F70000D4B02689A4200D070470C4A136C10B5A2
:101F800023F4004304464FF4E051136408480EF074
:101F900057FDA06C0EF0D2F8E06C0EF0CFF8BDE863
:101FA000104033200DF0FCBF003C004000380240E0
:101FB0000008024010B582B00024224B00945A6CF5
:101FC00042F480425A645A6C02F480420092009AB1
:101FD00001941A6C42F080521A641B6C03F0805317
:101FE00001930320019B0DF07DFF224621466FF0F7
:101FF0000B000DF089FF224621466FF00A000DF01C
:1020000083FF224621466FF009000DF07DFF224636
:102010006FF0040003210DF077FF224621466FF098
:1020200003000DF071FF22460F216FF001000DF04B
:102030006BFF22460F214FF0FF3002B0BDE8104089
:102040000DF062BF0038024030B5014689B0002271
:102050002D200DF059FF2D200DF094FF0025164B7B
:1020600002951A6C154C42F480721A641B6C03F4CE
:10207000807301A903A80293029B10F057FC10F093
:1020800035FC0F4A0F4921604300A2FB03239B0C40
:10209000013B40F2E7322046C4E903256360A560B6
:1020A00011F09CFE10B1012009B030BD204611F0A6
:1020B00037FB09B030BD00BF00380240200D0020C2
:1020C00083DE1B4300200040704700BF1B4A1C49B1
:1020D000536C10B423F4404353644B6C0468194AA6
:1020E0008FB023F440434B640294D0E9014303943E
:1020F0000493D0E90434C16805910693D0E906132E
:10210000079408910993936A0A93D2F888200E4B9A
:102110000B925B6B0C930A9BC3F340238DF8063044
:102120000A9B0122C3F300238DF807300D920D9B0B
:10213000002BFCD10FB05DF8044B7047000001404C
:102140000004014000ED00E000EF00E01EF0040F8D
:102150000CBFEFF30880EFF30980FFF7B7BF00BFB4
:102160000549064A4B6C23F440434B64536C23F4FB
:1021700040435364F6E700BF000001400004014003
:1021800008B5FFF7EDFF00BF08B5FFF7E9FF00BF97
:10219000704700BF0BF07EB801480EF0A7B800BF33
:1021A000080C002001480EF0A1B800BF3810002034
:1021B00001480EF09BB800BFD80F002001480EF078
:1021C00095B800BF780F002001480EF08FB800BF0F
:1021D000180F002001480EF089B800BF680C0020DD
:1021E00001480DF023BD00BF0400002001480DF0A0
:1021F0001DBD00BF0400002001480DF017BD00BF49
:102200000400002001480DF011BD00BF04000020B3
:10221000014812F05FBB00BF9810002008B50448C9
:1022200011F0C6FCBDE80840024811F0C1BC00BF77
:10223000B00D0020200D0020014811F05DB900BF55
:10224000C80C0020014812F045BB00BFE010002080
:102250001049114BD1F8882042F4700210B4C1F833
:1022600088201A680D4C002042F001021A60986024
:102270001A6822F0847222F480321A605C601A6854
:102280004FF0006422F480221A60D8608C605DF800
:10229000044B704700ED00E000380240103000248D
:1022A00010B51848184901608CB04FF6FF71C16035
:1022B0000321002301240422039103A9C0E901336F
:1022C000CDE90434CDE90632CDE90834CDE90A324E
:1022D000036111F03BFE50B9002200230948694612
:1022E000CDE9002311F0F2FF30B90CB010BD074862
:1022F0007B21FFF78DFDEFE704488121FFF788FD83
:102300000CB010BDD00E002000000140588F030813
:1023100010B52348234C6022002386B040F6AC5110
:1023200082600222C0E90043C0E90313426111F058
:1023300055FDD0B94FF480531948029302A911F00A
:1023400085FB38BB164811F0A5FDF0B9144811F013
:1023500073FDA8B92022002311486946CDE9002366
:1023600011F0B4FF30B906B010BD0F488F21FFF750
:102370004FFDDFE70C48A221FFF74AFD06B010BD74
:1023800009489C21FFF744FDE4E707489821FFF73F
:102390003FFDDBE704489421FFF73AFDD2E700BF99
:1023A000400E002000080040588F030800B5224866
:1023B0002249002387B04FF0FF32C0E90013C0E983
:1023C0000232036111F094FD00BB002200231A4881
:1023D0006946CDE9002311F079FF40BB0A220123B1
:1023E000CDE9022300210F230822CDE9041312486E
:1023F0000DEB020111F0D2FEA0B90F480C2202A988
:1024000011F0CCFE38B907B05DF804FB0C48B021E0
:10241000FFF7FEFCD9E70A48C221FFF7F9FC07B035
:102420005DF804FB0648BE21FFF7F2FCE5E704482F
:10243000B621FFF7EDFCD1E7F80D0020000C0040BD
:10244000588F03080A480B4908B542F603120023C7
:10245000016043608360C260036111F0BFFC00B99A
:1024600008BDBDE8084004484FF48471FFF7D0BCB4
:10247000680D0020001C0040588F0308124A0368B2
:10248000934282B012D0114A934201D002B07047F9
:102490000F4B002201921A6C42F080021A641B6CEE
:1024A00003F080030193019B02B07047084B0022A8
:1024B00000921A6C42F004021A641B6C03F00403CD
:1024C0000093009B02B0704700080040001C0040D1
:1024D000003802400368B3F1804F82B012D0114A35
:1024E000934201D002B070470F4B002201925A6C08
:1024F00042F002025A645B6C03F002030193019BF9
:1025000002B0704703F50E33002200921A6C42F0BD
:1025100001021A641B6C03F001030093009B02B0DC
:10252000704700BF00040140003802400000000076
:1025300000B51B4A016889B000239142CDE90233FE
:10254000CDE90433069302D009B05DF804FB02F52F
:102550009C320093506C40F001005064506C00F0CD
:102560000100009000980193136B0E4843F00103A3
:102570001363136B9FED087B03F00103019302A922
:1025800001238DED027B019A06930EF035F909B017
:102590005DF804FBAFF300800003000002000000C0
:1025A00000000140000002400E4B02689A4200D039
:1025B000704700B583B003F50B3300220192196C0C
:1025C00041F0080119641B6C03F0080301933220E9
:1025D0000121019B0DF098FC322003B05DF804EB63
:1025E0000DF0D0BC000C0040D0B50368B3F1804FB3
:1025F00086B004D01F4A934215D006B0D0BD4FF428
:1026000040600221CDE9000100F180400123002655
:10261000002700F5FC306946CDE9026704930EF00F
:10262000EBF806B0D0BD00260027032469468022BF
:10263000022311480494CDE90023CDE902670EF08E
:10264000DBF86946032202230C480494CDE90023F9
:10265000CDE902670EF0D0F84FF4E072022308488B
:1026600004946946CDE90267CDE900230EF0C4F871
:1026700006B0D0BD0004014000000240000402404A
:102680000008024010B5284800238AB04FF080446B
:1026900060214FF48052C0E90043C0E90212036197
:1026A00011F0F8FB40BB002200231F486946CDE92A
:1026B000002311F00BFE90BB70220023CDE9022312
:1026C0000221082200230491174806930DEB020112
:1026D00011F0C4FCF0B941F2010C00231248CDF80E
:1026E0000CC00C2202A9049311F0B8FC48B90E48A2
:1026F000FFF77AFF0AB010BD0C484D21FFF788FBA9
:10270000D1E761210948FFF783FB0748FFF76CFF1A
:102710000AB010BD05485B21FFF77AFBDBE70348F1
:102720005321FFF775FBC7E7880E0020588F030879
:1027300010B54748474C6022002392B040F6AC5198
:1027400082600222C0E90043C0E90313426111F034
:10275000A1FB002846D13E4811F06EFB00284AD16B
:10276000202200233A486946CDE9002311F0AEFD4E
:1027700000285DD19FED327B002270233448029304
:1027800002A98DED067BCDE903220592089211F096
:1027900065FC002847D12E48042202A911F05EFCF6
:1027A00000283BD108222A480DEB020111F056FC0B
:1027B00078BB9FED257B4FF480614FF400640023CC
:1027C000CDE90A411422224811930AA98DED0E7B0E
:1027D000CDE90C3211F0BAFD90B91D48FFF704FFA6
:1027E00012B010BD1C48D321FFF712FB184811F09E
:1027F00023FB0028B4D01848D721FFF709FBAFE727
:10280000FB211548FFF704FB1148FFF7EDFE12B05E
:1028100010BD1148F021FFF7FBFACAE70E48EC2182
:10282000FFF7F6FABEE70C48E821FFF7F1FAB2E746
:102830000948DD21FFF7ECFA9CE700BFAFF3008009
:102840000000000000000000000000000020000068
:10285000B00D002000040140588F03080000000064
:102860009FED0B7B0C480D4908B50C220023C0E9F5
:10287000023380ED067B01600361426111F032FE9C
:1028800000B908BDBDE8084005485121FFF7C0BAAE
:102890000000000000000000E0100020004C00409C
:1028A0008C8F0308000000009FED0B7B0C480D4946
:1028B00008B50C220023C0E9023380ED067B0160DD
:1028C0000361426111F00EFE00B908BDBDE8084089
:1028D00005486421FFF79CBA0000000000000000DA
:1028E00098100020004400408C8F030870B5584AAF
:1028F0000368934282B0044604D0564A93424BD0B8
:1029000002B070BD002302F5F6320093116C524EF6
:1029100041F400211164126C5049316002F400222C
:1029200000924FF00062009872604FF480614FF4A3
:1029300080723046B360F36031617361B361F261FC
:10294000336273620DF064FB002872D1444D454937
:10295000A6634FF00062002329606A6040214FF4B3
:1029600080622846B463A960EB602A616B61AB6149
:10297000EB612B626B620DF04BFB002854D1656359
:10298000342000220A21AC630DF0BEFA342002B0DC
:10299000BDE870400DF0F6BA002302F5FA3201935B
:1029A000116C314E41F400311164126C2F493160C9
:1029B00002F4003201924FF00062019872604FF40D
:1029C00080614FF480723046B360F36031617361AF
:1029D000B361F261336273620DF01AFB70BB244D78
:1029E0002449A6634FF00062002329606A604021F9
:1029F0004FF480622846B463A960EB602A616B6182
:102A0000AB61EB612B626B620DF002FBD8B96563C1
:102A1000262000220A21AC630DF076FA262002B0AF
:102A2000BDE870400DF0AEBA13489421FFF7F0F9FD
:102A3000A5E711488221FFF7EBF987E70E48B62199
:102A4000FFF7E6F9CBE70C48C821FFF7E1F9DEE72D
:102A5000004C00400044004038100020406002401C
:102A6000D80F002070600240780F0020886002407C
:102A7000180F0020A06002408C8F030810B5094C8D
:102A800009490022204613F0CDF80849204613F0EA
:102A9000E1F82046064913F087F82046BDE81040CB
:102AA00013F0EEB8241100205C00002090020020FA
:102AB0003000002008B5096822F0BAF9002008BDEE
:102AC00008B5044B0022186802210AF079FB0020A7
:102AD00008BD00BF64E0002008B5044B0022186860
:102AE00001210AF06DFB002008BD00BF64E000205A
:102AF000212806D14FF4E1300022082308608A80A3
:102B00008B710020704700BF8C46BCF1400F01461E
:102B100013460DD8094A812BD2F8BC220CD0832B46
:102B200006D15C32127A2AB90448624613F044B8DE
:102B300003207047012070474432F3E7241100203E
:102B40000368B3F1A04F00D0704700B59FED147B30
:102B500089B08DED027B9FED147B02A90A231448F6
:102B600006938DED047B0DF047FE124B596B00224E
:102B700041F0800159630192596C41F480415964DC
:102B80005B6C03F48043062101934320019B0DF00D
:102B9000BBF943200DF0F6F909B05DF804FB00BF66
:102BA0000018000002000000000000000300000008
:102BB0000000024000380240F8B5D0F8085500F295
:102BC000C44605F2AA2704463146384613F0F8FBFE
:102BD00095F8AA3203F06003402B03D195F8AB328D
:102BE000502B06D0D4F808053146BDE8F84013F064
:102BF00059B8D5F8B832B5F8B0229B680121C5E9BB
:102C0000A512284639469847B5F8B03203B900B145
:102C1000F8BD2846BDE8F84013F040BC01EBC10305
:102C200000EB8303D0F80805D3F88C2213F06AB8C0
:102C300001EBC10300EB8303D0F80805DA6C13F055
:102C400095B800BFD0F8080513F020B910B5C168D9
:102C500004460039D0F8080518BF012113F0FEF82A
:102C6000D4F80805BDE8104013F0D0B810B50446FC
:102C7000D0F8080513F0F6F82268D2F8003E43F0C9
:102C80000103C2F8003E236A23B1034A136943F0EB
:102C90000603136110BD00BF00ED00E0D0F8080589
:102CA00013F0EAB8D0F8080513F000B9D0F8080519
:102CB00013F0FAB8D0F8080513F0FAB8D0F8080500
:102CC00013F0F8B802780AB100207047194B10B51C
:102CD000C3F808054FF0A044C0F8C4320620022112
:102CE000C3E900401846C3E90312C3E90521DA61CC
:102CF0001A625A62DA621A630EF04EFFA0B980219E
:102D00000C480FF033FD402200210A480FF008FD67
:102D10004022012107480FF003FD4022032105480E
:102D20000FF0FEFC002010BD034840F25911FFF7E0
:102D30006FF8E4E7F8130020C08F030808B5D0F857
:102D4000C4020EF0B9FF18B102280CBF0120032005
:102D500008BD00BF944608B51A46D0F8C4026346C1
:102D60000FF09CFB18B102280CBF0120032008BD06
:102D700008B5D0F8C4020FF0CFFB18B102280CBF81
:102D80000120032008BD00BF08B5D0F8C4020FF031
:102D90004BFC18B102280CBF0120032008BD00BF66
:102DA00008B5D0F8C4020FF083FC18B102280CBF9C
:102DB0000120032008BD00BF0A06D0F8C43206D4A3
:102DC00001EBC10103EB810393F87E02704701F030
:102DD0007F0101EBC10103EB810393F83E007047D3
:102DE00008B5D0F8C4020FF045FB18B102280CBF9B
:102DF0000120032008BD00BF08B5D0F8C4020FF0C1
:102E0000EBFB18B102280CBF0120032008BD00BF56
:102E100008B5D0F8C4020FF0ADFB18B102280CBF02
:102E20000120032008BD00BFD0F8C4020FF0CABBC8
:102E3000122301480B8070474800002004230148FA
:102E40000B8070474400002010B5044C04480A462B
:102E5000214613F0CDFA204610BD00BF0419002012
:102E6000F88F030810B5044C04480A46214613F0B5
:102E7000BFFA204610BD00BF041900204CE7002017
:102E800010B5044C04480A46214613F0B1FA204616
:102E900010BD00BF041900200890030810B5044CB1
:102EA00004480A46214613F0A3FA204610BD00BF8D
:102EB000041900202490030810B5044C04480A4665
:102EC000214613F095FA204610BD00BF04190020DA
:102ED000309003080020EE2908B5108002D00629A2
:102EE00005D008BD1346122204481A8008BD0449C3
:102EF000044813F07DFA024808BD00BF78000020A6
:102F00000419002040900308704700BF704700BFBD
:102F100082B010B48BB001AC84E80700019A0D9325
:102F20001168029A1C460B6812686FF0010003409A
:102F30000B60CB680340CB604B6943F001034B61EE
:102F400008614C62136803401360D468039B04401B
:102F50001B68D460546944F0010454610E9C1061F4
:102F600054621C6804401C60DC680440DC605C69DE
:102F7000049144F001045C610F9C18615C620C6870
:102F800010681968059244F0010440F0010041F016
:102F900001010794089006930991EFF3108372B62C
:102FA000DDE90410DDE906240C60DDE90841046078
:102FB000116083F310880BB05DF8044B02B07047CA
:102FC0002C4A136813F0040339D070B52A4D2B68CE
:102FD0002DED028B03F00603062B84B004D00020F5
:102FE00004B0BDEC028B70BD244E336803F00603C1
:102FF000062BF4D10446D06B05F0FCFFEA6B2049A8
:10300000684608F0A9FBF26B1D499DED008A02A8F5
:1030100008F0A2FB9DF8043013B19DF80C3083B981
:1030200014481549154A6FF0040404606FF0260334
:1030300001200B60136004B0BDEC028B70BD18461C
:1030400070479DED027A237BF1EE487A77EEC77ADE
:1030500033B1C4ED007A84ED018A84ED027ADFE7B2
:103060000123C4ED007A84ED018A84ED027A237392
:10307000D6E700BF002001400021014000220140AE
:10308000C859002008B50BF0D1FFBDE80840FEF795
:1030900057BE00BF70B582B0FEF748FDFEF7F8FCE2
:1030A000FEF714FBFEF766FBFFF7FAF8FFF7EAFA04
:1030B000FFF72EF9FFF77AF9FFF73AFBFFF7C2F9AE
:1030C000FEF7A8FEFEF7ACFB0022012106200CF063
:1030D0001BFF06200CF056FF0022012107200CF0F8
:1030E00013FF07200CF04EFF0022012108200CF0F6
:1030F0000BFF08200CF046FF0022012109200CF0F4
:1031000003FF09200CF03EFF002201210A200CF0F1
:10311000FBFE0A200CF036FF0022012117200CF0E4
:10312000F3FE17200CF02EFF0022012128200CF0C6
:10313000EBFE28200CF026FF002205214D200CF08C
:10314000E3FE4D200CF01EFF002211462C20514CB6
:103150000CF0DAFE2C200CF015FF94F87E31002BD9
:1031600036D194F87F31002B3DD194F89131002B6A
:1031700044D194F8903143B1B4F87C2140F2077304
:103180009A421CBF012384F8A032434BD86840F018
:103190000100D860DC68414844F00204DC609C68AF
:1031A00044F080049C6000224FF480510DF0F6FC46
:1031B000282009F0E9FE01224FF4805137480DF034
:1031C000EDFC44F6206009F0DFFE012002B070BD86
:1031D000334BD4F884211B685A60FFF741FB94F805
:1031E0007F31002BC1D02F4BD4F888211B685A6047
:1031F000FFF75AFB94F89131002BBAD02A4D05F114
:10320000180393E803006E46002386E803000122BA
:103210001946304600F02AFD05F1200393E803002B
:10322000002386E8030001221946304600F01EFD07
:1032300005F1280393E80300002386E80300012238
:103240001946304600F012FD012009F0F5FEAB6989
:10325000AA8B23B11B691A4214BF01230023286AD9
:10326000AA8C28B101690A4214BF01200020400045
:10327000AA6AA98D32B11269114214BF012200223B
:1032800043EA82031843094B40F068001870FEF7C8
:10329000C3FC6EE7609D0020002004E000040240B3
:1032A000E0010020DC010020181B002068E700205E
:1032B0002DE9F0438FB0EFF3108472B6304F314EEA
:1032C0003A6830689368DFF8D0902F4D23F44013AC
:1032D000936081682D4A01EA09018160286881684C
:1032E00001EA090102F10C08816007CA0DF1080E1C
:1032F0008EE8070098E8070005AB83E807009EE822
:1033000007000DF1200C8CE8070093E807000EABD6
:1033100003E907000EAA034612E903008DE8030043
:103320009CE80700FFF7F4FD396832688868184E9A
:103330002B6840F4801088609068304390609D68EE
:10334000144835439D606FF0040500680D601560FA
:103350001D606FF002050D6015601D606FF02005A7
:103360000D6015606FF001021D600261C36843F0DB
:103370000103C36084F310880FB0BDE8F08300BF81
:10338000A40A00205C0A0020140A0020E88C03082C
:1033900000001010B00D0020FFFFCFCF034B834281
:1033A00000D07047024801F0A1BA00BFC80C00204D
:1033B000345C0020034B834200D07047024801F088
:1033C00095BA00BFC80C0020345C0020034B834238
:1033D00000D07047024801F089BA00BFC80C002035
:1033E000345C0020014809F0A3B800BF0C1B00208A
:1033F0001A4B1B491B681B486FF0010210B51A617C
:103400000A680478C2F3001C64451ED0164C80F88C
:1034100000C0236803F52453043302F01002236034
:103420002AB140F2D663CB638B634B6310BD0F4868
:103430000F4B90F8B4221A70A0F5804006F01AFDE8
:103440000C4B4D22C3F8002E10BDBDE810400A48B9
:103450004FF40022002308F081B800BFB00D002017
:1034600000040140041B0020081B0020609D002078
:103470003C5C002000E100E0C85900202DE9F04349
:1034800087B002ACDFF8308100232046C4E9013365
:10349000D8F800500293E360FFF792FD002871D046
:1034A0003F4B5B6C13F4004365D004AF97E8030017
:1034B0008DE803003B4894E80C00A5F2566108F043
:1034C000BDFA2946384807F02BFB384B384A596A71
:1034D000490089B213689B07FCD5344BDFF8DC90B8
:1034E0005B6A99F80000334E5B009BB25A1A18B120
:1034F000C6E9BA13C6F8F022D6F8F432934238BFC0
:1035000013462046C6F8F432FFF75AFD60B397E839
:1035100003008DE8030005F50A5194E80C002148EA
:103520002E3108F0B3FB05F5E9411E48363108F0AD
:1035300019FC05F52455D8F8003004359D4204D017
:1035400018481022002308F009F896F8B4321BB18D
:1035500099F8003083F00103002286F8B43289F82C
:10356000002007B0BDE8F0830E484FF00072002342
:1035700007F0F4FFCBE79DF8142052B10293C4E9A1
:10358000013392E707484FF00072002307F0E6FF8F
:1035900086E701230292C4E901228DF8143084E702
:1035A00000000140C8590020605D0020001C004060
:1035B00000210140609D0020081B00203C5C002091
:1035C00001480DF059BD00BFB00B002001480EF0BE
:1035D00027BA00BFB00B002001480EF08DBB00BF22
:1035E000F813002010B53821044622F02FFB2046A6
:1035F00010BD00BF10B55021044622F027FB204625
:1036000010BD00BF2DE9F04FCA4BCB4DCB4E2B6008
:1036100018336B60CA4BCB4FCB4ADFF890833260D4
:10362000C5E902634FF400532B82C84BEB61A1B094
:1036300004230024C64A2B840F2138466C612C8356
:1036400085F82C40746009F071F9C24AC2493846C5
:1036500022F078FA404609F091F9BE4ABF49404647
:1036600022F070FA2B46CDE900579FEDBD0ABD4907
:10367000BD48CDF80880062207F0CAFDBB4B069670
:103680004FF480624FF480711E93ADF87C201C9340
:103690001A93ADF86C1018934FF4007120ABADF88D
:1036A000741013E9030004ADADF8642085E803004D
:1036B0001CAB93E8030002AA82E803001AAB93E86C
:1036C000030018AB0CCB8DE80300A949A94803F00F
:1036D0008DFBDFF8DCC2DFEDA87A63460CF1580100
:1036E0003222C3ED007A5A601C815C819C829C75F9
:1036F000C3ED067AC3ED077AC3ED087AC3ED097A04
:1037000083F82840C3E903442C338B42E9D19B4B17
:103710009B4D9C4A1A609C4A9C486A60AA609C4ADD
:10372000EA609C4A42619C4A82619C4A026200F5BE
:1037300040514FF0FF42426201F69407984AC2623C
:10374000B7EE007A02264FF00108B3EE046AF0EEFD
:10375000006A01F509620B9701F6980780ED0A7A75
:1037600080ED046AC0ED076AC3E902449C8083F8D7
:10377000068080F830402C602C74C5ED057AC5EDCC
:10378000067AC5ED077AC5ED087AC5ED097AC5ED6B
:103790000B7AC5ED0D7AC5ED0F7AAE622E63AE637E
:1037A0000A920C970A9A80ED0D7A82ED007A0B9AB4
:1037B00001F50A6782ED007A0C9A0D9782ED007A86
:1037C0000D9AF2EE045A01F50B6701F6D80EC2ED20
:1037D000005A0E97CDF848E000F5635201F50E6EE1
:1037E000C2ED005A01F6B8070E9ACDF84CE001F68A
:1037F000E80E0F97CDF850E001F50F6EC2ED007A9C
:1038000001F6BC070F9ACDF854E001F6F80E1097B8
:10381000CDF858E001F6FC0E82ED006A01F6C4070F
:10382000109ACDF85CE0DFF88CE1119701F6AC0A54
:1038300001F6D407C0F800E040F2031BDFF878E19E
:10384000C1F8A4E8A0F80CB08AED007A82ED006A15
:10385000C7ED007A129A119FC2ED007A139AA1F86F
:103860008C48C2ED007A149A81F89C88C2ED007AE7
:10387000159AC1F8CC48C2ED007A169A81F8D04862
:10388000C2ED007A4FF0FF3281F8A82881F8B42801
:103890004FF07A524264434A3A60179A81F8DC4802
:1038A000C2ED007A404A81F8E4484FF4806981F81B
:1038B000EC4881F8F448C0ED106AC2ED016AC0F826
:1038C0003890C0ED0F7A846408930323CDF818C0B4
:1038D000029581F83249C1F83C691460009300F503
:1038E000645305920390C3ED007A01F60413C3ED0F
:1038F000007A01F60813C3ED007A01F60C13C3ED4C
:10390000007A01F51163C3ED007A01F61413C3EDDB
:10391000007A01F61813C3ED007A01F61C13C3ED0B
:10392000007A01F51263C3ED007A01F62413C3EDAA
:10393000007A43E0D4900308005C0020345C00204F
:1039400000080240C85B0020C80C0020000C0240A8
:103950006090030800000020092F00080D2F0008C8
:10396000FFFFF944B00D0020C859002000000240BC
:10397000D00E00202458002000000000BC5700207A
:103980007C5700203895030800007A44381E002038
:103990000118CF3AABAA2A3EABAAAA3E9A99993F00
:1039A0000AD7233C000020C1F81D0020785B0020CE
:1039B000CC5700206C9203080001010101F6281386
:1039C000C3ED007A01F62C13C3ED007A01F634132F
:1039D000C3ED007A4FF480754FF07C53A1F8305955
:1039E0009360D36000F56550264BC0ED007A01F678
:1039F0003811C1ED007A0793234B0493234B0193B5
:103A0000424633460021224801F0A2F9214B224AC6
:103A100022491C600420988398864FF400409887C0
:103A20004FF400709C80A3F854001D4CA3F86C0068
:103A30001C489A601A619A611A629A639A641A65BC
:103A40009A65194A8A60C1E90040184A1A6300F170
:103A500080401A641A669A6600F2FF7008221021EC
:103A6000A3F80C80A3F85C909E82A3F84C50A3F8B6
:103A700064509A8498629985A3F8442021B0BDE8E7
:103A8000F08F00BFF8570020C859002024580020AC
:103A9000881B0020181B0020000002400C1B002087
:103AA000F80D0020010002000300040000040240A1
:103AB000DFF834D00D480E490E4A002302E0D458F6
:103AC000C4500433C4188C42F9D30B4A0B4C002366
:103AD00001E013600432A242FBD3FEF7B9FB2BF0E6
:103AE0003BF806F02DFA704700000220000000208D
:103AF00098090020D0F404089809002014F7002049
:103B0000FEE7000001207047B6EE000A704700BFD4
:103B1000B6EE000A704700BF9FED010A704700BF74
:103B20005E74513F9FED010A704700BF5E74513FC4
:103B300090F82C00A0F10200B0FA80F04009704724
:103B400090F82800A0F10200B0FA80F04009704718
:103B500090F82C302BB1C36923B11B69028C1A4237
:103B600000D07047002380F82C3070472DE9F04FCB
:103B7000074691B041F400464FF0010A4FF47A7BBA
:103B800027F8286FCDE90CAB00230B930A9700F1BF
:103B90000C092A4D0F92044699E803000DF1200804
:103BA00005F10C0E88E80300BEE80F00EC46ACE817
:103BB0000F009EE80F008CE80F0095E80E00A0684B
:103BC00000F04CFE20B90025284611B0BDE8F08F6A
:103BD000504609F0D9F90A97CDF834B02685CDF8CA
:103BE00030A099E8030004F12A030B9305F10C07B8
:103BF0004FF6FF7388E8030063850FCF6E460FC64C
:103C000097E80F0086E80F0095E80E00A06800F026
:103C100025FE05460028D6D0504609F0B5F9638D3B
:103C20004BF6EF629342CED00F9A002ACCD0C3F36A
:103C30000A032846138011B0BDE8F08FF8900308FE
:103C400010B582B001AA00210446FFF78FFF48B1EA
:103C50000DF106024FF400612046FFF787FF01389F
:103C600002B010BD4FF0FF3002B010BD70B5046857
:103C7000694DAC4288B064D0684DAC4218D0684DF4
:103C8000AC4200F08280674DAC4200F08C80664D03
:103C9000AC426CD0654DAC4200F09380644DAC42B8
:103CA00000F0AB80634DAC4200F09980002046E00C
:103CB00005F55055002601962E6B46F002062E6340
:103CC0002D6B05F002050195019DB0F804C05FEA77
:103CD0005C0C48D0002001305FEA5C0C80B2FAD165
:103CE0004FEA400C4FF0030E0EFA0CFE02FA0CF2F3
:103CF0006FEA0E0E266801F0030506EA0E0605FAC5
:103D00000CF53543256021F01005013D012D10D83B
:103D1000A56803FA0CF305EA0E052B43A36063685C
:103D200009090125814005FA00F023EA000319433F
:103D30006160E36803EA0E031A430120E26008B001
:103D400070BD05F56055002600962E6BB0F804C0D6
:103D500046F001062E632D6B05F0010500955FEA24
:103D60005C0C009DB6D16FF0030E6046C2E705F50E
:103D70002055002604962E6B46F010062E632D6B00
:103D800005F010050495049D9FE705F540550026B4
:103D900002962E6B46F004062E632D6B05F004058B
:103DA0000295029D91E705F53055002603962E6B8E
:103DB00046F008062E632D6B05F008050395039D5C
:103DC00083E705F51055002605962E6B46F0200674
:103DD0002E632D6B05F020050595059D75E705F50E
:103DE000E055002607962E6B46F080062E632D6B5D
:103DF00005F080050795079D67E705F50055002646
:103E000006962E6B46F040062E632D6B05F040059E
:103E10000695069D59E700BF0000024000040240DD
:103E200000080240000C0240001002400014024052
:103E300000180240001C02402DE9F041B0F804E0F7
:103E40005FEA5E0E82B000F09D804FF0000C0CF136
:103E5000010C5FEA5E0E1FFA8CFCF8D1BCF10F0F6B
:103E6000644600F28180514D0CEB4C0E05EB8E0E3A
:103E70000668BFF35B8F5EE8007F002F04D14EE839
:103E80000068B8F1000FF6D1BFF35B8F6CD1484EDC
:103E9000DFF8248100270197776C47F48047776427
:103EA0004FEA940E766C4FEA8E0E0EF1804E06F4B9
:103EB00080460EF59C3E01960CF0030C019EDEF848
:103EC00008604FEA8C0C0F2707FA0CF726EA070662
:103ED000076847451CD008F5806847454DD0DFF896
:103EE000DC80474553D0DFF8D880474540D0DFF825
:103EF000D480474550D0DFF8D080474551D0DFF817
:103F0000CC8047450CBF0627072707FA0CF73E432E
:103F1000CEF8086086882748F743D9B9816821EA36
:103F2000060181602349DAB1CA683243CA60214A76
:103F300004EB440405EB840154683C40546014686D
:103F4000344314605661089A0120C1E9013202B07D
:103F5000BDE8F0818168314381601649002AE3D1D0
:103F6000CA683A40CA60E2E7002002B0BDE8F081CA
:103F7000032707FA0CF73E43CAE7012707FA0CF7B5
:103F80003E43C5E7094DF4467446AE4670E7022746
:103F900007FA0CF73E43BBE7042707FA0CF73E434A
:103FA000B6E7052707FA0CF73E43B1E7485C002067
:103FB00000380240003C014000000240000802407E
:103FC000000C0240001002400014024000180240A1
:103FD00081884A0822D00023013352089BB2FBD1CA
:103FE0000F2B1AD803EB43030D4A00684FEA830CEA
:103FF00030B452F80C40844202EB830301D030BC51
:104000007047084C256800200D432560616130BC75
:10401000C3E9010042F80C00704770471346E1E71E
:10402000485C0020003C0140054B5A69D20706D588
:1040300004494A68012058610AB1886810477047EE
:10404000003C0140485C0020054B5A69920706D5A8
:1040500004490A69022058610AB14869104770474B
:10406000003C0140485C0020054B5A69520706D5C8
:104070000449CA69042058610AB1086A10477047A8
:10408000003C0140485C0020054B5A69120706D5E8
:1040900004498A6A082058610AB1C86A1047704703
:1040A000003C0140485C0020054B5A69D20606D509
:1040B00004494A6B102058610AB1886B1047704759
:1040C000003C0140485C00201E4B5A69920610B526
:1040D00006D51D490A6C202058610AB1486C9047EA
:1040E000184B5A69540606D51749CA6C40205861C6
:1040F0000AB1086D9047134B5A69100606D512494C
:104100008A6D802058610AB1C86D90470D4B5A697D
:10411000D10507D50C494A6E4FF4807058610AB139
:10412000886E9047074B5A69920509D506490A6F70
:104130004FF4007058611AB1BDE81040486F104745
:1041400010BD00BF003C0140485C00202B4B5A6969
:10415000510510B508D52A49CA6F4FF480605861DF
:1041600012B1D1F880009047244B5A69120509D545
:104170002349D1F888204FF40060586112B1D1F87A
:104180008C0090471D4B5A69D40409D51C49D1F8BD
:1041900094204FF48050586112B1D1F898009047A4
:1041A000164B5A69900409D51549D1F8A0204FF44F
:1041B0000050586112B1D1F8A40090470F4B5A69D2
:1041C000510409D50E49D1F8AC204FF48040586114
:1041D00012B1D1F8B0009047084B5A6912040BD5C0
:1041E0000749D1F8B8204FF40040586122B1BDE82A
:1041F0001040D1F8BC00104710BD00BF003C01408A
:10420000485C0020024B00221A609A80704700BF71
:10421000405C002030B5002387B041680391012243
:10422000CDE901330223CDE9042305460CF082F9E0
:104230000A4BF322DA60694601A80CF07BFA38B920
:10424000EB682B6004460CF089F9204607B030BDBE
:104250000CF084F90CF08CF907B030BD003C024042
:104260002DE9F0410646C06888424FD8B4688818E6
:10427000A0424BD21D0145EA83051D4345EA831543
:104280004B0003F0060301F00308FF249C40904418
:1042900021F003070CF04EF91E4BE443F322EDB27C
:1042A000E4B2DA600EE0316945EA0402002301EB72
:1042B0009701D2B218460CF08BF9A8F10408043724
:1042C0000446E8B9B8F1030FEDD8B8F1000F12D0E9
:1042D000C8F104084FEA4808FF223169254342FA31
:1042E00008F2002365EA020201EB97011846D2B2F8
:1042F0000CF06EF920B90CF031F90020BDE8F08126
:104300000CF02CF9BDE8F0410CF032B94FF0FF3061
:10431000F4E700BF003C0240F0B54FEA021CC4685D
:1043200005464CEA820CC81C20F003004CEA020C43
:1043300004F1040E4CEA821C70454FFA8CF6A0EB97
:1043400001075FFA8CFC37D3421E2D699208AA5CE4
:10435000D2B27FB17F00FF213941C943C9B222EAFD
:1043600001020CEA01010A4304E077451FD36A5CAD
:104370003846D2B2411F62454FEA9101A0F10407CD
:10438000F3D006F00306B6EB921F4FEA921510D158
:10439000A04202D80DE0A04207D09200C2F38111E2
:1043A0008D4200F1FF30D2B2F5D01970F0BD384621
:1043B000E7E729461970F0BD6246E2E730B5184CD0
:1043C00083B0A1680DF1050303222046FFF7A4FF87
:1043D0000DF1060303222060216A054604F118004E
:1043E000FFF79AFF0F4BA06100221A709DF806207C
:1043F0009AB9012205461A7004F118000DF107035D
:1044000029460022FFF788FF00230749074A2D1A93
:1044100018460D60136003B030BD2046EEE700BFC4
:10442000E4010020105D0020085D00200C5D0020EC
:1044300010B50949094C0020E268636A08702046FB
:104440002260A361FFF7E6FE034604F118001C4654
:10445000FFF7E0FE204310BD105D0020E4010020C6
:10446000064B074A1B78C3F1010303EB430302EB3E
:10447000C303D3E90203C01AC0007047105D0020D7
:10448000E401002038B5104C256800EB020CBCEBB1
:10449000C50F15D8034608460C4991F800C00C49D1
:1044A0000CEB4C0C51F83C4001EBCC01A4EB050C9F
:1044B000496903EBCC031944FCF762F8002038BDCE
:1044C0004FF0FF3038BD00BF085D0020105D0020B8
:1044D000E4010020F8B5134B134E1B78C3F1010320
:1044E00003EB430306EBC305DC00D5E902320730DA
:1044F0009A1AB2EBD00F12D33159C7085B1ABB42DC
:1045000004D22846FFF786FE40B9315901233A46C6
:104510002846FFF7A5FE08B9044B1F60F8BD4FF011
:10452000FF30F8BD105D0020E40100200C5D00208C
:104530003A4B2DE9F04115461A684319B3EBC20F07
:1045400069D8374B04461F7888460BF0F3FF354B8C
:10455000F322DA60A207C7F1010720D0002D55D061
:10456000314E07EB470306EBC30603E0A30716D063
:10457000002D4BD032687169002301EBC201214448
:1045800018F8012B18460CF023F80134013D0028DF
:10459000ECD00BF0E3FFBDE8F0410BF0E9BF032DD9
:1045A00017D9214E07EB470306EBC30601E0032DA5
:1045B0000FD93368716958F8042B01EBC30121440A
:1045C000002302200CF004F8043D04340028EED04F
:1045D000DFE7DDB1144E07EB470306EBC30608EB3C
:1045E0000507454601E0BD4210D07269316802EB13
:1045F000C10121440023A1EB08012944184615F804
:10460000012B0BF0E5FF0028EDD0C2E70BF0A6FF71
:104610000020BDE8F0814FF0FF30FAE70C5D00208C
:10462000105D0020003C0240E40100202DE9F04133
:104630001D4E1E4D34781E4FC4F1010000EB4000AA
:104640004FEAC0083A6855F8081005EBC00000238F
:10465000FFF706FE08BB3A6855F808303860134487
:1046600045F80830134B1A6004EB4403DF0005EBF8
:10467000C3033278D3F808C0E95904EB4404C2F10B
:1046800001036145337005EBC40008D201231A46CB
:10469000FFF7E6FDEB590133EB51BDE8F081BDE8D2
:1046A000F041FFF7B7BD00BF105D0020E40100201E
:1046B0000C5D0020085D00200170704702680B68E7
:1046C0009A4201D00020704742684B689A42F9D163
:1046D00082688B689A42F5D1C268CB689A42F1D160
:1046E00002690B699A42EDD142694B699A42E9D15C
:1046F00082698B699A42E5D1C269CB699A42E1D15C
:10470000026A0B6A9A42DDD1426A4B6A9A42D9D157
:10471000806A8B6AC31A58425841704748304FF03C
:104720000102BFF35B8FD0E84F3FC0E8412F002963
:10473000F9D1BFF35B8FD8B2B0FA80F0400970476F
:10474000002380F848307047F8B54468F4B1066833
:104750000546311D2046FFF7B1FFC8B1E06A0028C9
:1047600032D0218E00220CF019FA2E68B36C93F827
:104770003530012B04D1F36C93F83530012B2DD05B
:10478000E06A18B1218E01220CF008FA0020F8BD71
:1047900030460EF073FCA446BCE80F002F683E1DA7
:1047A0000FC6BCE80F000FC69CE8070086E80700AC
:1047B00038460EF001FC2E68E06A3268136843F058
:1047C000400313600028CCD1B36C93F83530012B33
:1047D000DCD1F36C93F83530012BD1D1616B71B121
:1047E000A26B3AB1A38F30460EF0C4FC0028C7D1AB
:1047F0000120F8BDA28F30460EF056FCF6E7A16B03
:104800000029BDD0A28F30460EF038FDEEE700BF84
:10481000002310B50C46CB64EFF3108172B64368E9
:1048200000F1040C53B11A46DB6C002BFBD142F8AB
:104830004C4F81F31088944503D010BD446081F340
:104840001088FFF781FF01460028F6D1236C002B6A
:10485000F3D0606CBDE81040184700BF84B0F0B5DD
:1048600097B00DF1740C8CE80E000023CDE91433E1
:104870001D4B1293FF2307468DF80730BCE80F004D
:104880000DF1080EAEE80F00BCE80F00AEE80F0017
:104890009CE8070028AD8EE8070095E803000DAC02
:1048A00084E803002A9B0F932B9B10930DF10706BE
:1048B0002C9B1193384602A91396FFF7A9FF9DF888
:1048C0000730FF2B06D1012008F0B6FB9DF807301A
:1048D000FF2BF8D09DF80700003818BF012017B053
:1048E000BDE8F04004B07047B94600084368E3B142
:1048F00010B50446D86A20B1198E01220CF04EF989
:1049000063681A6C12B1586C01219047EFF3108262
:1049100072B66368DB6C636082F3108823B1204653
:10492000BDE81040FFF710BF10BD704740687047EA
:1049300010B5034B0360044621F04CFB204610BD2C
:10494000C891030810B5054B0360044621F042FBF3
:104950002046082121F07AF9204610BDC8910308AD
:1049600010B50446082021F033FA0349034AC0E990
:104970000014034921F0BCFEC89103083149000826
:1049800080910308B4EE400AF1EE10FA6CBF0120EA
:104990000020704738B52DED068B037B022B0446B3
:1049A00000F0B280012B00F08880002B40F0D7800F
:1049B00090ED028A0123227D022A00F08780012ADD
:1049C00000F0AA80002A40F0CA80D4ED049A0122A7
:1049D00094F82000022800F08680012800F0A180D1
:1049E000002840F0B78094ED067A94ED076A012024
:1049F000002B00F08480002A00F09A80002800F04C
:104A0000A48094F82430A26AA162002B00F0988060
:104A10008B1A07EE903ADFED535AD4ED0B6AF8EE9D
:104A2000677A37EE667AC7EEA5AAD4ED015A27EE6B
:104A3000257AF0EE667AEAEE877AC6EE278AC4ED2A
:104A40000B7A68EEA58AB0EE680AFFF79BFF002894
:104A50007DD1DFED457AC7EEAA6AB0EEE87ADFEDE8
:104A6000437AF4EE476AF1EE10FA48BFF0EE678A37
:104A700094ED0C9A9FED3EAAC4ED0E8AA8EEAA9A78
:104A80000025656378EEA99A89EE0A0AE563C4ED0C
:104A9000109A28F057FCA0EE4A9A39EE088A84ED65
:104AA0000C9A88EE0A0A28F04DFC6564A0EE4A8A4A
:104AB00084ED128ABDEC068B38BD8268002A39D09D
:104AC00092ED008A227D022A7FF479AF2269AAB38F
:104AD000106898BB94F82000D2ED019A02284FF09C
:104AE00001027FF47AAFA06930B3056825BB90ED71
:104AF000017A90ED026A0120002B7FF47CAFBDECBF
:104B0000068B84F8243038BD83689BB11A688AB953
:104B100093ED018A01234EE7206978B1D0ED009A28
:104B200056E7A56945B195ED007A95ED016A5FE715
:104B30001346E4E700233EE7002059E7002247E759
:104B400000220123E2622263D9E70346D7E7DFEDC3
:104B5000078A8DE7FF2802D10648FFF701FF0648C4
:104B6000FFF7FEFEA037204DCDCCCC3D000000006D
:104B7000DB0FC94048910308249103089FED1F7A79
:104B8000F5EE007AE0EE077AF5EEC07AF1EE10FA73
:104B9000BDEEE77A04D517EE103A013B07EE103A66
:104BA000B8EEC77ADFED166A37EEC70A20EE260A9E
:104BB000FCEEC07A17EE903A9BB2B3F5007F18D2A4
:104BC00007EE903AF8EE677A591C30EE670A0D4A04
:104BD00002EB810191ED007A02EB8302F7EE007A9D
:104BE00077EEC07A20EE070A92ED007AA7EE870AE8
:104BF000704730EE660A01210023E8E783F9223E80
:104C000000000044AC590408DFED1E7AB5EEC00A7E
:104C100060EE277AF1EE10FABDEEE77A04D517EED2
:104C2000103A013B07EE103AB8EEC77ADFED166A8C
:104C300037EEC70A20EE260AFCEEC07A17EE903A4D
:104C40009BB2B3F5007F18D207EE903AF8EE677A80
:104C5000591C30EE670A0D4A02EB810191ED007A92
:104C600002EB8302F7EE007A77EEC07A20EE070AB5
:104C700092ED007AA7EE870A704730EE660A0121AE
:104C80000023E8E783F9223E00000044AC59040801
:104C9000D0ED067AF5EEC07AF1EE10FA15D49FED5C
:104CA0000D7AF4EEC77AF1EE10FA03DD0A4BC0F884
:104CB000683270479FED097A67EE877AFCEEE77AF3
:104CC00017EE903AC0F8683270470023C0F8683297
:104CD000704700BF300E034900B6F7FF0000FA45E9
:104CE00003680B400360704703680B430360704721
:104CF00090F82C32B3B1D0F8443223B11B69B0F82C
:104D000048221A420FD1D0E98C31013B41F1FF31E9
:104D1000D0F8E02002F540524FF0010CC0E98C3190
:104D200082F830C97047D0E98C31013341F100017C
:104D3000EEE700BF836810B5044613B103220146B5
:104D40009847204610BD00BFC043704700000000D8
:104D50002DE9F04F044641606381A349A34B2360D2
:104D60000C9BBDF9240022818946A08103F5405A9D
:104D70000F46B9E80F00DFED9E7A9FED9E1AC4ED55
:104D8000067A002504F1240EC4E904552577C4F8F9
:104D90001E50AEE80F0099E8070040F2011B8EE8B4
:104DA000070084ED0E1AA4F83DB00FCF04F1400CBB
:104DB000ACE80F0099E807004FF001038CE807000A
:104DC00084F8583064220A23C4E920230A9BC4F8DB
:104DD0008C30DFED891A9FED892A9FED893ADFED4E
:104DE000893ADFED894A9FED895ADFED895A894B6F
:104DF000C4F89030F2EE042A0C9B9FED877AC4ED44
:104E0000131AB3EE044A84ED142AC4ED172A84ED74
:104E1000183AC4ED193A84ED1A4AC4ED1B4A84EDE0
:104E20001C5AA4F8745084F87650A56784F87C5016
:104E3000C4F88850C4ED255AC4F8E030774BC4F864
:104E4000E43002260B9BC4F8DC30C4E94156C4EDC3
:104E5000267A84F89C50C4ED287A84F8A450C4EDD6
:104E60002A7AC4ED2B7A84F8B05084F8B450C4F890
:104E7000B850C4ED2F7AC4ED307AC4F8C460C4EDE4
:104E8000327AC4F8CC60C4ED347AC4F8D460C4ED8E
:104E9000367A84ED3A7A84ED3B7A84ED3C7AC4ED3F
:104EA0003D7AC4ED3E7AC4ED3F7AC4ED407AC4ED5C
:104EB000437AC4ED447AC4F81461C4ED467A0D9B7C
:104EC000C4F838310E9BC4F83C310F9BC4F8403114
:104ED000109BC4F84431119BC4ED477AC4E95235A4
:104EE0004FF40063C4E95455C4E95655C4E9585514
:104EF000C4E95A55C4E95C55C4E95E55C4E9605536
:104F0000C4F82061C4ED497AC4F82861C4ED4B7A35
:104F1000C4ED4D7AC4F83061C4E96255C4E9645502
:104F2000C4E96655C4E96855C4E96A55C4E96C55D5
:104F3000C4E96E55C4E97055C4E97255C4E97455A5
:104F4000C4E97655C4E97855C4E97A55C4E97C5575
:104F5000C4E97E55C4E98055C4E98255C4F82032BD
:104F60000A9BC4F81852C4E98455C4E99855C4F89A
:104F70003C52A4F84052C4F84452A4F8485284F871
:104F80005C521C630B9B84F84C621C600D9BCAF83E
:104F9000CC489FED136BC3F884400E9BC4F81C52A1
:104FA00004F24D2884ED8C6B84F82452C4F8285206
:104FB00084F82C52C4F83852C4F84D52C4F85152F7
:104FC000A4F85552C4F85882C4F868521C600F9B6C
:104FD0001C61109B1C61119B2046DC60BDE8F08FBA
:104FE0000000000000000000008D03081C92030870
:104FF0000000000063141D44000048430000C84343
:10500000CDCCCC3EDB0F4940000020420000C8421E
:10501000C74B6B41DC9103080000807F04960308B6
:105020003B4BDFED3C3A9FED3C4ADFED3C4ADFED88
:105030003C5A9FED3C6A9FED3C7ADFED3C7A2DE9CE
:10504000F04F4FF000099E469A4600238446C0E97F
:10505000049980F81C90836100F1240600F140045B
:10506000BEE80F008FB0E846A8E80F009EE80700F2
:1050700088E80700BAE80F000DF11C0B5D46ABE8AD
:105080000F009EE8070040F201138BE807006F460F
:10509000ADF819304FF001038DF834300FCFCDED5E
:1050A000053A0FC697E807008DED0A4A86E8070023
:1050B0000FCDCDED0B4A0FC495E807000A2384E815
:1050C00007006421CCE92013DCF80820DCF8043068
:1050D000CCED185AB2EE045AF3EE046A8CED175A6E
:1050E0008CED196ACCED1A6A8CED1B7ACCED1C7A2A
:1050F000ACF874908CF876908CF87C90CCF8889012
:10510000CCF81E20CCF878300FB0BDE8F08F00BF8F
:10511000008D030863141D44000048430000C84389
:10512000CDCCCC3EDB0F4940000020420000C842FD
:1051300010B586B00022D0F82032CDF80E20ADF8A0
:1051400012200B490B4AB0F80CC0ADF80CC0044655
:10515000CDE901129B08014601A8059307F03EFF27
:105160000123C4F81C0284F8243206B010BD00BF2D
:10517000A4570408955F000800B585B068464FF055
:10518000FF32012107F08AFF68464FF0FF3201210C
:1051900007F084FF68464FF0FF32012107F07EFFE1
:1051A000012005B05DF804FB10B4C28B124C0D2A2F
:1051B00094BF04EBC2022246034692E8030083B088
:1051C0006A4682E80300198CC3F83C020D299088D6
:1051D00088BF0949A3F8400298BF04EBC10103C985
:1051E00082E803009288C3F84402A3F8482203B07F
:1051F0005DF8044B704700BF181B002010B5044633
:10520000C0F88800FFF7D0FF2368134A1B68934259
:105210001DD1D4ED067AF5EEC07AF1EE10FA14D471
:105220009FED0E7AF4EEC77AF1EE10FA04DD0C4B26
:10523000C4F86832012010BD9FED0A7A67EE877AC4
:10524000FCEEE77A17EE903AF2E70023F0E720460B
:105250009847012010BD00BF914C0008300E034953
:1052600000B6F7FF0000FA4538B504460D46D0F801
:10527000380106F0F9F9D4F83801294606F0D6F9D4
:10528000D4F840319A7AAAB11A7D5B7D934211D04D
:1052900082B1D4F858321B780B2B0BD04FF48051CD
:1052A00004F50A70FFF720FDD4F82802B0FA80F068
:1052B000400938BDD4F844319A7A002AF4D01A7DD6
:1052C0005B7D9342F0D0002AEED0D4F858321B78A0
:1052D0000B2BE9D04FF4005104F50A70FFF704FDE1
:1052E000E2E700BF08B5037F2BB1D0F8682222B1F6
:1052F000013AC0F86822012008BD4FF4006100F5B2
:105300000A70FFF7F1FC104608BD00BF2DE9F0431D
:105310002DED048B044687B00D4691461E46EFF3F3
:10532000108772B691ED007A91ED016AD0F83831AC
:10533000CA68C0F8F020C7EE066A93F83820D5F89E
:1053400010800021C0F80811C0F81411C0F8201115
:10535000C0F82811022A00F5847E00F58A7C00F549
:10536000907004F59471DFED817A40ED0E6A40EDA6
:105370000D6A40ED057A40ED047A40ED027A40ED89
:10538000017AC0ED017AC0ED037AC4F8F4804FF0E1
:105390000008C4F8348116BFF0EE476AF0EE676A81
:1053A000B0EE677A4FF00008023AC4ED3E6A84ED31
:1053B0003F7AC4F8308118BF012283F8E02093F8C7
:1053C000EC20C3F8E4E0022A1CBF022283F8EC20A0
:1053D00093F8F820C3F8F0C0022A1CBF022283F819
:1053E000F82093F80021022A1CBF022283F8002132
:1053F000C3F8FC0094F89C20C4F89800022A1CBF53
:10540000022284F89C2093F88821C3F88411022A90
:105410001CBF022283F8882193F80821C3F80411E5
:10542000022A1CBF022283F8082194F8A430C4F891
:10543000A010022B1CBF022384F8A43087F310882D
:105440004FF0FF320121684607F028FE4FF0FF328F
:105450000121684607F022FE68464FF0FF32012125
:1054600007F01CFED4F8380100F1C80105F0B0FFC8
:10547000D5ED047A94F84C32F5EEC07AF7EE008A56
:10548000FFEE007AF1EE10FAB8BFF0EE678A002B5B
:105490004ED19FED379A9846D4F8383193F89C70E6
:1054A000002F47D0D5ED047A94ED4B8A94ED4D7AD8
:1054B00038EE678AD5ED057AB0EEC88AB4EEC98AAF
:1054C000F1EE10FA28EE877A68EEA77A02D82A7EE3
:1054D000002A41D1B4EEE77AF1EE10FA02DB6A7EDF
:1054E000002A39D1D4F88C0090F88E208ABBB4EE13
:1054F000C98AF1EE10FA03D8B8F1000F25D0B846EA
:10550000B36873B1B4EEC98AF1EE10FA94BF012208
:105510000022F3688DF817200DF1170130469847E7
:1055200030B1012007F088FD94F84C32002BB3D045
:10553000D4F8383100270021184605F08BFF384693
:1055400007B0BDEC048BBDE8F083012101F0B6FD8E
:10555000D5E7AA7E002AD3D0B9F1000FEBD04F4691
:10556000384607B0BDEC048BBDE8F08300000000B6
:1055700000000034F0B5C57D89B00446002D40F030
:10558000ED80EFF310873E4672B6D0F8E00000F5EC
:10559000405393F8B428002A40F03E81BB4A93F868
:1055A000E478D2F88C2002F1E001022FC3F8E01871
:1055B00093F8F41818BF022700F1340018BF83F8DD
:1055C000E478012918BF0121C3F8F00893F8DC083A
:1055D00018BF83F8F41802F1D0010228C3F8D818D4
:1055E00093F8EC181CBF022083F8DC08D83202299B
:1055F000C3F8E82802D0022283F8EC28D4F8E000AF
:1056000000F00EFED4F8E020D4F8383102F5405115
:10561000012081F8300902F5645000270760024636
:1056200093F88001022802F13C021CBF022083F89B
:105630008001C3F87C21002D40F08980D4F88C20B3
:10564000D2ED177AF8EEE77A93F8380093F8EC7019
:10565000C3ED637A821E18BF0122022F1CBF0227EE
:1056600083F8EC7093F8F87083F8E020022F03F5CC
:10567000CE72C3F8E42018BF022703F5C87218BF22
:1056800083F8F870C3F8F020002D63D0D4F8DC2044
:10569000283294F89C70C4F89820022F1CBF02276F
:1056A00084F89C7093F80071032808BF04F1D402B9
:1056B000022F1CBF022783F80071C3F8FC20002DC5
:1056C00041D0D4F8DC20303294F8A470C4F8A02083
:1056D000022F1CBF022784F8A470032893F88801C6
:1056E00008BF04F1CC0202281CBF022083F8880105
:1056F00093F80801C3F8842102281CBF022083F814
:105700000801C3F804219DB1D3ED087A9FED607ABA
:10571000D4ED146AF8EEE77A01F60C1367EE877A97
:1057200001F6FC0186EEA77A83ED007A81ED007A1E
:1057300086F31088D4F8383193F89C30002B52D07F
:10574000012009B0F0BDD4F88C20A432BCE7F7EEFC
:10575000007A79E7D4F88C209C329AE70023CDE9CF
:105760000433CDE90633012204AB00F14001FFF719
:10577000CDFD069B06461BB104A9032208469847A7
:10578000002E76D0EFF3108672B6D4F8E03003F531
:10579000405393F8DC2893F8EC18022A1CBF02222D
:1057A00083F8DC280022C3F8D82893F8E428022ADA
:1057B0001CBF022283F8E4280022C3F8E02893F8F3
:1057C000F428022A1CBF022283F8F4280022C3F81E
:1057D000F028D4F8DC20022902F13802C3F8E828C6
:1057E0007FF409AF0AE768464FF0FF32012107F066
:1057F00055FC68464FF0FF32012107F04FFC684628
:105800004FF0FF32012107F049FCD4F8380100F1D4
:10581000C80105F0DDFD93E793F8E428022A1CBFD8
:10582000022283F8E4280022C3F8E02893F8DC2859
:10583000022A1CBF022283F8DC280022C3F8D828E1
:1058400093F8F428022A1CBF022283F8F4280022CD
:10585000C3F8F02893F8EC28022A1CBF022283F830
:10586000EC280022C3F8E828102100F005FC87F39B
:105870001088002009B0F0BD04A8FFF75BFA20F003
:10588000E3FA86F3108820F0DFFA00BF881B0020BF
:10589000DB0FC94030B5044683B0FFF76BFE637D74
:1058A00004F50F75002B3AD0254B009400220121FE
:1058B0002846FEF7C1FA00283CD0012384F82C3298
:1058C00007E0D4F8383193F89C3001202BB107F071
:1058D000B3FB94F84C32002BF3D0637DC3B1A37DAE
:1058E000B3B1174B0094002201212846FEF7A4FA19
:1058F000D8B1012384F82C32D4F83801002105F006
:10590000A9FDD4F82802B0FA80F0400903B030BDF8
:10591000002384F82C322846FEF75AFBECE784F883
:105920002C322846FEF754FBD3E7064B012283F8BE
:10593000A022DEE7034B012283F8A022BDE700BFCF
:10594000F14C0008609D00202DE9F843D0F840217B
:10595000D0F8E030927A2DED028B04469E8952B940
:105960004FF4003100F50A70FFF7BEF9BDEC028B71
:105970000020BDE8F88303F5405202F6081140F21A
:105980000220D3ED117A9881002501230D6082F861
:10599000303902F60C1302F51162F1EE677A4FF01E
:1059A0000008C3ED007A4FF48050156084F85C82E3
:1059B000FFF7CAF904F50A7701463846FFF790F970
:1059C0002046FFF7D7FD94F84C32A3B1D4F8380144
:1059D000414605F03FFDD4F8E03003F56453DD6047
:1059E000C4E7D4F84021157D75B907F025FB94F87C
:1059F0004C32002B7CD1D4F8383193F89C10012024
:105A00000029EED1184676E00021184605F022FD67
:105A1000D4F8E09009F564534FF00008C3F80C8007
:105A20004FF48050FFF790F901463846FFF758F9D8
:105A3000D4F88C3093ED358A40F20353A9F80C303A
:105A40002046FFF797FDD4F8403194F84C22D3ED6F
:105A5000007AD4F8E03077EE887A03F5405303F605
:105A60000811C1ED007A03F6F80181ED008A03F612
:105A7000FC01C1F800800121A3F8301972B14EE099
:105A8000D4F8E03003F5405393F83159002D3BD161
:105A900007F0D2FA94F84C32002B3AD1D4F83821DE
:105AA00092F89C1001200029EAD1104605F0D2FCA2
:105AB000002D3FF45BAFD4F88C00036800211B6815
:105AC0009847D4F8E02002F5405101F60813002071
:105AD0001860012381F830399681BDEC028BD4F82F
:105AE000280284F85C32B0FA80F04009BDE8F883FF
:105AF000D4F83801294605F0ADFCD4F8E03003F5C0
:105B000064530022DA6031E70021104605F0A2FC60
