:020000040800F2
:100000000000022025570008B523000879240008C5
:100010008D240008B5240008DD240008000000003D
:1000200000000000000000000000000091960108A0
:100030000525000800000000E198010813250008CC
:100040007957000879570008795700087957000850
:100050007957000879570008A55F0008B35F0008CA
:10006000C15F0008CF5F0008DD5F000821250008A0
:1000700079570008352500087957000849250008F8
:100080005D250008712500087957000899250008AA
:10009000AD250008C1250008D5250008EB5F000844
:1000A00079570008795700087957000879570008F0
:1000B0007957000879570008795700087D4E0008E5
:1000C000914E0008795700087957000879570008C1
:1000D0007957000879570008E92500087957000882
:1000E000116000087957000879570008795700080F
:1000F0000D4C0008FD2500087957000885250008EB
:100100007957000879570008F94B000819260008AC
:100110002D260008795700087957000879570008FC
:10012000795700087957000879570008795700086F
:10013000795700080000000000000000795700080F
:10014000795700087957000879570008A54E00082C
:10015000795700087957000879570008795700083F
:10016000795700087957000879570008795700082F
:1001700079570008D14C0008000000000000000082
:080180007957000879570008C7
:1001C000A2EB0300704700BF02780B78012A28BF1A
:1001D0009A42F5D16DE9044540EA0104CDE9026790
:1001E0006FF0000C4FEA447212B380EA010414F07D
:1001F000070F6AD100F0070420F0070004F00305A0
:1002000021F007014FEAC505F0E8042314F0040FBC
:10021000F1E804670CFA05F462EA040266EA0406EF
:100220000AD063EA0403624667EA0407664603E00D
:10023000F0E80423F1E8046782FA4CF582EA060448
:10024000A4FA8CF46CBB83FA4CF583EA0705A5FA93
:100250008CF595B950E9022351E9026782FA4CF511
:1002600082EA0604A4FA8CF483FA4CF583EA0705C3
:10027000A5FA8CF52543DBD09CB92DBAB5FA85F4E7
:1002800024F0070427FA04F1DDE9026723FA04F3F6
:1002900003F0FF0001F0FF01FDE80445A0EB0100C1
:1002A000704724BAB4FA84F424F0070426FA04F15F
:1002B000DDE9026722FA04F202F0FF0001F0FF011B
:1002C000FDE80445A0EB0100704714F0030F3CD19A
:1002D00010F0030428D150F8082B51F8083B82FA9B
:1002E0004CF582EA0305A5FA8CF55DB950F8042CAB
:1002F00051F8043C82FA4CF582EA0305A5FA8CF524
:10030000002DE8D02DBAB5FA85F424F0070423FABD
:1003100004F122FA04F202F0FF0001F0FF01FDE80F
:100320000445A0EB010070474FEAC40420F003002D
:1003300050F8082B21F0030151F8083B0CFA04F4A3
:1003400062EA040263EA0403C9E710F003041AD066
:10035000A1EB040120F00300E40750F8042B06D0C1
:100360000FD28B785FFAA2F4E41A06D12BB1CB78C6
:100370005FFAB2F4E41A00D11BB920465DF8104BC5
:10038000704701F1040150F8042BCC0721F0030160
:1003900051F8043B48D824D222F07F4482FA4CF52D
:1003A00094EA1325A5FA8CF50AD165B951F8043BF6
:1003B00084EA0204B4EB036F0ED150F8042BEBE790
:1003C0004FEA132355E035F07F454DD10878FDE81D
:1003D0000445C0F1000070474FEA126203F0FF03CA
:1003E00047E002EA1C4482FA4CF594EA1345A5FA68
:1003F0008CF50AD165B951F8043B84EA0204B4EBE8
:10040000034F0CD150F8042BEBE74FEA134330E0D5
:1004100015EA1C4528D10B884FEA124229E04FEA21
:10042000124203EA1C4324E002F0FF0482FA4CF576
:1004300094EA1365A5FA8CF50AD165B951F8043B25
:1004400084EA0204B4EB032F09D150F8042BEBE744
:100450004FEA13630DE015F0FF0F05D10B684FEA6B
:10046000122223F07F4304E04FF00000FDE8044532
:10047000704712BA1BBA82FA4CF482EA0304A4FA57
:100480008CF5B5FA85F402FA04F203FA04F34FEAA4
:100490001260FDE80445A0EB136070470000000007
:1004A00001F0FF01102A2BDB10F0070F08D010F825
:1004B000013B013A8B422DD010F0070F42B3F6D129
:1004C000F0B441EA012141EA014122F007047FF042
:1004D00000070023F0E80256083C85EA010586EA99
:1004E000010685FA47F5A3FA87F586FA47F6A5FAD5
:1004F00087F68EB9EED1F0BC01F0FF0102F00702E1
:1005000032B110F8013B013A83EA010313B1F8D18B
:100510000020704701387047002D06BF354603386C
:10052000073815F0010F07D1013015F4807F02BFA5
:10053000013015F4C03F0130F0BC0138704700BFF6
:10054000844641EA000313F003036DD1403A41D3DE
:1005500051F8043B40F8043B51F8043B40F8043B9D
:1005600051F8043B40F8043B51F8043B40F8043B8D
:1005700051F8043B40F8043B51F8043B40F8043B7D
:1005800051F8043B40F8043B51F8043B40F8043B6D
:1005900051F8043B40F8043B51F8043B40F8043B5D
:1005A00051F8043B40F8043B51F8043B40F8043B4D
:1005B00051F8043B40F8043B51F8043B40F8043B3D
:1005C00051F8043B40F8043B51F8043B40F8043B2D
:1005D000403ABDD2303211D351F8043B40F8043BCD
:1005E00051F8043B40F8043B51F8043B40F8043B0D
:1005F00051F8043B40F8043B103AEDD20C3205D3DD
:1006000051F8043B40F8043B043AF9D2043208D0D4
:10061000D2071CBF11F8013B00F8013B01D30B8846
:1006200003806046704700BF082A13D38B078DD024
:1006300010F003038AD0C3F10403D21ADB071CBFF6
:1006400011F8013B00F8013B80D331F8023B20F860
:10065000023B7BE7043AD9D3013A11F8013B00F899
:10066000013BF9D20B7803704B7843708B78837021
:10067000604670470000000000000000000000001D
:1006800090F800F06DE9024520F007016FF0000CD2
:1006900010F0070491F820F040F049804FF000047A
:1006A0006FF00700D1E9002391F840F000F1080055
:1006B00082FA4CF2A4FA8CF283FA4CF3A2FA8CF38D
:1006C0004BBBD1E9022382FA4CF200F10800A4FAF4
:1006D0008CF283FA4CF3A2FA8CF3E3B9D1E9042348
:1006E00082FA4CF200F10800A4FA8CF283FA4CF37F
:1006F000A2FA8CF37BB9D1E9062301F1200182FA39
:100700004CF200F10800A4FA8CF283FA4CF3A2FA3E
:100710008CF3002BC6D0002A04BF04301A4612BA4C
:10072000B2FA82F2FDE8024500EBD2007047D1E94F
:10073000002304F00305C4F100004FEAC50514F0DE
:10074000040F91F840F00CFA05F562EA05021CBFAF
:1007500063EA050362464FF00004A9E781F0004117
:1007600002E000BF83F0004330B54FEA41044FEA96
:10077000430594EA050F08BF90EA020F1FBF54EA31
:10078000000C55EA020C7FEA645C7FEA655C00F0CD
:10079000E2804FEA5454D4EB5555B8BF6D420CDD9E
:1007A0002C4480EA020281EA030382EA000083EA21
:1007B000010180EA020281EA0303362D88BF30BDC1
:1007C00011F0004F4FEA01314FF4801C4CEA113117
:1007D00002D0404261EB410113F0004F4FEA033376
:1007E0004CEA133302D0524263EB430394EA050F01
:1007F00000F0A780A4F10104D5F1200E0DDB02FA70
:100800000EFC22FA05F2801841F1000103FA0EF203
:10081000801843FA05F359410EE0A5F120050EF1C9
:10082000200E012A03FA0EFC28BF4CF0020C43FAFA
:1008300005F3C01851EBE37101F0004507D54FF007
:10084000000EDCF1000C7EEB00006EEB0101B1F557
:10085000801F1BD3B1F5001F0CD349085FEA30009D
:100860004FEA3C0C04F101044FEA445212F5800FA8
:1008700080F09A80BCF1004F08BF5FEA500C50F145
:10088000000041EB045141EA050130BD5FEA4C0C28
:10089000404141EB0101013C28BFB1F5801FE9D285
:1008A00091F0000F04BF01460020B1FA81F308BFA8
:1008B0002033A3F10B03B3F120020CDA0C3208DD74
:1008C00002F1140CC2F10C0201FA0CF021FA02F14F
:1008D0000CE002F11402D8BFC2F1200C01FA02F1BF
:1008E00020FA0CFCDCBF41EA0C019040E41AA2BFE4
:1008F00001EB0451294330BD6FEA04041F3C1CDAAC
:100900000C340EDC04F11404C4F1200220FA04F0CB
:1009100001FA02F340EA030021FA04F345EA030175
:1009200030BDC4F10C04C4F1200220FA02F001FA37
:1009300004F340EA0300294630BD21FA04F02946B9
:1009400030BD94F0000F83F4801306BF81F4801152
:100950000134013D4EE77FEA645C18BF7FEA655CC5
:1009600029D094EA050F08BF90EA020F05D054EA97
:10097000000C04BF1946104630BD91EA030F1EBF9C
:100980000021002030BD5FEA545C05D140004941A0
:1009900028BF41F0004130BD14F580043CBF01F593
:1009A000801130BD01F0004545F0FE4141F4700179
:1009B0004FF0000030BD7FEA645C1ABF1946104654
:1009C0007FEA655C1CBF0B46024650EA013406BF55
:1009D00052EA033591EA030F41F4002130BD00BF14
:1009E00090F0000F04BF0021704730B54FF48064D1
:1009F00004F132044FF000054FF0000150E700BF52
:100A000090F0000F04BF0021704730B54FF48064B0
:100A100004F1320410F0004548BF40424FF000019D
:100A20003EE700BF42004FEAE2014FEA31014FEAE0
:100A300002701FBF12F07F4393F07F4F81F060512F
:100A4000704732F07F4208BF704793F07F4F04BF7A
:100A500041F40021704730B54FF4607401F0004557
:100A600021F000411CE700BF50EA010208BF7047B7
:100A700030B54FF000050AE050EA010208BF7047A8
:100A800030B511F0004502D5404261EB41014FF411
:100A9000806404F132045FEA915C3FF4D8AE4FF019
:100AA00003025FEADC0C18BF03325FEADC0C18BFFC
:100AB000033202EBDC02C2F1200300FA03FC20FA4D
:100AC00002F001FA03FE40EA0E0021FA02F114449A
:100AD000BDE600BF70B54FF0FF0C4CF4E06C1CEAB3
:100AE00011541DBF1CEA135594EA0C0F95EA0C0F24
:100AF00000F0DEF82C4481EA030621EA4C5123EA97
:100B00004C5350EA013518BF52EA033541F48011C5
:100B100043F4801338D0A0FB02CE4FF00005E1FB78
:100B200002E506F00042E0FB03E54FF00006E1FBC2
:100B300003569CF0000F18BF4EF0010EA4F1FF0405
:100B4000B6F5007F64F5407404D25FEA4E0E6D4145
:100B500046EB060642EAC62141EA55514FEAC52056
:100B600040EA5E504FEACE2EB4F1FD0C88BFBCF5D2
:100B7000E06F1ED8BEF1004F08BF5FEA500E50F183
:100B8000000041EB045170BD06F0004646EA010149
:100B900040EA020081EA0301B4EB5C04C2BFD4EB7B
:100BA0000C0541EA045170BD41F480114FF0000E74
:100BB000013C00F3AB8014F1360FDEBF002001F0E2
:100BC000004170BDC4F10004203C35DA0C341BDC5C
:100BD00004F11404C4F1200500FA05F320FA04F02E
:100BE00001FA05F240EA020001F0004221F0004162
:100BF00010EBD37021FA04F642EB06015EEA430ED5
:100C000008BF20EAD37070BDC4F10C04C4F1200504
:100C100000FA04F320FA05F001FA04F240EA0200B7
:100C200001F0004110EBD37041F100015EEA430E88
:100C300008BF20EAD37070BDC4F1200500FA05F2A8
:100C40004EEA020E20FA04F301FA05F243EA020327
:100C500021FA04F001F0004121FA04F220EA020036
:100C600000EBD3705EEA430E08BF20EAD37070BD7C
:100C700094F0000F0FD101F00046400041EB01015C
:100C800011F4801F08BF013CF7D041EA060195F03E
:100C9000000F18BF704703F00046520043EB0303F8
:100CA00013F4801F08BF013DF7D043EA06037047E5
:100CB00094EA0C0F0CEA135518BF95EA0C0F0CD0F0
:100CC00050EA410618BF52EA4306D1D181EA030136
:100CD00001F000414FF0000070BD50EA410606BF30
:100CE0001046194652EA430619D094EA0C0F02D175
:100CF00050EA013613D195EA0C0F05D152EA0336BA
:100D00001CBF104619460AD181EA030101F00041D7
:100D100041F0FE4141F470014FF0000070BD41F020
:100D2000FE4141F4780170BD70B54FF0FF0C4CF4FA
:100D3000E06C1CEA11541DBF1CEA135594EA0C0F19
:100D400095EA0C0F00F0A7F8A4EB050481EA030E66
:100D500052EA03354FEA013100F088804FEA03334D
:100D60004FF0805545EA131343EA12634FEA02221B
:100D700045EA111545EA10654FEA00260EF00041DC
:100D80009D4208BF964244F1FD0404F5407402D22E
:100D90005B084FEA3202B61A65EB03055B084FEABF
:100DA00032024FF480104FF4002CB6EB020E75EBBC
:100DB000030E22BFB61A754640EA0C005B084FEAE4
:100DC0003202B6EB020E75EB030E22BFB61A754661
:100DD00040EA5C005B084FEA3202B6EB020E75EBAC
:100DE000030E22BFB61A754640EA9C005B084FEA24
:100DF0003202B6EB020E75EB030E22BFB61A754631
:100E000040EADC0055EA060E18D04FEA051545EA1F
:100E100016754FEA06164FEAC30343EA52734FEAC8
:100E2000C2025FEA1C1CC0D111F4801F0BD141EA41
:100E300000014FF000004FF0004CB6E711F4801FA6
:100E400004BF01430020B4F1FD0C88BFBCF5E06F86
:100E50003FF6AFAEB5EB030C04BFB6EB020C5FEA96
:100E6000500C50F1000041EB045170BD0EF0004EEB
:100E70004EEA113114EB5C04C2BFD4EB0C0541EA1D
:100E8000045170BD41F480114FF0000E013C90E61A
:100E900045EA060E8DE60CEA135594EA0C0F08BFDE
:100EA00095EA0C0F3FF43BAF94EA0C0F0AD150EADD
:100EB00001347FF434AF95EA0C0F7FF425AF104670
:100EC00019462CE795EA0C0F06D152EA03353FF498
:100ED000FDAE1046194622E750EA410618BF52EA15
:100EE00043067FF4C5AE50EA41047FF40DAF52EAE9
:100EF00043057FF4EBAE12E74FF0FF3C06E000BF86
:100F00004FF0010C02E000BF4FF0010C4DF804CD92
:100F10004FEA410C7FEA6C5C4FEA430C18BF7FEA52
:100F20006C5C1BD001B050EA410C0CBF52EA430C80
:100F300091EA030F02BF90EA020F0020704710F100
:100F4000000F91EA030F58BF994208BF90422CBF8F
:100F5000D8176FEAE37040F0010070474FEA410C88
:100F60007FEA6C5C02D150EA013C07D14FEA430CA6
:100F70007FEA6C5CD6D152EA033CD3D05DF8040B17
:100F8000704700BF8446104662468C461946634649
:100F900000E000BF01B5FFF7B7FF002848BF10F120
:100FA000000F01BD4DF808EDFFF7F4FF0CBF012065
:100FB00000205DF808FB00BF4DF808EDFFF7EAFFE1
:100FC00034BF012000205DF808FB00BF4DF808ED9C
:100FD000FFF7E0FF94BF012000205DF808FB00BF91
:100FE0004DF808EDFFF7CEFF94BF012000205DF81B
:100FF00008FB00BF4DF808EDFFF7C4FF34BF012028
:1010000000205DF808FB00BF4FEA410C7FEA6C5CF2
:1010100002D150EA013C0AD14FEA430C7FEA6C5CF2
:1010200002D152EA033C02D14FF0000070474FF06A
:10103000010070474FEA410212F5001215D211D596
:101040006FF47873B3EB625212D94FEAC12343F0C5
:10105000004343EA505311F0004F23FA02F018BF47
:10106000404270474FF00000704750EA013005D110
:1010700011F0004008BF6FF0004070474FF00000D3
:10108000704700BF4A0011D212F5001211D20DD5DF
:101090006FF47873B3EB62520ED44FEAC12343F07E
:1010A000004343EA505323FA02F070474FF0000028
:1010B000704750EA013002D14FF0FF3070474FF0D7
:1010C000000070474FEA4102B2F1E04324BFB3F59C
:1010D000001CDCF1FE5C0DD901F0004C4FEAC002AF
:1010E0004CEA5070B2F1004F40EB830008BF20F093
:1010F0000100704711F0804F21D113F13872BCBF4D
:1011000001F00040704741F480114FEA5252C2F1A1
:101110001802C2F1200C10FA0CF320FA02F018BFEA
:1011200040F001004FEAC1234FEAD32303FA0CFC3D
:1011300040EA0C0023FA02F34FEA4303CCE77FEACC
:10114000625307D150EA01331EBF4FF0FE4040F416
:101150004000704701F0004040F0FE4040F40000C5
:10116000704700BF80F0004002E000BF81F0004106
:1011700042001FBF5FEA410392EA030F7FEA226C3D
:101180007FEA236C6AD04FEA1262D2EB1363C1BFCD
:10119000D218414048404140B8BF5B42192B88BF3C
:1011A000704710F0004F40F4000020F07F4018BF5F
:1011B000404211F0004F41F4000121F07F4118BF7F
:1011C000494292EA030F3FD0A2F1010241FA03FC27
:1011D00010EB0C00C3F1200301FA03F100F000430F
:1011E00002D5494260EB4000B0F5000F13D3B0F1D7
:1011F000807F06D340084FEA310102F10102FE2A46
:1012000051D2B1F1004F40EBC25008BF20F00100B5
:1012100040EA03007047490040EB0000013A28BF54
:10122000B0F5000FEDD2B0FA80FCACF1080CB2EBD7
:101230000C0200FA0CF0AABF00EBC2505242184355
:10124000BCBFD0401843704792F0000F81F40001FA
:1012500006BF80F400000132013BB5E74FEA4103CD
:101260007FEA226C18BF7FEA236C21D092EA030F39
:1012700004D092F0000F08BF0846704790EA010FB3
:101280001CBF0020704712F07F4F04D1400028BFE0
:1012900040F00040704712F100723CBF00F50000C2
:1012A000704700F0004343F0FE4040F400007047F8
:1012B0007FEA226216BF08467FEA236301464202A4
:1012C00006BF5FEA412390EA010F40F480007047B7
:1012D0004FF0000304E000BF10F0004348BF40425D
:1012E0005FEA000C08BF704743F0964301464FF099
:1012F00000001CE050EA010208BF70474FF00003F5
:101300000AE000BF50EA010208BF704711F0004335
:1013100002D5404261EB41015FEA010C02BF844605
:101320000146002043F0B64308BFA3F18053A3F564
:101330000003BCFA8CF2083AA3EBC25310DB01FAAB
:1013400002FC634400FA02FCC2F12002BCF1004F2F
:1013500020FA02F243EB020008BF20F001007047C0
:1013600002F1200201FA02FCC2F1200250EA4C0014
:1013700021FA02F243EB020008BF20EADC7070475A
:101380007BB972B90029BEBF00204FF0004106E0D2
:1013900008BF00281CBF6FF000414FF0FF3000F085
:1013A0002DB9ADF1080C6DE904CE002909DB002B45
:1013B0001ADB63F077FADDF804E0DDE9022304B01C
:1013C0007047404261EB4101002B1BDB63F06AFA7E
:1013D000DDF804E0DDE9022304B0404261EB4101A5
:1013E000524263EB43037047524263EB430363F0A3
:1013F00059FADDF804E0DDE9022304B0404261EB74
:1014000041017047524263EB430363F04BFADDF84E
:1014100004E0DDE9022304B0524263EB430370476A
:1014200053B94AB9002908BF00281CBF4FF0FF314B
:101430004FF0FF3000F0E2B8ADF1080C6DE904CEDA
:1014400063F030FADDF804E0DDE9022304B0704710
:1014500000F1340191E838009C46A6464CF8045D42
:1014600090E8FF0FE54600BD90EC210B704700BFF0
:1014700080EC210B704700BF90EC200B704700BF41
:1014800080EC200B704700BFD0EC200B704700BFF2
:10149000C0EC200B704700BFF0EC0201F0EC021131
:1014A000F0EC0221F0EC0231F0EC0241F0EC0251E0
:1014B000F0EC0261F0EC0271F0EC0281F0EC0291D0
:1014C000F0EC02A1F0EC02B1F0EC02C1F0EC02D1C0
:1014D000F0EC02E1F0EC02F1704700BFE0EC020139
:1014E000E0EC0211E0EC0221E0EC0231E0EC024120
:1014F000E0EC0251E0EC0261E0EC0271E0EC028110
:10150000E0EC0291E0EC02A1E0EC02B1E0EC02C1FF
:10151000E0EC02D1E0EC02E1E0EC02F1704700BF48
:10152000B0FC0181B0FC0191B0FC01A1B0FC01B1A3
:10153000704700BFA0FC0181A0FC0191A0FC01A1AB
:10154000A0FC01B1704700BFEC4600B52DE900508A
:101550002DE9FF1F4FF000032DE90C0001A963F0F6
:1015600053FCDDF840E012B0704700BFEC4600B518
:101570002DE900502DE9FF1F4FF000032DE90C006D
:1015800001A963F07DFCDDF840E012B0704700BFB8
:10159000EC4600B52DE900502DE9FF1F4FF0000388
:1015A0002DE90C0001A963F08BFCDDF840E012B0DE
:1015B000704700BFEC4600B52DE900502DE9FF1F34
:1015C0004FF000032DE90C0001AB63F051FCDDF896
:1015D00040E012B0704700BFEC4600B52DE9005066
:1015E0002DE9FF1F4FF000032DE90C0001AA63F065
:1015F000C3FCDDF840E012B0704700BF704700BF89
:101600000348044B834202D0034B03B11847704791
:10161000880C0020880C0020000000000548064BC4
:101620001B1AD90F01EBA301491002D0034B03B1E0
:1016300018477047880C0020880C0020000000002C
:1016400010B5064C237843B9FFF7DAFF044B13B10A
:101650000448AFF300800123237010BD880C0020E4
:1016600000000000D058060808B5054B1BB105491D
:101670000548AFF30080BDE80840FFF7CFBF00BFCB
:10168000000000008C0C0020D058060880B58EB0F9
:1016900000AF334B334A1A60314B4FF480325A60FB
:1016A0002F4B00229A602E4B00221A612C4B0022F5
:1016B0009A612B4B00221A62294B0022DA62284BD6
:1016C000294A9A62264B0022DA60254B0122DA6110
:1016D000234B00221A63224B01225A6120481AF040
:1016E00011FD0346002B03D05A21204800F086FC50
:1016F0000623BB620123FB6200233B6307F128033F
:10170000194617481AF032FE0346002B03D0632116
:10171000164800F073FC06237B600123BB600123A5
:101720007B610023FB604FF480137B624FF4102336
:101730003B620023FB610023BB6100233B613B1D37
:10174000194607481BF0A6F80346002B03D0722168
:10175000064800F053FC00BF3837BD4680BD00BFCF
:10176000A40C0020002001400100000FE8580608EA
:1017700080B58EB000AF344B344A1A60324B4FF410
:1017800080325A60304B00229A602F4B00221A613F
:101790002D4B00229A612C4B00221A622A4B4FF0EB
:1017A0008052DA62284B4FF060629A62264B002228
:1017B000DA60254B0122DA61234B00221A63224BA7
:1017C00001225A6120481AF09DFC0346002B03D0E9
:1017D00089211F4800F012FC0D23BB620123FB622C
:1017E00000233B6307F12803194617481AF0BEFD92
:1017F0000346002B03D09221154800F0FFFB0B237A
:101800007B600123BB6001237B610023FB604FF4FD
:1018100080137B624FF410233B620023FB610023A3
:10182000BB6100233B613B1D194607481BF032F8A2
:101830000346002B03D0A121054800F0DFFB00BFC9
:101840003837BD4680BD00BFEC0C002000210140B0
:10185000E858060880B58EB000AF344B344A1A60A1
:10186000324B4FF480325A60304B00229A602F4B3B
:1018700000221A612D4B00229A612C4B00221A6221
:101880002A4B4FF08052DA62284B4FF060629A6226
:10189000264B0022DA60254B0122DA61234B00221D
:1018A0001A63224B01225A6120481AF02BFC03468E
:1018B000002B03D0B8211F4800F0A0FB0C23BB6213
:1018C0000123FB6200233B6307F1280319461748F5
:1018D0001AF04CFD0346002B03D0C121154800F03F
:1018E0008DFB0C237B600123BB6001237B61002304
:1018F000FB604FF480137B624FF410233B620023A4
:10190000FB610023BB6100233B613B1D1946074877
:101910001AF0C0FF0346002B03D0D021054800F089
:101920006DFB00BF3837BD4680BD00BF340D0020C1
:1019300000220140E858060880B58AB000AF786000
:101940007B681B68554A934258D100233B61544B36
:101950005B6C534A43F480735364514B5B6C03F4E8
:1019600080733B613B6926237B610323BB610023BA
:10197000FB6107F1140319464A481DF0B5F86023CE
:101980007B610323BB610023FB6107F1140319464C
:1019900045481DF0A9F8454B454A1A60434B0022C3
:1019A0005A60424B00229A60404B0022DA603F4B63
:1019B0004FF480621A613D4B4FF400625A613B4B19
:1019C0004FF400529A61394B4FF48072DA61374B11
:1019D00000221A62354B00225A6234481CF04CF93E
:1019E0000346002B03D0FE21324800F007FB7B6842
:1019F0002E4A9A632D4A7B6893634AE07B681B6892
:101A00002D4A934226D10023FB60254B5B6C244A70
:101A100043F400735364224B5B6C03F40073FB606C
:101A2000FB6826237B610323BB610023FB6107F175
:101A3000140319461B481DF057F860237B610323EC
:101A4000BB610023FB6107F11403194616481DF022
:101A50004BF81EE07B681B68184A934219D100239B
:101A6000BB600F4B5B6C0E4A43F4806353640C4BBA
:101A70005B6C03F48063BB60BB6806237B6103235C
:101A8000BB610023FB6107F11403194605481DF0F3
:101A90002BF800BF2837BD4680BD00BF00200140A5
:101AA0000038024000080240000002407C0D002087
:101AB00010640240E858060800210140002201405D
:101AC00080B588B000AF78607B681B68224A93427B
:101AD0003ED10023BB60214B1B6C204A43F00073B6
:101AE00013641E4B1B6C03F00073BB60BB684FF4A8
:101AF0004073FB6002233B6100237B610323BB61D6
:101B00000923FB6107F10C03194615481CF0ECFF93
:101B10000022092113201CF04EF813201CF067F856
:101B20000022092114201CF046F814201CF05FF854
:101B30000022092115201CF03EF815201CF057F852
:101B40000022092116201CF036F816201CF04FF850
:101B500000BF2037BD4680BD006400400038024011
:101B60000004024080B582B000AF00237B60274BA9
:101B70001B6B264A43F400131363244B1B6B03F4C3
:101B800000137B607B6800233B60204B1B6B1F4A6C
:101B900043F4800313631D4B1B6B03F480033B6012
:101BA0003B68002204210B201CF005F80B201CF0E0
:101BB0001EF800220A210D201BF0FDFF0D201CF055
:101BC00016F800220A210F201BF0F5FF0F201CF051
:101BD0000EF800220A2110201BF0EDFF10201CF04F
:101BE00006F800220A2111201BF0E5FF11201BF04E
:101BF000FEFF002203212F201BF0DDFF2F201BF012
:101C0000F6FF00BF0837BD4680BD00BF0038024068
:101C100080B58AB000AF00233B61454B1B6B444A43
:101C200043F004031363424B1B6B03F004033B615B
:101C30003B690023FB603E4B1B6B3D4A43F0800336
:101C400013633B4B1B6B03F08003FB60FB680023BB
:101C5000BB60374B1B6B364A43F001031363344BB5
:101C60001B6B03F00103BB60BB6800237B60304B40
:101C70001B6B2F4A43F0020313632D4B1B6B03F0C6
:101C800002037B607B6800233B60294B1B6B284A67
:101C900043F008031363264B1B6B03F008033B6000
:101CA0003B6801224FF4005122481DF0B5F9002293
:101CB0004FF4805120481DF0AFF94FF400537B6181
:101CC0000123BB610023FB6100233B6207F1140386
:101CD000194618481CF008FF4FF480637B6100230D
:101CE000BB610023FB6107F11403194613481CF084
:101CF000FBFE4FF480537B610123BB610023FB613A
:101D000000233B6207F1140319460B481CF0ECFE5C
:101D100004237B610023BB610123FB6107F11403F2
:101D2000194607481CF0E0FE00BF2837BD4680BDBD
:101D30000038024000080240000402400000024057
:101D4000000C024080B582B000AF0346FB71154B1A
:101D5000154A1A60134B154A5A60124B00229A60BA
:101D6000FB795B000F4AD3600E4B4FF480421A613F
:101D70000C4B00225A610B4B00229A61094B002246
:101D8000DA61084B00221A6206481DF05FF903462B
:101D9000002B03D04F21064800F030F900BF083770
:101DA000BD4680BDE00D002000540040A08601002B
:101DB0001C59060880B584B000AF78607B681B684A
:101DC000424A93427ED10023FB60414B1B6C404A48
:101DD00043F4001313643E4B1B6C03F40013FB60CD
:101DE000FB683C4B3C4A1A603A4B4FF000725A6019
:101DF000384B00229A60374B0022DA60354B4FF4A3
:101E000080621A61334B00225A61324B00229A6180
:101E1000304B4FF48072DA612E4B00221A622D4B48
:101E200000225A622B481BF027FF0346002B03D0E9
:101E30006E212A4800F0E2F87B68264A9A63254A18
:101E40007B689363264B274A1A60254B4FF000723C
:101E50005A60234B40229A60214B0022DA60204BCB
:101E60004FF480621A611E4B00225A611C4B002203
:101E70009A611B4B0022DA61194B00221A62184B3F
:101E800000225A6216481BF0F7FE0346002B03D0CF
:101E90008021124800F0B2F87B68114A5A63104A58
:101EA0007B689363002209211F201BF084FE1F2002
:101EB0001BF09DFE0022092120201BF07CFE20202B
:101EC0001BF095FE00BF1037BD4680BD005400409A
:101ED00000380240340E0020106002401C590608F1
:101EE000940E0020A060024080B594B000AF0023A3
:101EF000BB60354B1B6C344A43F080531364324B48
:101F00001B6C03F08053BB60BB6800237B602F4BCE
:101F10001B682E4A43F4804313602C4B1B6803F468
:101F200080437B607B6809233B624FF480337B6294
:101F300001237B630223BB634FF48003FB63042311
:101F40003B64A8237B640223BB640723FB6407F183
:101F5000200318461FF01EFC0346002B03D0B921B6
:101F60001B4800F04BF80F23FB6002233B6100236A
:101F70007B614FF4A053BB614FF48053FB6107F1C9
:101F80000C03052118461FF043FE0346002B03D027
:101F9000C7210F4800F032F820F022F803460D4A1E
:101FA000A2FB03239B0918461BF03DFE04201BF0F7
:101FB00047FE00220F214FF0FF301BF0FCFD00BF59
:101FC0005037BD4680BD00BF003802400070004061
:101FD00050590608D34D621080B582B000AF7860CA
:101FE0007B681B68044A934201D11AF047F800BF8E
:101FF0000837BD4680BD00BF0020004080B483B0DC
:1020000000AF78603960FEE780B500AF194B1A4A1F
:102010001A60184B4FF482725A60164B00229A6075
:10202000144B4FF40062DA60124B00221A61114B1C
:1020300001225A610F4B4FF400729A610D4B182226
:10204000DA610C4B00221A620A4B00225A62094BD9
:1020500000229A62074B0A22DA62064820F026F82C
:102060000346002B03D052210448FFF7C7FF00BFEF
:1020700080BD00BFF40E0020003C004084590608DB
:1020800080B588B000AF78607B681B68554A934282
:1020900040F0A4800023BB60534B1B6C524A43F4B6
:1020A00000431364504B1B6C03F40043BB60BB68DC
:1020B0004FF4A053FB6002233B6102237B610123A9
:1020C000BB610623FB6107F10C03194647481CF06E
:1020D0000BFD4FF40063FB6001237B6107F10C03F0
:1020E000194642481CF000FD414B424A1A60404BE1
:1020F00000225A603E4B40229A603D4B0022DA603B
:102100003B4B4FF480621A617B68DB68002B06D181
:10211000374B00225A61364B00229A6107E0344B5C
:102120004FF400625A61324B4FF400529A61304BC7
:102130000022DA612E4B4FF400321A622C4B00223F
:102140005A622B481BF098FD0346002B03D08921CF
:102150002948FFF753FF7B68254A9A64244A7B6825
:102160009363264B264A1A60244B00225A60234B65
:1021700000229A60214B0022DA60204B4FF48062EB
:102180001A617B68DB68002B06D11C4B00225A6168
:102190001A4B00229A6107E0184B4FF400625A6113
:1021A000164B4FF400529A61144B0022DA61134B24
:1021B0004FF480321A62114B00225A620F481BF012
:1021C0005BFD0346002B03D0A0210B48FFF716FF51
:1021D0007B680A4ADA64094A7B68936300BF203748
:1021E000BD4680BD003C004000380240000802406F
:1021F0004C0F0020B860024084590608AC0F002044
:102200001060024080B582B000AF78607B681B68C8
:102210000F4A934217D10F4B1B6C0E4A23F4004315
:1022200013644FF4E0510C481CF0FAFD7B689B6C82
:1022300018461BF0CFFD7B68DB6C18461BF0CAFD0F
:1022400033201BF0E2FC00BF0837BD4680BD00BF55
:10225000003C0040003802400008024080B582B0D7
:1022600000AF00237B60254B5B6C244A43F4804322
:102270005364224B5B6C03F480437B607B680023D8
:102280003B601E4B1B6C1D4A43F0805313641B4B79
:102290001B6C03F080533B603B6803201BF080FC09
:1022A000002200216FF00B001BF085FC00220021B2
:1022B0006FF00A001BF07FFC002200216FF0090084
:1022C0001BF079FC002203216FF004001BF073FC6B
:1022D000002200216FF003001BF06DFC00220F2193
:1022E0006FF001001BF067FC00220F214FF0FF3060
:1022F0001BF061FC00BF0837BD4680BD00380240BE
:1023000080B58CB000AF78600023FB620023BB6215
:10231000002279682D201BF04EFC2D201BF067FC5D
:102320000023FB601F4B1B6C1E4A43F48073136435
:102330001C4B1B6C03F48073FB60FB6807F11002FD
:1023400007F11403114618461FF07EFE1FF054FEDD
:1023500003465B00FB62FB6A134AA2FB03239B0C50
:10236000013BBB62114B124A1A60104B40F2E7323C
:10237000DA600E4ABB6A53600C4B00221A610B4BA9
:1023800000229A60094820F008FC0346002B04D183
:10239000064820F02DFC034600E0012318463037A4
:1023A000BD4680BD0038024083DE1B430C10002078
:1023B0000020004080B400AF00BFBD465DF8047B44
:1023C0007047000080B491B000AF7860264B5B6C22
:1023D000254A23F440435364244B5B6C234A23F483
:1023E000404353647B681B68FB637B685B68BB632B
:1023F0007B689B687B637B68DB683B637B681B69EE
:10240000FB627B685B69BB627B689B697B627B6804
:10241000DB693B62164B9B6AFB61154BD3F8883036
:10242000BB61144B5B687B61FB6903F40073002B99
:1024300014BF01230023DBB2FB74FB6903F4807338
:10244000002B14BF01230023DBB2BB740123FB600C
:1024500000BFFB68002BFCD100BF00BF4437BD4666
:102460005DF8047B704700BF00000140000401409C
:1024700000ED00E030EF00E01EF0040F0CBFEFF3C2
:102480000880EFF30980FFF79DBF00BF80B400AF65
:10249000064B5B6C054A23F440435364044B5B6C6E
:1024A000034A23F440435364F2E700BF00000140B5
:1024B0000004014080B400AF064B5B6C054A23F476
:1024C00040435364044B5B6C034A23F4404353641E
:1024D000F2E700BF000001400004014080B400AFFB
:1024E000064B5B6C054A23F440435364044B5B6C1E
:1024F000034A23F440435364F2E700BF0000014065
:102500000004014080B400AF00BFBD465DF8047B0D
:10251000704780B500AF16F099FF00BF80BD000086
:1025200080B500AF02481BF093FD00BF80BD00BF27
:10253000AC0F002080B500AF02481BF089FD00BF42
:1025400080BD00BF3012002080B500AF02481BF0F4
:102550007FFD00BF80BD00BF9012002080B500AF9E
:1025600002481BF075FD00BF80BD00BFF0120020C7
:1025700080B500AF02481BF06BFD00BF80BD00BFFF
:102580005013002080B500AF02481BF061FD00BF72
:1025900080BD00BF4C0F002080B500AF02481BF08B
:1025A00023F800BF80BD00BF1402002080B500AF3B
:1025B00002481BF019F800BF80BD00BF14020020C4
:1025C00080B500AF02481BF00FF800BF80BD00BF10
:1025D0001402002080B500AF02481BF005F800BFD0
:1025E00080BD00BF1402002080B500AF024821F07A
:1025F00027FF00BF80BD00BFF011002080B500AFF5
:10260000034820F0FFFC034820F0FCFC00BF80BD25
:10261000381100200C10002080B500AF024820F0D7
:1026200007F800BF80BD00BFF40E002080B500AFEA
:10263000024821F005FF00BF80BD00BFB01100209F
:1026400080B400AF164BD3F88830154A43F47003BA
:10265000C2F88830134B1B68124A43F00103136021
:10266000104B00229A600F4B1B680E4A23F08473B4
:1026700023F4803313600B4B0B4A5A60094B1B68E1
:10268000084A23F480231360064B0022DA60044BCF
:102690004FF000629A6000BFBD465DF8047B704752
:1026A00000ED00E0003802401030002480B58AB010
:1026B00000AF2D4B4FF080421A602B4B00225A6026
:1026C000294B60229A60284B4FF48052DA60264BE7
:1026D00000221A61244820F0DBFA0346002B03D0C5
:1026E0004D212248FFF78AFC00233B6200237B62D6
:1026F00007F1200319461C4821F07BFC0346002B00
:1027000003D053211948FFF779FC70237B60002325
:10271000BB600223FB6000237B613B1D082219463E
:10272000114820F013FE0346002B03D05B210F4815
:10273000FFF764FC41F20103BB600023FB603B1D1B
:102740000C221946084820F001FE0346002B03D056
:1027500061210648FFF752FC034800F0B5FA00BFBC
:102760002837BD4680BD00BF84100020B859060838
:1027700080B58CB000AF214B214A1A601F4B00225C
:102780005A601E4B00229A601C4B4FF6FF72DA60B3
:102790001A4B00221A610323FB6000233B610123D3
:1027A0007B610023BB610423FB6100233B620123A7
:1027B0007B620023BB620423FB6207F10C03194612
:1027C0000E4820F051FB0346002B03D07B210D481F
:1027D000FFF714FC00237B600023BB603B1D194600
:1027E000064821F006FC0346002B03D08121054852
:1027F000FFF704FC00BF3037BD4680BD4810002005
:1028000000000140B859060880B586B000AF2A4BD9
:102810002A4A1A60284B00225A60274B60229A608D
:10282000254B40F6AC52DA60234B00221A61224B52
:1028300002225A61204820F0B0F90346002B03D051
:102840008F211F48FFF7DAFB4FF48053BB6007F17D
:1028500008031946184820F03FFE0346002B03D01A
:1028600094211748FFF7CAFB134820F011FA0346DA
:10287000002B03D098211248FFF7C0FB0E4820F030
:10288000D2F90346002B03D09C210D48FFF7B6FB7D
:1028900020233B6000237B603B461946064821F01D
:1028A000A8FB0346002B03D0A2210548FFF7A6FB97
:1028B00000BF1837BD4680BDC01000200008004092
:1028C000B859060880B586B000AF284B284A1A6070
:1028D000264B00225A60254B00229A60234B4FF072
:1028E000FF32DA60214B00221A61204820F030FAD2
:1028F0000346002B03D0B0211E48FFF77FFB0023C7
:102900003B6100237B6107F110031946174821F052
:1029100070FB0346002B03D0B6211648FFF76EFB71
:102920000A233B6001237B600023BB600F23FB6015
:102930003B46082219460D4820F06CFC0346002B4C
:1029400003D0BE210B48FFF759FB3B460C2219462A
:10295000064820F05FFC0346002B03D0C221054847
:10296000FFF74CFB00BF1837BD4680BDFC100020B0
:10297000000C0040B859060880B590B000AF4A4B33
:102980004A4A1A60484B00225A60474B60229A60BC
:10299000454B40F6AC52DA60434B00221A61424B81
:1029A00002225A61404820F073F90346002B03D0FD
:1029B000D3213F48FFF722FB3B4820F034F9034680
:1029C000002B03D0D7213A48FFF718FB2023BB6325
:1029D0000023FB6307F138031946334821F009FB54
:1029E0000346002B03D0DD213148FFF707FB70239E
:1029F000FB6100233B6200237B620023BB62002358
:102A0000FB6200233B6300237B6307F11C0300226E
:102A10001946254820F09AFC0346002B03D0E821F4
:102A20002348FFF7EBFA07F11C03042219461E485E
:102A300020F08CFC0346002B03D0EC211C48FFF750
:102A4000DDFA07F11C0308221946174820F07EFC26
:102A50000346002B03D0F0211548FFF7CFFA4FF4BF
:102A600000633B604FF480637B600023BB601423F2
:102A7000FB6000233B614FF400537B610023BB618B
:102A80003B461946084821F0F9FA0346002B03D0CB
:102A9000FB210748FFF7B2FA034800F015F900BF21
:102AA0004037BD4680BD00BF381100200004014002
:102AB000B859060880B500AF0E4B0F4A1A600D4B8F
:102AC00000225A600B4B00229A600A4B42F6031216
:102AD000DA60084B00221A61064820F05EF80346CF
:102AE000002B04D04FF484710448FFF787FA00BF2D
:102AF00080BD00BF74110020001C0040B8590608BA
:102B000080B485B000AF78607B681B68154A93423B
:102B10000ED10023FB60144B1B6C134A43F00403DB
:102B20001364114B1B6C03F00403FB60FB6812E0A1
:102B30007B681B680D4A93420DD10023BB600A4B92
:102B40001B6C094A43F080031364074B1B6C03F0B2
:102B50008003BB60BB6800BF1437BD465DF8047BD3
:102B6000704700BF0008004000380240001C0040D1
:102B700080B485B000AF78607B681B68B3F1804F8C
:102B80000ED10023FB60134B1B6C124A43F0010370
:102B90001364104B1B6C03F00103FB60FB6812E035
:102BA0007B681B680C4A93420DD10023BB60094B24
:102BB0005B6C084A43F002035364064B5B6C03F002
:102BC0000203BB60BB6800BF1437BD465DF8047BE1
:102BD000704700BF003802400004014080B58AB051
:102BE00000AF786007F1140300221A605A609A60FF
:102BF000DA601A617B681B68194A93422CD1002362
:102C00003B61184B5B6C174A43F001035364154B4F
:102C10005B6C03F001033B613B690023FB60114BDC
:102C20001B6B104A43F0010313630E4B1B6B03F045
:102C30000103FB60FB684FF440737B610223BB61BF
:102C40000023FB6100233B6201237B6207F1140335
:102C5000194605481BF048FF00BF2837BD4680BD18
:102C600000000140003802400000024080B584B0FE
:102C700000AF78607B681B68104A93421AD07B686B
:102C80001B680F4A934215D10023FB600D4B1B6C50
:102C90000C4A43F0080313640A4B1B6C03F008034F
:102CA000FB60FB680022012132201AF084FF3220F1
:102CB0001AF09DFF00BF1037BD4680BD00000140E7
:102CC000000C00400038024080B588B000AF78604A
:102CD0007B681B68B3F1804F11D14FF44063FB60F8
:102CE00002233B6100237B610023BB610123FB6165
:102CF00007F10C0319461F481BF0F6FE35E07B6810
:102D00001B681D4A934230D18023FB6002233B6144
:102D100000237B610023BB610323FB6107F10C03EC
:102D2000194616481BF0E0FE0323FB6002233B61BB
:102D300000237B610023BB610323FB6107F10C03CC
:102D400019460C481BF0D0FE4FF4E073FB600223E1
:102D50003B6100237B610023BB610323FB6107F11F
:102D60000C03194606481BF0BFFE00BF2037BD46C6
:102D700080BD00BF0004024000040140000002408A
:102D80000008024080B500AF104B114A1A600F4B8B
:102D900000229A600D4B0022DA600C4B00221A616F
:102DA0000A4B0C225A61094B00229A61074B002200
:102DB000DA61064821F0CFF90346002B03D05121F8
:102DC0000448FFF71BF900BF80BD00BFB011002011
:102DD000004C0040EC59060880B500AF104B114A7A
:102DE0001A600F4B00229A600D4B0022DA600C4BE8
:102DF00000221A610A4B0C225A61094B00229A6187
:102E0000074B0022DA61064821F0A5F90346002BA2
:102E100003D064210448FFF7F1F800BF80BD00BF74
:102E2000F011002000440040EC59060880B584B041
:102E300000AF78607B681B687D4A934277D100239E
:102E4000FB607C4B1B6C7B4A43F400231364794B7F
:102E50001B6C03F40023FB60FB68774B774A1A6016
:102E6000754B4FF000625A60734B00229A60724BB0
:102E70000022DA60704B4FF480621A616E4B0022C0
:102E80005A616D4B00229A616B4B4FF48072DA618C
:102E9000694B00221A62684B00225A6266481AF097
:102EA000EBFE0346002B03D082216548FFF7A6F80E
:102EB0007B68614A5A63604A7B689363614B624AEC
:102EC0001A60604B4FF000625A605E4B40229A607D
:102ED0005C4B0022DA605B4B4FF480621A61594B05
:102EE00000225A61574B00229A61564B0022DA6148
:102EF000544B00221A62534B00225A6251481AF076
:102F0000BBFE0346002B03D094214D48FFF776F813
:102F10007B684C4A1A634B4A7B68936300220A2100
:102F200034201AF048FE34201AF061FE7BE07B6802
:102F30001B68464A934276D10023BB603D4B1B6C15
:102F40003C4A43F4003313643A4B1B6C03F40033E4
:102F5000BB60BB683E4B3F4A1A603D4B4FF000627E
:102F60005A603B4B00229A60394B0022DA60384BA2
:102F70004FF480621A61364B00225A61344B0022B2
:102F80009A61334B4FF48072DA61314B00221A623E
:102F90002F4B00225A622E481AF06EFE0346002B79
:102FA00003D0B6212648FFF729F87B68284A5A63E0
:102FB000274A7B689363284B284A1A60264B4FF0B8
:102FC00000625A60244B40229A60234B0022DA6050
:102FD000214B4FF480621A611F4B00225A611E4B35
:102FE00000229A611C4B0022DA611B4B00221A62FC
:102FF000194B00225A6218481AF03EFE0346002B75
:1030000003D0C8210E48FEF7F9FF7B68124A1A6305
:10301000114A7B68936300220A2126201AF0CBFD17
:1030200026201AF0E4FD00BF1037BD4680BD00BF6A
:10303000004C004000380240301200204060024046
:10304000EC590608901200207060024000440040D5
:10305000F01200208860024050130020A06002405F
:1030600080B500AF00220849084823F0A9FC0849B0
:10307000064823F0DBFC0749044823F09BFB034888
:1030800023F0F5FC00BF80BD68020020B0130020D3
:103090003C0400204002002080B500AF044B1B68B8
:1030A00000220121184616F01DF90023184680BDA4
:1030B000BC5E002080B500AF044B1B6800220221DB
:1030C000184616F00FF90023184680BDBC5E00209C
:1030D00080B483B000AF03463960FB711346BB80F8
:1030E000FB79232B66D801A252F823F0B5310008F2
:1030F000B5310008B5310008B5310008B531000818
:10310000B5310008B5310008B5310008B531000807
:10311000B5310008B5310008B5310008B5310008F7
:10312000B5310008B5310008B5310008B5310008E7
:10313000B5310008B5310008B5310008B5310008D7
:10314000B5310008B5310008B5310008B5310008C7
:10315000B5310008B5310008B5310008B5310008B7
:10316000B5310008B5310008B5310008B5310008A7
:103170007D310008B5310008B53100083B680022F8
:103180001A703B680133C2221A703B680233012275
:103190001A703B68033300221A703B680433002224
:1031A0001A703B68053300221A703B680633082208
:1031B0001A7000E000BF002318460C37BD465DF8CA
:1031C000047B704780B584B000AFF860B9601346E7
:1031D000FB71BB681B68FA791946F8684DF0D6FC9C
:1031E000002318461037BD4680BD000080B586B06C
:1031F00000AF78600B467B8013467B700023FB7426
:103200007B88402B01D9032323E0144BD3F8BC3235
:10321000FB607B78812B03D1FB6844337B6108E042
:103220007B78832B03D1FB685C337B6101E0032354
:103230000FE07B691B7ADBB2002B01D0012308E091
:103240007A887B787968054823F0C9FA0346FB74CD
:10325000FB7C18461837BD4680BD00BFB013002068
:1032600080B588B000AF78607B681B68B3F1A04F71
:103270002CD14FF4C053FB6002233B6100237B61E0
:103280000323BB610A23FB6107F10C0319461148B4
:103290001BF02AFC104B5B6B0F4A43F08003536317
:1032A0000023BB600C4B5B6C0B4A43F480435364BC
:1032B000094B5B6C03F48043BB60BB6800220621B2
:1032C00043201AF078FC43201AF091FC00BF20370D
:1032D000BD4680BD000002400038024080B586B087
:1032E00000AF78600023FB757B68D3F8EC333B615B
:1032F0003B6903F2AA23FB607B6803F56F731946F1
:10330000F86824F058FBFB681B7803F06003402B3F
:1033100022D1FB685B78502B1ED13B690122C3F898
:1033200094223B69B3F8B0321A463B69C3F898223D
:103330003B69D3F8B8329B68F96838699847034607
:10334000FB75FB68DB88002B11D1FB7D002B0ED1B8
:10335000386924F035FC0AE07B68D3F8EC237B68FD
:1033600003F56F731946104623F0CCFB00E000BF55
:103370001837BD4680BD80B582B000AF78600B467F
:10338000FB707B68D3F8EC03FA7879681346DB00AE
:103390009B1A9B000B4403F501731A68FB781946CE
:1033A00023F005FC00BF0837BD4680BD80B582B064
:1033B00000AF78600B46FB707B68D3F8EC03FA78BB
:1033C00079681346DB009B1A9B000B4444331A6850
:1033D000FB78194623F04EFC00BF0837BD4680BD80
:1033E00080B582B000AF78607B68D3F8EC331846C4
:1033F00023F052FD00BF0837BD4680BD80B584B0C4
:1034000000AF78600123FB737B68DB68002B02D080
:10341000022B03D005E00023FB7305E00123FB73BF
:1034200002E00123FB7300BF7B68D3F8EC33FA7B27
:103430001146184623F0F5FC7B68D3F8EC331846A8
:1034400023F0AEFC00BF1037BD4680BD80B582B012
:1034500000AF78607B68D3F8EC33184623F0F1FCBA
:103460007B681B6803F560631B687A68126802F565
:10347000606243F0010313607B681B6A002B05D078
:10348000044B1B69034A43F00603136100BF08376E
:10349000BD4680BD00ED00E080B582B000AF786031
:1034A0007B68D3F8EC33184623F0E0FC00BF083704
:1034B000BD4680BD80B582B000AF78600B46FB7022
:1034C0007B68D3F8EC33FA781146184623F00BFDED
:1034D00000BF0837BD4680BD80B582B000AF7860C0
:1034E0000B46FB707B68D3F8EC33FA78114618462C
:1034F00023F0ECFC00BF0837BD4680BD80B582B02C
:1035000000AF78607B68D3F8EC33184623F0F8FC02
:1035100000BF0837BD4680BD80B582B000AF78607F
:103520007B68D3F8EC33184623F0F5FC00BF08376E
:10353000BD4680BD80B582B000AF78607B681B78E7
:10354000002B47D1264A7B68C2F8EC337B68244ABB
:10355000C3F8C422224B4FF0A0421A60204B06222F
:103560005A601F4B0222DA601D4B00221A611C4B6D
:1035700000225A611A4B02229A61194B0022DA6129
:10358000174B00221A62164B00225A62144B00227B
:10359000DA62134B00221A6311481DF04DF80346FE
:1035A000002B04D040F259110E48FEF727FD802170
:1035B0000B481EF0DEF84022002109481EF08EF86C
:1035C0004022012106481EF089F8402203210448C8
:1035D0001EF084F8002318460837BD4680BD00BFA2
:1035E00080160020205A060880B584B000AF7860AD
:1035F0000023BB730023FB737B68D3F8C4321846E7
:103600001DF021F90346BB73BB7B032B16D801A227
:1036100052F823F0253600082B3600083136000812
:10362000373600080023FB730BE00323FB7308E02D
:103630000123FB7305E00323FB7302E00323FB7309
:1036400000BFFB7B18461037BD4680BD80B584B0F7
:1036500000AF7860084611461A460346FB700B46D9
:10366000BB7013463B800023BB730023FB737B6856
:10367000D3F8C402BB783A88F9781DF0AAFD034656
:10368000BB73BB7B032B17D801A252F823F000BFFA
:10369000A1360008A7360008AD360008B33600088A
:1036A0000023FB730BE00323FB7308E00123FB7390
:1036B00005E00323FB7302E00323FB7300BFFB7BE6
:1036C00018461037BD4680BD80B584B000AF786025
:1036D0000B46FB700023BB730023FB737B68D3F89E
:1036E000C432FA78114618461DF0DBFD0346BB7361
:1036F000BB7B032B16D801A252F823F00D3700082C
:1037000013370008193700081F3700080023FB7320
:103710000BE00323FB7308E00123FB7305E00323A5
:10372000FB7302E00323FB7300BFFB7B18461037DB
:10373000BD4680BD80B584B000AF78600B46FB709D
:103740000023BB730023FB737B68D3F8C432FA7881
:10375000114618461DF09BFE0346BB73BB7B032B33
:1037600016D801A252F823F0793700087F370008F5
:10377000853700088B3700080023FB730BE0032319
:10378000FB7308E00123FB7305E00323FB7302E0F6
:103790000323FB7300BFFB7B18461037BD4680BD7B
:1037A00080B584B000AF78600B46FB700023BB731C
:1037B0000023FB737B68D3F8C432FA7811461846AD
:1037C0001DF0C0FE0346BB73BB7B032B16D801A2C2
:1037D00052F823F0E5370008EB370008F13700080E
:1037E000F73700080023FB730BE00323FB7308E0AB
:1037F0000123FB7305E00323FB7302E00323FB7348
:1038000000BFFB7B18461037BD4680BD80B485B035
:1038100000AF78600B46FB707B68D3F8C432FB6066
:1038200097F90330002B0BDAFB7803F07F02F9687D
:103830001346DB009B1A9B000B443A331B780BE0CA
:10384000FB7803F07F02F9681346DB009B1A9B00AC
:103850000B4403F5FD731B7818461437BD465DF81D
:10386000047B704780B584B000AF78600B46FB7076
:103870000023BB730023FB737B68D3F8C432FA7850
:10388000114618461DF084FC0346BB73BB7B032B1B
:1038900016D801A252F823F0A9380008AF38000862
:1038A000B5380008BB3800080023FB730BE0032386
:1038B000FB7308E00123FB7305E00323FB7302E0C5
:1038C0000323FB7300BFFB7B18461037BD4680BD4A
:1038D00080B586B000AFF8607A603B600B46FB7243
:1038E0000023BB750023FB75FB68D3F8C402F97A8B
:1038F0003B687A681DF082FD0346BB75BB7D032BD8
:1039000016D801A252F823F0193900081F3900080F
:10391000253900082B3900080023FB750BE0032331
:10392000FB7508E00123FB7505E00323FB7502E04E
:103930000323FB7500BFFB7D18461837BD4680BDCD
:1039400080B586B000AFF8607A603B600B46FB72D2
:103950000023BB750023FB75FB68D3F8C402F97A1A
:103960003B687A681DF0E7FC0346BB75BB7D032B03
:1039700016D801A252F823F0893900088F390008BF
:10398000953900089B3900080023FB750BE00323E1
:10399000FB7508E00123FB7505E00323FB7502E0DE
:1039A0000323FB7500BFFB7D18461837BD4680BD5D
:1039B00080B582B000AF78600B46FB707B68D3F8AF
:1039C000C432FA78114618461DF0FFFC034618462B
:1039D0000837BD4680BD000080B584B000AFF860F8
:1039E0000B467A60FB727B6800221A80FB7AEE2B12
:1039F00004D17B6812221A80084B0AE0FB7A062B5E
:103A000006D17A680649074824F020F8044B00E004
:103A1000002318461037BD4680BD00BF5402002069
:103A2000701A0020585A060880B483B000AF0346CD
:103A30003960FB713B6812221A80034B18460C3721
:103A4000BD465DF8047B70478402002080B483B0DB
:103A500000AF03463960FB713B6804221A80034BB8
:103A600018460C37BD465DF8047B7047980200206D
:103A700080B582B000AF03463960FB71FB79002B43
:103A800005D13A680749084823F0E0FF04E03A68A6
:103A90000449054823F0DAFF024B18460837BD46B3
:103AA00080BD00BF701A0020745A060880B582B02D
:103AB00000AF03463960FB713A680449044823F0BB
:103AC000C5FF024B18460837BD4680BD701A00205E
:103AD000905A060880B582B000AF03463960FB718A
:103AE0003A680449044823F0B1FF024B18460837EE
:103AF000BD4680BD701A0020C0A8002080B582B0ED
:103B000000AF03463960FB71FB79002B05D13A68A1
:103B10000749084823F09AFF04E03A680449054839
:103B200023F094FF024B18460837BD4680BD00BF06
:103B3000701A0020A05A060880B582B000AF034674
:103B40003960FB71FB79002B05D13A6807490848B9
:103B500023F07CFF04E03A680449054823F076FF2F
:103B6000024B18460837BD4680BD00BF701A0020C2
:103B7000AC5A060880B400AF00231846BD465DF875
:103B8000047B704780B483B000AFEFF310833B60D9
:103B90003B687B6072B600BF7B6818460C37BD4639
:103BA0005DF8047B704700BF80B485B000AF7860DB
:103BB0007B68FB60FB6883F3108800BF00BF14378D
:103BC000BD465DF8047B704780B483B000AF786079
:103BD000012318460C37BD465DF8047B704700BFD3
:103BE00080B582B000AF7860FFF7CCFF02467B68FB
:103BF0001A607B6800221A717B6818460837BD4638
:103C000080BD00BF80B582B000AF78607B681B6864
:103C10001846FFF7C9FF7B6818460837BD4680BDC8
:103C200080B483B000AF78607B6800221A607B6844
:103C300000229A807B6818460C37BD465DF8047BED
:103C4000704700BF80B485B000AFF860B96013461C
:103C5000FB80FB68BA681A60FB68FA889A80FB6888
:103C600018461437BD465DF8047B704780B582B0B6
:103C700000AF78600B46FB707B681B68002B0CD094
:103C80007B6818687B689988FB78002B01D001233A
:103C900000E000231A461BF0BFF900BF0837BD46FD
:103CA00080BD00BF80B483B000AF78607B681B68C4
:103CB000002B09D07B681B681B697A6892881340C7
:103CC000002B01D0012300E0002318460C37BD462D
:103CD0005DF8047B704700BF80B483B000AF7860AC
:103CE00039607B683A681A607B6800225A607B689A
:103CF00018460C37BD465DF8047B704780B483B02E
:103D000000AF7860044A7B681A607B6818460C37FD
:103D1000BD465DF8047B7047E45F060880B483B05D
:103D200000AF7860044A7B681A607B6818460C37DD
:103D3000BD465DF8047B7047D05F060880B584B04F
:103D400000AFF860B960394681E80C00FB6818469E
:103D5000FFF7D4FFFB6804331846FFF7DFFF144A70
:103D6000FB681A60134AFB685A60FB68BA689A607D
:103D7000FB680C333A4692E8030083E80300FB68D3
:103D8000143307F1180292E8030083E80300FB688C
:103D90001C3307F1200292E8030083E80300FB686C
:103DA000002283F82C20FB6818461037BD4680BDE2
:103DB000C4610608DC61060880B485B000AFF86015
:103DC000B960394681E80C00FB68BA681A60FB6884
:103DD00004333A4692E8030083E80300FB68184680
:103DE0001437BD465DF8047B704700BF80B483B0D4
:103DF00000AF786039603B6818460C37BD465DF807
:103E0000047B704780B483B000AF0223FB80054B76
:103E10005B6A9BB25B009BB218460C37BD465DF8EF
:103E2000047B7047001C004080B582B000AF786012
:103E3000FFF7E8FF034618460837BD4680BD00BFC0
:103E400080B584B000AF78603960FFF7DBFF0346D0
:103E5000FB60FA683B68D31ABB600E4B1B78002BE3
:103E600008D07B683A681A607B68FA685A60BA685A
:103E70007B689A607B680C3307F10802114618468C
:103E800001F02EF803461A687B68DA6000BF10372D
:103E9000BD4680BD701C002080B582B000AF786048
:103EA00039607B683A681A603868FFF7BDFF0246E0
:103EB0007B685A607B6800221A727B681846083754
:103EC000BD4680BD80B582B000AF78607B681A685F
:103ED0007B685B6819461046FFF7B2FF7B6818469F
:103EE0000837BD4680BD00BF80B483B000AF7860A6
:103EF0007B684FF000021A607B6832225A607B6850
:103F000000221A817B6800229A727B680022DA7292
:103F10007B680022DA607B6818460C37BD465DF886
:103F2000047B704780B483B000AF78607B684FF04B
:103F300000021A607B684FF000025A607B684FF005
:103F400000029A607B6800221A737B6818460C375F
:103F5000BD465DF8047B704780B582B000AF7860E5
:103F60007B681846FFF7C0FF7B6800221A617B68F8
:103F700000221A757B6800225A757B6800229A75A8
:103F80007B684FF000029A617B681C331846FFF78C
:103F9000C9FF7B6818460837BD4680BD80B483B032
:103FA00000AF7860044A7B681A607B6818460C375B
:103FB000BD465DF8047B70479C5F060880B483B003
:103FC00000AF78607B6800221A807B6801229A70BB
:103FD0007B6800225A607B6818460C37BD465DF846
:103FE000047B704780B582B000AF78607B6818466C
:103FF000FFF7D4FF074A7B681A607B6804331846D2
:10400000FFF7DCFF7B680022DA607B681846083720
:10401000BD4680BD2C66060880B483B000AF7860D2
:1040200039603B680D2B04D83B68DB00074A13441A
:1040300000E0064B7A6893E8030082E803007868A2
:104040000C37BD465DF8047B704700BF285D00203B
:1040500080B483B000AF78607B68074A1A607B68E1
:10406000054A5A607B68054A9A607B6818460C3797
:10407000BD465DF8047B704700007A440118CF3AD2
:1040800080B582B000AF78607B6800221A607B68E0
:1040900004331846FFF7DCFF7B6800221A747B6844
:1040A0004FF000025A617B684FF000029A617B6812
:1040B0004FF00002DA617B684FF000021A627B6801
:1040C0004FF000025A627B6828339FED0C0A1846B5
:1040D00000F0F2FE7B6830339FED080A184600F0CE
:1040E000EBFE7B6838339FED050A184600F0E4FECE
:1040F0007B6818460837BD4680BD00BF0000000041
:1041000080B483B000AF7860044A7B681A607B6833
:1041100018460C37BD465DF8047B7047AC5F060857
:1041200080B483B000AF78607B6800221A607B683F
:1041300003F54053002283F844287B6803F540537D
:10414000002283F845287B6803F5405303F64803B3
:104150004FF07E521A607B6803F5405303F64C0320
:104160004FF07E521A607B6803F5405303F50563F8
:104170004FF07E521A607B6803F54053012283F8AA
:1041800054287B6818460C37BD465DF8047B7047A1
:1041900080B582B000AF78607B6803221A707B68BC
:1041A00001225A707B68494A5A607B68484A9A6083
:1041B0007B68484ADA607B684FF080421A617B680E
:1041C000454A5A617B684FF0FF429A617B684FF025
:1041D0007E52DA617B68414A1A627B68002283F86A
:1041E00024207B684FF07E529A627B684FF4806295
:1041F000DA627B684FF000021A637B684FF08042FE
:104200005A637B684FF07A529A637B683C33184656
:10421000FFF786FF7B6803F5405303F69403304AAB
:104220001A607B6803F54053002283F898287B6866
:1042300003F54053012283F899287B6803F5405326
:10424000012283F89A287B6803F54053012283F802
:104250009B287B6803F54053FF2283F89C287B68EA
:1042600003F5405303F50A634FF07E521A607B68F2
:1042700003F5405303F6A4034FF000021A607B6875
:1042800003F54053FF2283F8A8287B6803F54053C9
:1042900003F6AC030D4A1A607B6803F5405303F53F
:1042A0000B630A4A1A607B6803F5405303F6B403B4
:1042B0000B4A1A607B6803F5405303F6B803094ABA
:1042C0001A607B6818460837BD4680BD0000A041D3
:1042D000ABAA2A3EABAAAA3E9A99993F0AD7233C99
:1042E00000002041000020C180B582B000AF78609E
:1042F0007B68184600F008FE7B6818460837BD4604
:1043000080BD00BF80B582B000AF78607B68184682
:10431000FFF7EAFF7B6818460837BD4680BD00BF3F
:1043200080B483B000AF78607B684FF000021A6001
:104330007B684FF000025A607B684FF000029A6081
:104340007B684FF00002DA607B6818460C37BD4688
:104350005DF8047B704700BF80B582B000AF786025
:104360007B681846FFF7CCFE5F4A7B681A607B6863
:104370000C331846FFF70CFF7B6803F540531A46D1
:104380000023C2F8CC387B6803F54053002283F841
:10439000D0287B6803F5405303F6D4034FF00002A6
:1043A0001A607B6803F5635318331846FFF7AAFFBA
:1043B0007B6803F5635320331846FFF7A3FF7B6840
:1043C00003F5635328331846FFF79CFF7B6803F51A
:1043D000635330331846FFF795FF7B6803F540536E
:1043E00003F6F8034FF000021A607B6803F54053B0
:1043F00003F6FC034FF000021A607B6803F540539C
:1044000003F510634FF000021A607B6803F5405318
:1044100003F604134FF000021A607B6803F5405363
:1044200003F608134FF000021A607B6803F540534F
:1044300003F60C134FF000021A607B6803F540533B
:1044400003F511634FF000021A607B6803F54053D7
:1044500003F614134FF000021A607B6803F5405313
:1044600003F618134FF000021A607B6803F56453DB
:104470001C331846FFF754FF7B6803F5405303F6DF
:104480002C134FF000021A607B6803F540530022A2
:1044900083F830297B6803F54053012283F83129E2
:1044A0007B6803F54053002283F832297B6803F5CB
:1044B000405303F634134FF000021A607B6803F593
:1044C000405303F638134FF000021A607B6803F57F
:1044D00064533C339FED050A184600F0EDFC7B6801
:1044E00018460837BD4680BD24630608000000005A
:1044F00080B483B000AF78607B684FF080421A6070
:104500007B684FF07C525A607B684FF07C529A6017
:104510007B6818460C37BD465DF8047B704700BFCA
:1045200080B582B000AF78607B6800221A607B683B
:1045300004331846FFF7DCFF7B6818460837BD4692
:1045400080BD00BF80B483B000AF78607B68033368
:104550001B78032B0BD17B6804331B78062B06D109
:104560007B6805331B78182B01D1012300E0002361
:1045700018460C37BD465DF8047B704780B582B0A5
:1045800000AF17F059FDFDF7AFFC0B4B7B607B686C
:104590001B78FF2B01D1094B7B607868FFF7D2FFB6
:1045A000034683F00103DBB2002B00D0FEE700BF1F
:1045B0000837BD4680BD00BF0078FF1F0000002007
:1045C00080B58EB000AFFDF723FBFDF7CBFAFDF70A
:1045D0005DF8FDF7CDF8FEF7CBF8FEF767F8FEF7CC
:1045E00013F9FEF76FF9FEF7C7F9FEF763FAFDF767
:1045F0000BFDFDF72FF900220121062019F0DBFA4F
:10460000062019F0F4FA00220121072019F0D3FA4C
:10461000072019F0ECFA00220121082019F0CBFA4A
:10462000082019F0E4FA00220121092019F0C3FA48
:10463000092019F0DCFA002201210A2019F0BBFA46
:104640000A2019F0D4FA00220121172019F0B3FA38
:10465000172019F0CCFA00220121282019F0ABFA1A
:10466000282019F0C4FA002205214D2019F0A3FAE0
:104670004D2019F0BCFA002200212C2019F09BFAE1
:104680002C2019F0B4FA794B03F5804393F87E316E
:10469000002B09D0764B1B68744A02F58042D2F891
:1046A00084215A60FEF76EFB704B03F5804393F84C
:1046B0007F31002B09D06F4B1B686C4A02F580429A
:1046C000D2F888215A60FEF787FB684B03F58043D8
:1046D00093F89131002B7FD007F10803032118468E
:1046E000FFF79AFC07F1080000230122002101F0E6
:1046F000A7F907F1100304211846FFF78DFC07F115
:10470000100000230122002101F09AF907F118039B
:1047100005211846FFF780FC07F11800002301224D
:10472000002101F08DF9012014F088FC524B682221
:104730001A7007F1200303211846FFF76DFC07F1FB
:1047400020031846FFF7AEFA0346002B01D00121E3
:1047500000E00021484B1B785AB24BB213435BB2C6
:10476000DAB2454B1A7007F1280304211846FFF707
:1047700053FC07F128031846FFF794FA0346002B71
:1047800001D0022100E000213B4B1B785AB24BB212
:1047900013435BB2DAB2384B1A7007F130030521CC
:1047A0001846FFF739FC07F130031846FFF77AFA8D
:1047B0000346002B01D0042100E000212E4B1B7882
:1047C0005AB24BB213435BB2DAB22B4B1A702A4B7C
:1047D0001B781846FDF7B6FA244B03F5804393F88F
:1047E0009031002B13D0214B03F5804393F87C319B
:1047F000072B06D11D4B03F5804393F87D31072B22
:1048000005D01A4B03F58043012283F8A0221B4BED
:10481000DB681A4A43F00103D360184BDB68174A80
:1048200043F00203D360154B9B68144A43F08003A6
:1048300093603B464FF4805211491846FFF702FA45
:104840003B4600211846FFF711FA282014F05AFAC7
:104850003B4601211846FFF709FA44F6206014F0A0
:1048600051FA012318463837BD4680BDC85E002086
:104870009C020020A0020020D4A80020002004E018
:104880000004024080B58AB002AF3B461846FFF7ED
:10489000A7F93B461846FFF797F90346002B00F0AF
:1048A0008B804C4B1B689A684A4B1B6822F4401261
:1048B0009A60494B1B689B68474A126823F0405333
:1048C00023F440139360454B1B689B68434A12686E
:1048D00023F0405323F440139360414A07F1080347
:1048E00007CA83E807003F4A07F1140307CA83E8B1
:1048F00007006A4607F1180393E8030082E8030003
:104900007B6907F1080207CA00F00CFB314B1B68FA
:104910009A68304B1B6842F480129A602E4B1B68D9
:104920009B682D4A126843F0805343F480139360D0
:104930002A4B1B689B68294A126843F0805343F452
:1049400080139360234B1B686FF004021A60224BA4
:104950001B686FF004021A60204B1B686FF00402A2
:104960001A601C4B1B686FF002021A601A4B1B681E
:104970006FF002021A60194B1B686FF002021A6096
:10498000144B1B686FF020021A60134B1B686FF00A
:1049900020021A60114B1B686FF020021A60124B44
:1049A0001B686FF001021A610F4B1B68DA680E4B2F
:1049B0001B6842F00102DA603B461846FFF722F915
:1049C00005E03B461846FFF71DF94DF0F7FF20378D
:1049D000BD4680BDA40C0020EC0C0020340D00204E
:1049E000BC5A0608C85A06083811002080B582B0A3
:1049F00000AF7860786800F005F80346184608377D
:104A0000BD4680BD80B483B000AF78607B681B7901
:104A100018460C37BD465DF8047B704780B582B000
:104A200000AF7860786800F005F80346184608374C
:104A3000BD4680BD80B582B000AF7860FFF79AF8C0
:104A40000346002B0AD07868FFF7DCFF034683F0AB
:104A50000103DBB2002B01D0012300E00023002B77
:104A60007B68184600F07CFA034618460837BD46B6
:104A700080BD00BF80B52DED028B8AB000AF78609D
:104A8000434B1B6803F00403042B0DD1414B1B68FF
:104A900003F00603062B07D13F4B1B6803F0060308
:104AA000062B01D1012300E0002387F8273097F877
:104AB000273083F00103DBB2002B01D0002361E03B
:104AC00040F694200CF050FC324BDA6B07F11003E7
:104AD0003249184611F05CF82F4BDA6B07F10803E6
:104AE0002E49184611F054F807F110031846FFF745
:104AF0007DFF0346002B09D007F108031846FFF796
:104B000075FF0346002B01D0012300E00023002B9A
:104B10002BD007F110031846FFF780FF0346D3EDB3
:104B2000007AB1EE678A07F108031846FFF776FFAF
:104B30000346D3ED007A78EE677AC7ED067A07F17F
:104B400010031846FFF76AFF03461B68FB6107F175
:104B500008031846FFF762FF03461B683B6207F134
:104B600018031946786800F007FA094B6FF0040241
:104B70001A60084B6FF026021A60074B6FF026028E
:104B80001A60012318462837BD46BDEC028B80BD54
:104B9000002001400021014000220140381D00207A
:104BA00080B582B000AF7860786800F011F800BF7F
:104BB0000837BD4680BD00BF80B582B000AF7860C9
:104BC000786800F005F800BF0837BD4680BD00BF1B
:104BD00080B582B000AF78607B68054A934202D10D
:104BE000044801F0ADFF00BF0837BD4680BD00BFDF
:104BF000F40E0020741C002080B500AF024812F0B3
:104C000057FD00BF80BD00BF985D002080B582B019
:104C100000AF274B1B686FF001021A61254B1B6820
:104C200003F01003002B14BF01230023FB71224B60
:104C30001B78DBB2FA799A420CBF01230023BB71C7
:104C4000BB79002B07D04FF400224FF000031B4824
:104C500010F060FE28E0184AFB791370184B1B68AF
:104C600003F524530433164A1360FB7983F00103E0
:104C7000DBB2002B0ED0134B03F5804393F8B42224
:104C8000114B1A700F480EF083F8104B4D22C3F8E9
:104C9000002E09E0074B40F2D662DA63054A40F283
:104CA000D6639363034A53630837BD4680BD00BF94
:104CB0003811002000040140A85D0020381D0020AC
:104CC000A45D0020C85E0020701C002000E100E010
:104CD00090B58FB002AF624B1B68FB6207F1100307
:104CE00000221A605A609A60DA6007F110031846D1
:104CF000FFF7C0FE034683F00103DBB2002B06D0B2
:104D00004FF000724FF00003564810F003FE564B70
:104D10005B6C03F40043002B0CBF01230023DBB2C8
:104D2000002B0DD007F1200300221A605A609A6010
:104D300007F1200207F110031146184600F01CF994
:104D4000FB6AA3F256646A4607F1180393E803006E
:104D500082E8030007F110030CCB2146414811F013
:104D6000ABFBF96A41480EF04DF83B1D404918462F
:104D7000FFF792F80DE000BF3E4B1B6803F0020303
:104D8000002B0CBF01230023DBB2002BF4D1012345
:104D90003B733B7B83F00103DBB2002BEBD13B1D6C
:104DA0001846FFF78FF807F110031846FFF762FE69
:104DB000034683F00103DBB2002B06D04FF00072F4
:104DC0004FF00003274810F0A5FDFB6A03F50A54D5
:104DD0002E346A4607F1180393E8030082E80300C3
:104DE00007F110030CCB21461E4811F01BFDFB6A96
:104DF00003F5E943363319461A4811F0CDFDFB6A35
:104E000003F524530433164A1268934214BF012356
:104E10000023DBB2002B06D04FF010024FF000034E
:104E2000104810F077FD114B03F5804393F8B4322E
:104E3000002B08D0104B1B7883F00103DBB2002B52
:104E400001D0012200E00022084B03F5804383F8E3
:104E5000B422094B00221A7000BF3437BD4690BD02
:104E6000A45D0020381D002000000140C85E002025
:104E7000B0A1002000210140701C002080B500AFCF
:104E800002481AF0C5F900BF80BD00BFE00D002048
:104E900080B500AF02481AF0BFFA00BF80BD00BF66
:104EA000E00D002080B500AF02481BF0EFFC00BF12
:104EB00080BD00BF8016002080B483B000AF786052
:104EC00087ED000A7B6802221A607B683A685A60A4
:104ED0007B6818460C37BD465DF8047B704700BF01
:104EE00080B483B000AF786039607B681A683B6833
:104EF0001B689A4201D23B6800E07B6818460C3779
:104F0000BD465DF8047B704780B582B000AF786025
:104F10001946786800F096F87B6818460837BD4651
:104F200080BD00BF82B0B0B588B004AF3C1D84E83E
:104F300007007B628DF808506A4607F1280393E862
:104F4000030082E803007B6A3A1D07CA00F08AF872
:104F500000BF1037BD46BDE8B04002B0704700BF8B
:104F600080B483B000AF78607B6818460C37BD46CC
:104F70005DF8047B704700BF90B583B000AF7860E8
:104F80003960786800F0C8F80346002B0CD0386808
:104F900000F0EEF80446786800F0CAF803462246AE
:104FA00007CA83E8070007E0386800F0E1F8034625
:104FB0001946786800F0E8F87B6818460C37BD465B
:104FC00090BD00BF80B582B000AF786039707B685B
:104FD0001146184600F0EAF87B6818460837BD46C7
:104FE00080BD00BF80B582B000AF786039707B684B
:104FF00011461846FFF7E6FF7B6818460837BD469E
:1050000080BD00BF80B582B000AF786039707B682A
:1050100011461846FFF7E6FF7B6818460837BD467D
:1050200080BD00BF80B582B000AF786039707B680A
:1050300011461846FFF7E6FF7B6818460837BD465D
:1050400080BD00BF80B582B000AF786039707B68EA
:1050500011461846FFF7E6FF7B6818460837BD463D
:1050600080BD00BF82B02DE970438AB001AD10AEA3
:1050700085E8070046F8043F00246FF00108214648
:10508000284600F0A5F8D0F80090D9F800301A684A
:1050900022F001021A60DA6822F00102DA605A692D
:1050A00042F001025A612146C3F81080304600F0F8
:1050B0009FF80134D9F8003002685A62032CDED11F
:1050C0000DF1100807AE00242146284600F080F8B4
:1050D00003681B6848F8043B2146284600F078F82E
:1050E00003681B681B68013443F00103032C46F876
:1050F000043BE9D1FEF746FDDDE90421DDE9063593
:10510000089C1560099A0C601A60FEF74DFD0AB004
:10511000BDE8704302B0704780B483B000AF7860E0
:105120007B681B7B18460C37BD465DF8047B7047D7
:1051300080B582B000AF7860FEF71CFD0346002BFF
:105140000AD07868FFF7E8FF034683F00103DBB27B
:10515000002B01D0012300E00023002B7B681846C0
:1051600000F056F8034618460837BD4680BD00BF1C
:1051700080B483B000AF78607B6818460C37BD46BA
:105180005DF8047B704700BF90B583B000AF7860D6
:1051900039607C683868FFF7EBFF03461946204604
:1051A00000F042F800BF0C37BD4690BD80B582B01C
:1051B00000AF786039707B681146184600F04EF8F1
:1051C0007B6800221A717B6818460837BD4680BD8F
:1051D00080B582B000AF786039607B683968184666
:1051E00000F04CF8034618460837BD4680BD00BFA6
:1051F00080B582B000AF786039607B683968184646
:1052000000F04CF8034618460837BD4680BD00BF85
:1052100080B483B000AF78607B6818460C37BD4619
:105220005DF8047B704700BF90B583B000AF786035
:1052300039607B68184600F041F804463868FFF78B
:1052400097FF03461946204600F044F87B68012288
:105250001A7300BF0C37BD4690BD00BF80B582B049
:1052600000AF786039707B681146184600F04AF844
:105270007B6818460837BD4680BD00BF80B483B048
:1052800000AF786039603B689B007A681344184629
:105290000C37BD465DF8047B704700BF80B483B017
:1052A00000AF786039603B689B007A681344184609
:1052B0000C37BD465DF8047B704700BF80B483B0F7
:1052C00000AF78607B6818460C37BD465DF8047BFC
:1052D000704700BF90B583B000AF786039607B68DD
:1052E00019460C20FEF782FD04463868FFF740FFA0
:1052F0000246234607CA83E8070000BF0C37BD46B5
:1053000090BD00BF80B483B000AF786039707B6817
:105310004FF000021A607B6818460C37BD465DF8F6
:10532000047B704780B483B000AF7860044A7B6828
:105330001A607B6818460C37BD465DF8047B7047E1
:10534000BC5F060880B582B000AF78607868FFF770
:10535000E9FF042178684DF033FA7B681846083776
:10536000BD4680BD80B582B000AF7860054A7B68DD
:105370001A607B681846FFF7D5FF7B681846083728
:10538000BD4680BD3867060880B582B000AF786042
:105390007868FFF7E7FF2C2178684DF011FA7B68F9
:1053A00018460837BD4680BD80B582B000AF786032
:1053B000054A7B681A607B681846FFF7D3FF7B6855
:1053C00018460837BD4680BD885F060880B582B0A4
:1053D00000AF78607868FFF7E7FF382178684DF014
:1053E000EFF97B6818460837BD4680BD80B582B0AE
:1053F00000AF7860054A7B681A607B681846FFF743
:10540000B1FF7B6818460837BD4680BD745F06084B
:1054100080B582B000AF78607868FFF7E7FF502171
:1054200078684DF0CDF97B6818460837BD4680BDD9
:10543000B0B59CB00AAF786039607B68012B40F052
:105440002A813B684FF6FF72934240F024819449D1
:105450009448FEF741FC07F108034FF400529249CB
:105460001846FEF7EFFB07F110031846FEF7D8FBCE
:1054700007F1180304228D491846FEF7E3FB02AA40
:1054800007F1180393E8030082E803006A4607F176
:10549000100393E8030082E8030007F108030CCB34
:1054A00080498348FEF74AFC0423824A0F21824840
:1054B00012F092FD814A82497F484DF0FDF8814803
:1054C00012F0CEFD7D4A80497E484DF0F5F87D4BC7
:1054D0000293794B0193764B0093754B9FED7B0ABA
:1054E00006227B497B480FF07BFF07F120034FF436
:1054F000806279491846FEF7A5FB07F128034FF4AF
:10550000807275491846FEF79DFB07F130034FF492
:10551000007271491846FEF795FB07F138034FF406
:1055200080626D491846FEF78DFB5E4B069304AA18
:1055300007F1380393E8030082E8030002AA07F1A9
:10554000300393E8030082E803006A4607F128036A
:1055500093E8030082E8030007F120030CCB5F49C6
:105560005F4807F05DF95F4B01241D4604E02846C3
:10557000FEF7F2FC013C2C35002CF8DA5A48FEF715
:1055800031FD5A48FEF77CFD5948FEF7E5FE5948C3
:10559000FEF7C6FF544B0893574B0793514B0693A6
:1055A000544B05934B4B0493514B03934F4B029336
:1055B0004B4B0193032300930223012200214F4808
:1055C00002F080FE4E4C002200212046FEF73AFBFE
:1055D0000834012240492046FEF734FB08340222F9
:1055E0003D492046FEF72EFB083404223A49204666
:1055F000FEF728FB0834082237492046FEF722FB35
:105600000834102228492046FEF71CFB08340422E7
:105610003C492046FEF716FB08344FF400422E4961
:105620002046FEF70FFB0834082236492046FEF7D5
:1056300009FB08344FF4807227492046FEF702FB2D
:1056400008344FF4007224492046FEF7FBFA083470
:105650004FF4806220492046FEF7F4FA08344FF4F4
:10566000807228492046FEF7EDFA04F108034FF452
:10567000007224491846FEF7E5FA234A07F1400371
:1056800092E8030083E8030007F140030CCB1F49B5
:105690001F48FEF791FB00BF4837BD46B0BD00BFB5
:1056A000F40E0020741C002000080240000C024090
:1056B000801C0020585F0608B01C0020100200204B
:1056C000A9530008E81C0020ED5300080000C84260
:1056D00038110020381D0020000002404810002032
:1056E000E81E002088200020E0200020F02000207C
:1056F00030210020745A0020B4200020B85A002025
:10570000285D002000040240D45A0608FC10002046
:10571000985D002080B500AF4FF6FF710120FFF7C4
:1057200087FE80BDDFF838D0002103E00D4B5B58C9
:10573000435004310C480D4B42189A42F6D30C4AA0
:1057400002E0002342F8043B0A4B9A42F9D3FCF7EB
:1057500077FF0DF013FF55F0FDFF0DF053FF70477D
:1057600000000220880A080800000020880C0020A1
:10577000880C002060B80020FEE780B483B000AF42
:1057800078600B46FB70012318460C37BD465DF868
:10579000047B704780B483B000AF78604FF07C53D7
:1057A00007EE903AB0EE670A0C37BD465DF8047B11
:1057B0007047A0F10400EDE780B483B000AF7860DB
:1057C000044B07EE903AB0EE670A0C37BD465DF821
:1057D000047B70475E74513FA0F10400ECE700BF0A
:1057E00080B483B000AF0346FB800B46BB801346FA
:1057F0007B80FA88BB8813439AB27B88C3F30A0381
:105800009BB213439BB218460C37BD465DF8047B30
:10581000704780B582B000AF78607B6893F82C3019
:10582000002B0CD07B681C331846FEF73BFA03466E
:1058300083F00103DBB2002B01D0012300E0002341
:10584000002B03D07B68002283F82C2000BF083790
:10585000BD4680BD80B483B000AF78607B6893F8AC
:105860002C30022B0CBF01230023DBB218460C376F
:10587000BD465DF8047B7047A0F10400FFF7EABF66
:1058800080B584B000AF786007F10E031A4600219E
:10589000786800F021F8034683F00103DBB2002BA7
:1058A0000DD107F10C031A464FF40061786800F03F
:1058B00013F8034683F00103DBB2002B01D0012370
:1058C00000E00023002B02D04FF0FF3300E0002364
:1058D00018461037BD4680BDF0B593B00EAFF860E6
:1058E0000B467A607B817B89002219464FF4004089
:1058F000FFF776FF03461A46FB681A85FB689B682C
:105900003B60FB6828333F4E4FF47A720D920122C0
:105910000C9200220B920A93FB6808AA0C3393E8BE
:10592000030082E803006D4606F10C040FCC0FC59E
:1059300094E80F0085E80F0096E80E00386801F043
:10594000A5F8034683F00103DBB2002B01D000234E
:1059500053E0012013F0D6F97B89002219464FF459
:105960000040FFF73DFF03461A46FB681A85FB68B7
:105970004FF6FF725A85FB689B683B60FB682833D3
:10598000FA682A321F4E4FF47A710D9101210C9161
:105990000B920A93FB6808AA0C3393E8030082E891
:1059A00003006D4606F10C040FCC0FC594E80F0000
:1059B00085E80F0096E80E00386801F067F80346A6
:1059C00083F00103DBB2002B01D0002315E001209E
:1059D00013F098F9FB685B8D4BF6EF62934201D1AF
:1059E00000230AE07B68002B06D0FB685B8DC3F3C5
:1059F0000A039AB27B681A80012318461437BD4601
:105A0000F0BD00BF9061060880B485B000AF78603B
:105A10000023FB817B689B885B08BB8105E0BB8919
:105A20005B08BB81FB890133FB81BB89002BF6D16D
:105A3000FB8918461437BD465DF8047B70470000AB
:105A400080B58EB000AFF860B9607A603B60FB68EB
:105A50001B688E4A93420ED10023FB628C4B1B6B5A
:105A60008B4A43F001031363894B1B6B03F0010363
:105A7000FB62FB6A8DE0FB681B68864A93420ED18D
:105A80000023BB62824B1B6B814A43F0020313630A
:105A90007F4B1B6B03F00203BB62BB6A79E0FB68C0
:105AA0001B687D4A93420ED100237B62784B1B6BAF
:105AB000774A43F004031363754B1B6B03F0040335
:105AC0007B627B6A65E0FB681B68744A93420ED177
:105AD00000233B626E4B1B6B6D4A43F0080313635C
:105AE0006B4B1B6B03F008033B623B6A51E0FB68A6
:105AF0001B686B4A93420ED10023FB61644B1B6B06
:105B0000634A43F010031363614B1B6B03F01003F4
